S02000004D494E495F5344565F53595354454D5F4D41494E5F4D43552E737265637F
S113000045C0000061C000005FC000005DC000008A
S11300105BC0000059C0000057C0000055C000007C
S113002053C0000051C000004FC000004DC000008C
S11300304BC0000049C0000047C0000045C000009C
S113004043C0000041C0000066C400008CC400002E
S11300503BC0000039C0000037C0000035C00000BC
S113006033C0000031C000002FC000002DC00000CC
S11300702BC0000029C0000061C3000088C3000039
S113008023C0000021C000001FC0000011241FBEB7
S1130090CFEFD0E1DEBFCDBF12E0A0E0B1E0E0E8F9
S11300A0FBE100E00BBF02C007900D92AC30B1073A
S11300B0D9F724E0ACE0B2E001C01D92A338B20746
S11300C0E1F794D40C94BE0D9BCF60916A047091B7
S11300D06B0480916C0490916D040E94030960315B
S11300E0710520F483E08093670408956F317105EE
S11300F020F482E08093670408958091680482303C
S113010021F481E0809367040895833021F482E030
S113011080936704089584E0809367040895809130
S11301207E04882331F010920E0210920D02109278
S11301300C02823021F483E08093670408958130B7
S113014021F482E080936704089581111BC080919B
S11301500C02811115C080910D0290910E028F3016
S1130160910548F4019690930E0280930D0283E06A
S1130170809367040895A9DF81E080930C020895B9
S1130180A4CF0895833011F4809367040895CF9227
S1130190DF92EF92FF9260916A0470916B048091F8
S11301A06C0490916D0420E030E048E351E455D7AD
S11301B06B017C0120E030E0A901B4D788231CF452
S11301C0C12CD12C7601C0926A04D0926B04E092C7
S11301D06C04F0926D04FF90EF90DF90CF9008953F
S11301E08F929F92AF92BF92CF92DF92EF92FF9243
S11301F0CF93DF93C6E6D4E0CC80DD80EE80FF8031
S1130200288539854A855B85C701B60126D72DEC3B
S11302103CEC4CEC5DE38AD72DEC3CEC4CEC5EE31F
S11302200E94E5094B015C01688979898A899B8967
S11302302AE939E949E15FE30E94E5099B01AC0140
S1130240C501B4010BD76C877D878E879F87688B28
S1130250798B8A8B9B8BC886D986EA86FB86DF914D
S1130260CF91FF90EF90DF90CF90BF90AF909F9091
S11302708F900895CF92DF92EF92FF92B1DFC090FA
S11302807204D0907304E0907404F090750420E03C
S113029030E040E85FEBC701B6010E94E109882322
S11302A08CF460916A0470916B0480916C04909159
S11302B06D04A7019601505839D7562F472F382F70
S11302C0292F04C050E04CE33CE126E4652F742F51
S11302D0832F922FFF90EF90DF90CF900895CF92CD
S11302E0DF92EF92FF92C6DF6B017C01E6E6F4E059
S11302F0648B758B868B978B808D823051F58091C2
S11303000F0290911002A0911102B0911202009775
S1130310A105B10561F00197A109B10980930F020C
S113032090931002A0931102B093120243C02AE9E1
S113033039E949E95FE3C701B601F4D688234CF4EF
S113034020E030E0A901C701B6010E94E1091816B6
S11303508CF120E030E040EC5FE3C701B601E2D667
S11303608823CCF420E030E0A901C701B6010E9443
S1130370E109181684F482E080937E0488E090E01A
S1130380A0E0B0E080930F0290931002A0931102BA
S1130390B09312020FC020E030E040EA50E4C701FD
S11303A0B601C0D6882324F481E080937E0402C081
S11303B010927E04FF90EF90DF90CF900895DC01BF
S11303C0CB01880F991FAA1FBB1F880F991FAA1F53
S11303D0BB1F9C01AD01220F331F441F551F220F69
S11303E0331F441F551F60E070E081EE90E00E94CF
S11303F0480A215031093093900029B91BB888E983
S11304008AB986E0809395000895DC01CB01880FBA
S1130410991FAA1FBB1F880F991FAA1FBB1F9C01EE
S1130420AD01220F331F441F551F220F331F441FDA
S1130430551F60E070E081EE90E00E94480A215070
S11304403109309398002093990010929B0088E919
S113045080939A0086E080939D000895EAE9F0E095
S11304608081806280830895EAE9F0E080818F7D55
S1130470808308958AB180628AB908958AB18F7D94
S11304808AB9089560E076E980E090E0BEDF1092DA
S113049097021092160210921502109214020895F7
S11304A04F925F926F927F928F929F92AF92BF9280
S11304B0CF92DF92EF92FF920F931F93CF93DF932C
S11304C08091810481116BC080911502811167C0F4
S11304D0F894C6E6D4E06C897D898E899F8920E0F2
S11304E030E040E251E471D78ED66B017C01488D37
S11304F04C845D846E847F84098118818C809D8006
S1130500AE80BF809B01ADECBCECE4D7969587959B
S113051096958795969587959C01220F331F880F92
S1130520991F880F991F880F991F820F931F960197
S1130530281B390BC9019F932F939601CBD796950E
S1130540879596958795969587959F938F931F92F8
S11305504F93C301B20152D67F936F931F920F93AF
S11305601F921F93C501B4014ED67F936F9380E011
S113057091E09F938F9387E192E09F938F930E94E2
S1130580D20A809315021092160268DF78948DB710
S11305909EB742960FB6F8949EBF0FBE8DBFDF91F3
S11305A0CF911F910F91FF90EF90DF90CF90BF906C
S11305B0AF909F908F907F906F905F904F90089531
S11305C08D3001F18A3051F4E0919702F0E0E85661
S11305D0FD4F108281E080931402089590911302DC
S11305E0911110C0E0919702EF3F49F091E09E0F06
S11305F090939702F0E0E856FD4F8083089581E0E0
S1130600809313020895E091160280911502E81771
S113061058F481E08E0F80931602F0E0E95EFD4FFE
S1130620808180939C0008951FDF1092160210921F
S113063015020895209115022111FCCF9F938F93E9
S11306408EE391E09F938F931F9280E88F9387E1CD
S113065092E09F938F936AD78093150210921602AB
S1130660FDDE8DB79EB708960FB6F8949EBF0FBEF9
S11306708DBF089580911402882309F45EC080918F
S11306801302882351F010921302109297021092D1
S1130690140282E491E0CECF0895E8E9F2E00190FB
S11306A00020E9F73197E859F24049F03197DF012A
S11306B0A856BD4F8C918D3011F4FD0110824EE08F
S11306C050E066E571E088E992E013D7892B19F4CC
S11306D081E064D42EC04DE050E065E671E088E925
S11306E092E007D7892B19F482E058D422C047E05E
S11306F050E063E771E088E992E0FBD6892B11F4BE
S11307007DD417C0809198028A3381F4809181044A
S1130710882341F080918204823021F488E992E0B8
S11307205ED407C08BE791E085DF03C082E991E0E6
S113073081DF109297021092140208951F920F9273
S11307400FB60F9211240BB60F922F933F934F9332
S11307505F936F937F938F939F93AF93BF93EF9325
S1130760FF9380919C002CDFFF91EF91BF91AF919B
S11307709F918F917F916F915F914F913F912F91B5
S11307800F900BBE0F900FBE0F901F9018951F92E5
S11307900F920FB60F9211240BB60F922F933F9323
S11307A04F935F936F937F938F939F93AF93BF9375
S11307B0EF93FF9328DFFF91EF91BF91AF919F914A
S11307C08F917F916F915F914F913F912F910F90F6
S11307D00BBE0F900FBE0F901F90189560E076E946
S11307E080E090E0ECDD109260040895CF93DF93F5
S11307F08091990381110AC0E6E6F4E0808D80932C
S113080098038181828381E080939903E6E6F4E092
S113081081819281891306C020917E04909198036E
S1130820291779F0EEE5F4E08083C6E6D4E0888DFC
S1130830818310925D041EDE89818A83888D809372
S11308409803DF91CF910895CF93DF93E0916004F3
S113085091E09E0F90936004F0E0EF59FB4F80838A
S1130860809160048230B8F010926004E1E6F4E014
S1130870618170E0762F66278081682BC6E6D4E01C
S1130880072E000C880B990BECD46C837D838E832C
S11308909F8381E0898FDF91CF910895BC0190916E
S11308A09A039111FCCF4FEB50E08DE993E02FD6E2
S11308B010925C048DE993E090939C0380939B03D6
S11308C081E080939A0380936504D4CD0895E091E8
S11308D09B03F0919C03309751F08081882339F079
S11308E03196F0939C03E0939B038CB908958AE0BE
S11308F08CB910929C0310929B0310929A03BECD64
S11309000895EEE5F4E08083618310925D04109213
S11309106504B0CD08951F920F920FB60F92112463
S11309200BB60F922F933F934F935F936F937F93E5
S11309308F939F93AF93BF93EF93FF938CB184DF17
S1130940FF91EF91BF91AF919F918F917F916F91A3
S11309505F914F913F912F910F900BBE0F900FBE5F
S11309600F901F9018951F920F920FB60F9211249B
S11309700BB60F922F933F934F935F936F937F9395
S11309808F939F93AF93BF93EF93FF9380916504ED
S1130990813011F49CDF10C0E0915D0481E08E0F82
S11309A080935D04F0E0E25AFB4F80818CB9809122
S11309B05D04823008F062DDFF91EF91BF91AF9149
S11309C09F918F917F916F915F914F913F912F9163
S11309D00F900BBE0F900FBE0F901F90189584B709
S11309E0806884BF84B7806884BF0895CF93DF9301
S11309F0CDB7DEB7C054D1090FB6F894DEBF0FBE31
S1130A00CDBFEDDF05D38FEF8ABBE4E6F0E0808154
S1130A1087608083E5E6F0E080818B7F808380813E
S1130A208D7F808380818160808326EF2A95F1F712
S1130A3088E38BBB86EF8A95F1F780818E7F808374
S1130A4084E006C0E6E6FEE03197F1F70000892F66
S1130A509FEF980F8111F6CFE5E6F0E080818B7F60
S1130A60808380818D7F808380818160808326EF75
S1130A702A95F1F788E38BBB86EF8A95F1F780819D
S1130A808E7F808384E006C0E6E6FEE03197F1F7CE
S1130A900000892F9FEF980F8111F6CFE5E6F0E073
S1130AA080818B7F808380818D7F80838081816042
S1130AB0808326EF2A95F1F788E38BBB86EF8A952E
S1130AC0F1F780818E7F808384E006C0E6E6FEE055
S1130AD03197F1F70000892F9FEF980F8111F6CF1E
S1130AE0E5E6F0E080818B7F808380818D7F808349
S1130AF080818160808326EF2A95F1F78EE08BBB9D
S1130B0086EF8A95F1F780818E7F808382E006C02C
S1130B10E6E6FEE03197F1F70000892F9FEF980F8A
S1130B208111F6CFE5E6F0E080818B7F80838081C0
S1130B308D7F808380818160808326EF2A95F1F701
S1130B4086E08BBB86EF8A95F1F780818E7F808368
S1130B5082E006C0E6E6FEE03197F1F70000892F57
S1130B609FEF980F8111F6CFE5E6F0E080818B7F4F
S1130B70808380818D7F808380818160808326EF64
S1130B802A95F1F781E08BBB86EF8A95F1F7808196
S1130B908E7F808382E006C0E6E6FEE03197F1F7BF
S1130BA00000892F9FEF980F8111F6CF17DE6ADCC2
S1130BB0F0D1789475DCFFEF2FE786E1F150204007
S1130BC08040E1F700C0000055DD80918104882356
S1130BD051F09FEFEFEFF8E09150E040F040E1F783
S1130BE000C00000F1CF8111EFCF80917F048823F2
S1130BF059F3CDDA74DB06E614E0F801118E8FDACE
S1130C00F5DDF801648975898689978920E030E0EB
S1130C1040E251E4DAD3F7D26B017C01F801808D14
S1130C20882309F4CFC01092640410926304E5E6AB
S1130C30F0E080818B7F808380818D7F80838081C1
S1130C408160808326EF2A95F1F780E88BBB86EFDD
S1130C508A95F1F780818E7F808360917204709110
S1130C6073048091740490917504CDD27F936F9333
S1130C7082EA91E09F938F938E010F5F1F4F1F9322
S1130C800F9390D40F900F900F900F900F900F90A0
S1130C90D80122C0119681E006C0E6E6FEE0319755
S1130CA0F1F70000822F2FEF280F8111F6CFE5E630
S1130CB0F0E080818460808380818D7F8083808167
S1130CC08160808326EF2A95F1F79BBB86EF8A9596
S1130CD0F1F780818E7F80839C919111DBCFE5E6D3
S1130CE0F0E080818B7F808380818D7F8083808111
S1130CF08160808396EF9A95F1F780EC8BBB26EFA9
S1130D002A95F1F780818E7F80839601ADECBCEC4F
S1130D10E1D3AC0156954795569547955695479519
S1130D20CA01880F991F440F551F440F551F440FC4
S1130D30551F480F591FC601841B950BAC01CAD31C
S1130D409695879596958795969587955F934F93F6
S1130D509F938F9384EB91E09F938F937E0191E215
S1130D60E90EF11CFF92EF921DD40FB6F894DEBF8A
S1130D700FBECDBFD70122C0119681E006C0E6E6C2
S1130D80FEE03197F1F70000822F2FEF280F811139
S1130D90F6CFE5E6F0E080818460808380818D7FFA
S1130DA0808380818160808326EF2A95F1F79BBB45
S1130DB086EF8A95F1F780818E7F80839C919111D3
S1130DC0DBCFDBC080916304909164048A30910589
S1130DD030F401969093640480936304CEC010921F
S1130DE0640410926304E5E6F0E080818B7F8083E5
S1130DF080818D7F808380818160808396EF9A9546
S1130E00F1F780E88BBB26EF2A95F1F780818E7F7E
S1130E108083609172047091730480917404909142
S1130E207504F1D17F936F9382EA91E09F938F933E
S1130E308E010F5F1F4F1F930F93B4D30F900F902A
S1130E400F900F900F900F90D80122C0119681E05F
S1130E5006C0E6E6FEE03197F1F70000822F2FEF9F
S1130E60280F8111F6CFE5E6F0E08081846080836D
S1130E7080818D7F808380818160808326EF2A95A5
S1130E80F1F79BBB86EF8A95F1F780818E7F808393
S1130E909C919111DBCFE5E6F0E080818B7F80832C
S1130EA080818D7F808380818160808396EF9A9595
S1130EB0F1F780EC8BBB26EF2A95F1F780818E7FCA
S1130EC080839601ADECBCEC05D3AC0156954795F7
S1130ED05695479556954795CA01880F991F440F13
S1130EE0551F440F551F440F551F480F591FC60166
S1130EF0841B950BAC01EED29695879596958795B4
S1130F00969587955F934F939F938F9388EB91E08A
S1130F109F938F937E0191E2E90EF11CFF92EF9271
S1130F2041D30FB6F894DEBF0FBECDBFD70122C0A8
S1130F30119681E006C0E6E6FEE03197F1F7000085
S1130F40822F2FEF280F8111F6CFE5E6F0E08081A4
S1130F508460808380818D7F8083808181608083B1
S1130F6026EF2A95F1F79BBB86EF8A95F1F78081EE
S1130F708E7F80839C919111DBCF92DA25CEF894F9
S1130F8098E088E10FB6F894A89581BD0FBE91BD95
S1130F90FFCFE6E6F4E0138E148E0895E6E6F4E05F
S1130FA091E0938F848F813071F461E080E090E070
S1130FB0D4D589EC91E03EDB83ED90E30197F1F722
S1130FC000C00000DCDF823049F48CED91E032DBBC
S1130FD06FEF8FEF96DC81E08093650408959C01A8
S1130FE090918104992349F080918204823029F4FC
S1130FF0C90154DC8EEE91E01DCB0895E6E6F4E0E1
S1131000138E148E109265048FEF91E013CB089524
S1131010E6E6F4E0108284E08183828313821486FE
S1131020158616861786108A118A128A138A108EDC
S1131030148215821682178280E090E0A0E8BFEB4C
S1131040848B958BA68BB78B10861186128613869C
S1131050118E128E138E148E08955058BB27AA2712
S11310600ED075C166D130F06BD120F031F49F3FC2
S113107011F41EF45BC10EF4E095E7FB51C1E92FB6
S113108077D180F3BA17620773078407950718F0BE
S113109071F49EF58FC10EF4E0950B2EBA2FA02D9E
S11310A00B01B90190010C01CA01A0011124FF2711
S11310B0591B99F0593F50F4503E68F11A16F0400C
S11310C0A22F232F342F4427585FF3CF469537950B
S11310D02795A795F0405395C9F77EF41F16BA0BD0
S11310E0620B730B840BBAF09150A1F0FF0FBB1F7E
S11310F0661F771F881FC2F70EC0BA0F621F731FC7
S1131100841F48F4879577956795B795F7959E3F23
S113111008F0B3CF9395880F08F09927EE0F9795B1
S113112087950895D9D008F481E008950CD00FC1B3
S113113007D140F0FED030F021F45F3F19F0F0C049
S1131140511139C1F3C014D198F39923C9F355232C
S1131150B1F3951B550BBB27AA27621773078407A6
S113116038F09F5F5F4F220F331F441FAA1FA9F35C
S113117033D00E2E3AF0E0E830D091505040E6954E
S1131180001CCAF729D0FE2F27D0660F771F881FAF
S1131190BB1F261737074807AB07B0E809F0BB0B9E
S11311A0802DBF01FF2793585F4F2AF09E3F5105C2
S11311B068F0B6C000C15F3FECF3983EDCF386955F
S11311C077956795B795F7959F5FC9F7880F911D38
S11311D09695879597F90895E1E0660F771F881F24
S11311E0BB1F621773078407BA0720F0621B730BD7
S11311F0840BBA0BEE1F88F7E095089504D0689429
S1131200B111D9C00895BCD088F09F5790F0B92F80
S11312109927B751A0F0D1F0660F771F881F991F47
S11312201AF0BA95C9F712C0B13081F0C3D0B1E059
S11312300895C0C0672F782F8827B85F39F0B93F69
S1131240CCF3869577956795B395D9F73EF4909549
S11312508095709561957F4F8F4F9F4F0895E894C7
S113126009C097FB3EF490958095709561957F4FEA
S11312708F4F9F4F9923A9F0F92F96E9BB27939598
S1131280F695879577956795B795F111F8CFFAF4A8
S1131290BB0F11F460FF1BC06F5F7F4F8F4F9F4FD9
S11312A016C0882311F096E911C0772321F09EE837
S11312B0872F762F05C0662371F096E8862F70E09D
S11312C060E02AF09A95660F771F881FDAF7880F77
S11312D09695879597F90895990F0008550FAA0BCD
S11312E0E0E8FEEF16161706E807F907C0F0121635
S11312F01306E407F50798F0621B730B840B950B38
S113130039F40A2661F0232B242B252B21F408958C
S11313100A2609F4A140A6958FEF811D811D089529
S113132097F99F6780E870E060E008959FEF80EC94
S1131330089500240A941616170618060906089537
S113134000240A9412161306140605060895092E9D
S11313500394000C11F4882352F0BB0F40F4BF2B0C
S113136011F460FF04C06F5F7F4F8F4F9F4F08954C
S113137057FD9058440F551F59F05F3F71F0479542
S1131380880F97FB991F61F09F3F79F08795089527
S1131390121613061406551FF2CF4695F1DF08C046
S11313A0161617061806991FF1CF86957105610563
S11313B008940895E894BB2766277727CB0197F90B
S11313C008958ADF08F48FEF08950BD0C0CFB1DF02
S11313D028F0B6DF18F0952309F0A2CFA7CF112487
S11313E0EACFC6DFA0F3959FD1F3950F50E0551FC8
S11313F0629FF001729FBB27F00DB11D639FAA2766
S1131400F00DB11DAA1F649F6627B00DA11D661FB4
S1131410829F2227B00DA11D621F739FB00DA11DD5
S1131420621F839FA00D611D221F749F3327A00D8F
S1131430611D231F849F600D211D822F762F6A2F2B
S113144011249F5750408AF0E1F088234AF0EE0FB0
S1131450FF1FBB1F661F771F881F91505040A9F7BD
S11314609E3F510570F05CCFA6CF5F3FECF3983EF2
S1131470DCF3869577956795B795F795E7959F5F24
S1131480C1F7FE2B880F911D9695879597F90895BE
S1131490A1E21A2EAA1BBB1BFD010DC0AA1FBB1F74
S11314A0EE1FFF1FA217B307E407F50720F0A21BE6
S11314B0B30BE40BF50B661F771F881F991F1A9453
S11314C069F760957095809590959B01AC01BD017D
S11314D0CF010895A29FB001B39FC001A39F700DD7
S11314E0811D1124911DB29F700D811D1124911D28
S11314F00895FB01DC014150504030F08D91019082
S1131500801919F40020B9F7881B990B0895FB0181
S1131510DC014150504048F001900D920020C9F781
S113152001C01D9241505040E0F708950F931F935E
S1131530CF93DF93CDB7DEB72E970FB6F894DEBF07
S11315400FBECDBF0D891E898F89988D26E02C830F
S11315501A83098397FF02C080E090E801979E8375
S11315608D83AE01455E5F4F698D7A8DCE01019604
S113157047D04D815E8157FD0AC02F8138854217BF
S113158053070CF49A01F801E20FF31F10822E9610
S11315900FB6F894DEBF0FBECDBFDF91CF911F9180
S11315A00F9108950F931F93CF93DF93CDB7DEB7B9
S11315B02E970FB6F894DEBF0FBECDBF0D891E89DE
S11315C086E08C831A8309838FEF9FE79E838D8344
S11315D0AE01475E5F4F6F89788DCE01019610D0C2
S11315E0EF81F885E00FF11F10822E960FB6F89464
S11315F0DEBF0FBECDBFDF91CF911F910F91089534
S11316002F923F924F925F926F927F928F929F920E
S1131610AF92BF92CF92DF92EF92FF920F931F93FC
S1131620CF93DF93CDB7DEB72B970FB6F894DEBF19
S11316300FBECDBF6C017B018A01FC0117821682AB
S1131640838181FFBFC1CE0101963C01F6019381E4
S1131650F70193FD859193FF81917F01882309F41C
S1131660ADC1853239F493FD859193FF81917F015A
S1131670853221F4B60190E0D6D1E8CF912C212C0B
S1131680312CFFE1F315D8F08B3279F038F4803245
S113169079F08332A1F4232D20611DC08D3261F0D5
S11316A0803369F4232D216016C0832D8260382E87
S11316B0E32DE4603E2E2AC0F32DF8601DC037FCF4
S11316C02DC020ED280F2A3040F08E32B9F436FCBC
S11316D075C1232D2064322E19C036FE06C08AE05F
S11316E0989E200D1124922E11C0EAE02E9E200D0A
S11316F01124222EF32DF0623F2E08C08C3621F4E3
S1131700832D8068382E02C0883641F4F70193FD9A
S1131710859193FF81917F018111B3CF982F9F7D94
S11317209554933028F40C5F1F4F9FE399830DC0A9
S1131730833631F0833771F0833509F055C020C00A
S1131740F801808189830E5F1F4F88248394912C34
S1131750530112C02801F2E04F0E511CF801A08081
S1131760B18036FE03C0692D70E002C06FEF7FEFD9
S1131770C5014ED14C018201F32DFF773F2E15C0D8
S1131780280122E0420E511CF801A080B18036FEEF
S113179003C0692D70E002C06FEF7FEFC5012DD14A
S11317A04C01F32DF0683F2E820133FC19C0822DC9
S11317B090E088169906A0F4B60180E290E033D157
S11317C02A94F5CFF50137FC859137FE81915F01AD
S11317D0B60190E028D121102A9421E0821A9108C0
S11317E08114910479F7E1C0843611F0893639F512
S11317F0F80137FE07C060817181828193810C5F9B
S11318001F4F08C060817181072E000C880B990B53
S11318100E5F1F4FF32DFF763F2E97FF09C0909563
S11318208095709561957F4F8F4F9F4FF0683F2E45
S11318302AE030E0A30133D1882E861844C08537CE
S113184031F4232D2F7EB22E2AE030E025C0932DD3
S1131850997FB92E8F36C1F018F4883579F0AEC06F
S1131860803719F0883721F0A9C0E92FE061BE2E36
S1131870B4FE0DC0FB2DF460BF2E09C034FE0AC0B7
S1131880292F2660B22E06C028E030E005C020E1F2
S113189030E002C020E132E0F801B7FE07C0608109
S11318A07181828193810C5F1F4F06C060817181B9
S11318B080E090E00E5F1F4FA301F1D0882E8618C0
S11318C0FB2DFF773F2E36FE0DC0232D2E7FA22E3B
S11318D0891458F434FE0BC032FC09C0832D8E7E6B
S11318E0A82E05C0B82CA32C03C0B82C01C0B92C59
S11318F0A4FE0FC0FE01E80DF11D8081803321F4A8
S11319009A2D997EA92E09C0A2FE06C0B394B39461
S113191004C08A2D867809F0B394A3FC10C0A0FEFD
S113192006C0B21480F4280C922C9B180DC0B2147B
S113193058F4B60180E290E076D0B394F8CFB214B4
S113194018F42B1802C0982C212CA4FE0FC0B60149
S113195080E390E068D0A2FE16C0A1FC03C088E733
S113196090E002C088E590E0B6010CC08A2D86782C
S113197051F0A1FE02C08BE201C080E2A7FC8DE21F
S1131980B60190E050D0891430F4B60180E390E0C1
S11319904AD09A94F8CF8A94F301E80DF11D80811E
S11319A0B60190E040D08110F6CF222009F44ECE4B
S11319B0B60180E290E037D02A94F7CFF601868111
S11319C0978102C08FEF9FEF2B960FB6F894DEBF7E
S11319D00FBECDBFDF91CF911F910F91FF90EF907C
S11319E0DF90CF90BF90AF909F908F907F906F903B
S11319F05F904F903F902F900895FC0105906150A7
S1131A0070400110D8F7809590958E0F9F1F089510
S1131A10FC016150704001900110D8F780959095B9
S1131A208E0F9F1F08950F931F93CF93DF93FB0196
S1131A30238121FD03C08FEF9FEF2CC022FF16C02E
S1131A4046815781248135814217530744F4A0818C
S1131A50B1819D012F5F3F4F318320838C93268179
S1131A6037812F5F3F4F3783268314C08B01EC01EE
S1131A70FB010084F185E02D0995892BE1F6D8015D
S1131A8016968D919C911797019617969C938E9319
S1131A901697CE01DF91CF911F910F910895FA010E
S1131AA0AA27283051F1203181F1E8946F936E7F99
S1131AB06E5F7F4F8F4F9F4FAF4FB1E03ED0B4E08A
S1131AC03CD0670F781F891F9A1FA11D680F791FCB
S1131AD08A1F911DA11D6A0F711D811D911DA11DDC
S1131AE020D009F468943F912AE0269F11243019EC
S1131AF0305D3193DEF6CF010895462F4770405D87
S1131B004193B3E00FD0C9F7F6CF462F4F70405D35
S1131B104A3318F0495D31FD4052419302D0A9F790
S1131B20EACFB4E0A6959795879577956795BA958A
S1131B30C9F700976105710508959B01AC010A2E50
S1131B4006945795479537952795BA95C9F7620F27
S1131B50731F841F951FA01D0895262FE199FECFA2
S1131B609FBB8EBBE09A01970DB2021631F02DBBDC
S1131B700FB6F894E29AE19A0FBE0895F894FFCF55
S1131B8053544154453A554C5452413D2533643BDA
S1131B904D4F44453D25643B4D4F544F523D2564C4
S1131BA03B53706565643D25643B4643573D25645E
S1131BB03B5454433D2532752E2531750A00257357
S1131BC00A004F54413A4E414B3A52585F4F5645E2
S1131BD052464C4F57004F54413A424547494E3ABA
S1131BE04D41494E004F54413A424547494E3A53BC
S1131BF05542004F54413A454E44004F54413A4EE9
S1131C00414B3A4E4F545F494E5F5355425F4F54D8
S1131C1041004442473A554E4B4E4F574E20434D98
S1131C20440053706565643A20256420636D2F7306
S1131C30202020005454433A5454433A2532752EFC
S1131C402531752073202020004F54413A41434BE5
S1131C503A424547494E3A4D41494E004F54413A64
S1131C6041434B3A424547494E3A535542004F543B
S1131C70413A41434B3A444154413A535542004F4F
S10F1C8054413A41434B3A454E440000A5
S9030000FC
