S02000004D494E495F5344565F53595354454D5F4D41494E5F4D43552E737265637F
S11300004BC0000067C0000065C0000063C0000072
S113001061C000005FC000005DC000005BC0000064
S113002059C0000057C0000055C0000053C0000074
S113003051C000004FC000004DC000004BC0000084
S113004049C0000047C000000AC5000030C50000D8
S113005041C000003FC000003DC000003BC00000A4
S113006039C0000037C0000035C0000033C00000B4
S113007031C000002FC000008DC30000B4C30000D5
S113008029C0000027C0000025C000006364696E19
S11300906F70737578585B0011241FBECFEFD0E1E9
S11300A0DEBFCDBF12E0A0E0B1E0EAE3F8E200E099
S11300B00BBF02C007900D92A43DB107D9F727E00A
S11300C0A4EDB2E001C01D92AB35B207E1F734D51F
S11300D00C941B1495CF6091420770914307809153
S11300E04407909145070E94B20B80913B07909181
S11300F03C078617970720F083E080933F07089515
S11301008091390790913A078617970720F082E08B
S113011080933F07089580914007823021F481E065
S113012080933F070895833021F482E080933F0752
S1130130089584E080933F070895809156078823AB
S113014031F01092D6021092D5021092D40282306D
S113015021F483E080933F070895813021F482E005
S113016080933F07089581111EC08091D4028111AC
S113017018C020913D0730E08091D5029091D602BD
S11301808217930748F401969093D6028093D50280
S113019083E080933F0708959EDF81E08093D4023B
S11301A0089599CF0895833011F480933F070895FB
S11301B0CF92DF92EF92FF926091420770914307D2
S11301C0809144079091450720E030E040E351E4FA
S11301D00E94DC0A6B017C0120E030E0A9010E944E
S11301E0410B88231CF4C12CD12C7601C092420708
S11301F0D0924307E0924407F0924507FF90EF90B6
S1130200DF90CF9008958F929F92AF92BF92CF923A
S1130210DF92EF92FF92CF93DF93CEE3D7E0CC80CF
S1130220DD80EE80FF80288539854A855B85C7019E
S1130230B6010E94DC0A2DEC3CEC4CEC5DE30E9420
S1130240450B2DEC3CEC4CEC5EE30E94940C4B0112
S11302505C01688979898A899B892AE939E949E1B4
S11302605FE30E94940C9B01AC01C501B4010E94A0
S1130270DD0A6C877D878E879F87688B798B8A8B55
S11302809B8BC886D986EA86FB86DF91CF91FF9047
S1130290EF90DF90CF90BF90AF909F908F90089594
S11302A0CF92DF92EF92FF92AEDFC0904A07D090D8
S11302B04B07E0904C07F0904D0720E030E040E819
S11302C05FEBC701B6010E94900C882394F46091FF
S11302D04207709143078091440790914507A70115
S11302E0960150580E94450B562F472F382F292F1F
S11302F004C050E04CE33CE126E4652F742F832FC7
S1130300922FFF90EF90DF90CF900895CF92DF92DD
S1130310EF92FF92C5DF6B017C01EEE3F7E0648BA3
S1130320758B868B978B808D823079F58091D7027F
S11303309091D802A091D902B091DA020097A10558
S1130340B10561F00197A109B1098093D702909397
S1130350D802A093D902B093DA0252C02091310797
S1130360309132074091330750913407C701B601E9
S11303700E94410B88234CF420E030E0A901C7011E
S1130380B6010E94900C1816DCF1209131073091CF
S113039032074091330750913407C701B6010E94D8
S11303A0410B8823CCF420E030E0A901C701B60159
S11303B00E94900C181684F482E08093560788E01B
S11303C090E0A0E0B0E08093D7029093D802A0938D
S11303D0D902B093DA0214C0209135073091360760
S11303E04091370750913807C701B6010E94410B6D
S11303F0882324F481E08093560702C010925607A4
S1130400FF90EF90DF90CF900895DC01CB01880F2F
S1130410991FAA1FBB1F880F991FAA1FBB1F9C01EE
S1130420AD01220F331F441F551F220F331F441FDA
S1130430551F60E070E081EE90E00E940A0D2150AB
S113044031093093900029B91BB888E98AB986E04C
S1130450809395000895DC01CB01880F991FAA1F92
S1130460BB1F880F991FAA1FBB1F9C01AD01220F40
S1130470331F441F551F220F331F441F551F60E0B5
S113048070E081EE90E00E940A0D21503109309312
S113049098002093990010929B0088E980939A0019
S11304A086E080939D000895EAE9F0E0808180620F
S11304B080830895EAE9F0E080818F7D8083089548
S11304C08AB180628AB908958AB18F7D8AB9089504
S11304D060E076E980E090E0BEDF10925F03109266
S11304E0DE021092DD021092DC0208954F925F92B8
S11304F06F927F928F929F92AF92BF92CF92DF9230
S1130500EF92FF920F931F93CF93DF93809159073C
S1130510811171C08091DD0281116DC0F894CEE328
S1130520D7E06C897D898E899F8920E030E040E2A4
S113053051E40E94940C0E94B20B6B017C01488D23
S11305404C845D846E847F84098118818C809D80B5
S1130550AE80BF809B01ADECBCEC0E942C0D969547
S1130560879596958795969587959C01220F331FBD
S1130570880F991F880F991F880F991F820F931F47
S11305809601281B390BC9019F932F9396010E9452
S11305902C0D9695879596958795969587959F9317
S11305A08F931F924F93C301B2010E94AD0B7F93AF
S11305B06F931F920F931F921F93C501B4010E9462
S11305C0B20B7F936F9380E091E09F938F938FEDB5
S11305D092E09F938F930E94B10D8093DD0210925D
S11305E0DE0262DF78948DB79EB742960FB6F89418
S11305F09EBF0FBE8DBFDF91CF911F910F91FF90D2
S1130600EF90DF90CF90BF90AF909F908F907F90AE
S11306106F905F904F9008958D3001F18A3051F4BE
S1130620E0915F03F0E0E05AFC4F108281E0809398
S1130630DC0208959091DB02911110C0E0915F03F8
S1130640EF3F49F091E09E0F90935F03F0E0E05A92
S1130650FC4F8083089581E08093DB020895E0914C
S1130660DE028091DD02E81758F481E08E0F80935A
S1130670DE02F0E0E152FD4F808180939C000895FA
S113068019DF1092DE021092DD0208952091DD023E
S11306902111FCCF9F938F938EE391E09F938F93CF
S11306A01F9280E88F938FED92E09F938F930E9427
S11306B0750D8093DD021092DE02F6DE8DB79EB7D3
S11306C008960FB6F8949EBF0FBE8DBF0895809113
S11306D0DC02882309F45DC08091DB02882351F099
S11306E01092DB0210925F031092DC0282E491E02C
S11306F0CDCF0895E0E6F3E001900020E9F73197CB
S1130700E056F34049F03197DF01A05ABC4F8C9179
S11307108D3011F4FD0110824EE050E066E571E089
S113072080E693E00E94580D892B19F481E0E5D40A
S11307302CC04DE050E065E671E080E693E00E9455
S1130740580D892B19F482E0D8D41FC047E050E03B
S113075063E771E080E693E00E94580D892B11F461
S11307604ED513C0809160038A3361F48091590798
S1130770882321F080E693E0DAD407C08BE791E088
S113078085DF03C082E991E081DF10925F0310925C
S1130790DC0208951F920F920FB60F9211240BB62C
S11307A00F922F933F934F935F936F937F938F9306
S11307B09F93AF93BF93EF93FF9380919C002CDFA3
S11307C0FF91EF91BF91AF919F918F917F916F9125
S11307D05F914F913F912F910F900BBE0F900FBEE1
S11307E00F901F9018951F920F920FB60F9211241D
S11307F00BB60F922F933F934F935F936F937F9317
S11308008F939F93AF93BF93EF93FF9328DFFF9151
S1130810EF91BF91AF919F918F917F916F915F9174
S11308204F913F912F910F900BBE0F900FBE0F90E1
S11308301F90189560E076E980E090E0E6DD109284
S113084028050895CF93DF938091610481110AC034
S1130850EEE3F7E0808D809360048181828381E000
S113086080936104EEE3F7E081819281891306C0ED
S11308702091560790916004291779F0E6E2F5E09B
S11308808083CEE3D7E0888D81831092250518DE1E
S113089089818A83888D80936004DF91CF91089544
S11308A0CF93DF9390915A07923009F03EC08D3078
S11308B009F45EC08A3021F5E0912C06F0E08DE267
S11308C096E0E35DF94F10829F938F9382EA91E063
S11308D09F938F93C1E0CF931F928BE295E09F93F8
S11308E08F930E94750DC0932B0610922C068DB722
S11308F09EB708960FB6F8949EBF0FBE8DBF38C042
S113090090912C069F3F59F0E0912C0691E09E0FA8
S113091090932C06F0E0E35DF94F808329C0109298
S11309202C0685EA91E0B2DE23C0E091280591E02F
S11309309E0F90932805F0E0E75DFA4F8083809145
S113094028058230A8F010922805E9E2F5E06181DB
S113095070E0762F66278081682BCEE3D7E080E0B5
S113096090E02CD76C837D838E839F8381E0898F75
S1130970DF91CF910895BC01909162049111FCCF55
S11309804FEB50E085E694E00E94660D109224053A
S113099085E694E0909364048093630481E08093FB
S11309A06204809330078CCD0895E0916304F09144
S11309B06404309751F08081882339F03196F093A4
S11309C06404E09363048CB908958AE08CB91092AE
S11309D06404109263041092620476CD0895E6E2F2
S11309E0F5E080836183109225051092300768CD6D
S11309F0089580912B060895DF92EF92FF920F9352
S1130A001F93CF93DF93009711F161157105F9F0EE
S1130A107B018C01DFB6F89481E016C080912B062F
S1130A20811104C0F8011082DFBE11C0E7012197D3
S1130A30AE016BE275E0C8010E94660DC00FD11FC4
S1130A40188210922B0680E08111E8CFDFBEDF917F
S1130A50CF911F910F91FF90EF90DF9008951F9217
S1130A600F920FB60F9211240BB60F922F933F9350
S1130A704F935F936F937F938F939F93AF93BF93A2
S1130A80EF93FF938CB10CDFFF91EF91BF91AF9186
S1130A909F918F917F916F915F914F913F912F9192
S1130AA00F900BBE0F900FBE0F901F9018951F92C2
S1130AB00F920FB60F9211240BB60F922F933F9300
S1130AC04F935F936F937F938F939F93AF93BF9352
S1130AD0EF93FF9380913007813011F466DF12C0E9
S1130AE0E091250581E08E0F80932505F0E0EA5D15
S1130AF0FA4F80818CB980912505823018F01092CC
S1130B002505E2DCFF91EF91BF91AF919F918F9109
S1130B107F916F915F914F913F912F910F900BBEF9
S1130B200F900FBE0F901F90189584B7806884BFF4
S1130B3084B7806884BF0895CF93DF93CDB7DEB7C1
S1130B40C054D1400FB6F894DEBF0FBECDBFEDDF69
S1130B500ED584D38FEF8ABBE4E6F0E08081876012
S1130B608083E5E6F0E080818B7F808380818D7FC8
S1130B70808380818160808326EF2A95F1F788E362
S1130B808BBB86EF8A95F1F780818E7F808384E02A
S1130B9006C0E6E6FEE03197F1F70000892F9FEFEB
S1130BA0980F8111F6CFE5E6F0E080818B7F80839A
S1130BB080818D7F808380818160808326EF2A9568
S1130BC0F1F788E38BBB86EF8A95F1F780818E7FFE
S1130BD0808384E006C0E6E6FEE03197F1F700008A
S1130BE0892F9FEF980F8111F6CFE5E6F0E0808121
S1130BF08B7F808380818D7F8083808181608083EF
S1130C0026EF2A95F1F788E38BBB86EF8A95F1F7F7
S1130C1080818E7F808384E006C0E6E6FEE0319723
S1130C20F1F70000892F9FEF980F8111F6CFE5E6C9
S1130C30F0E080818B7F808380818D7F80838081C1
S1130C408160808326EF2A95F1F78EE08BBB86EFD7
S1130C508A95F1F780818E7F808382E006C0E6E684
S1130C60FEE03197F1F70000892F9FEF980F811173
S1130C70F6CFE5E6F0E080818B7F808380818D7FF5
S1130C80808380818160808326EF2A95F1F786E056
S1130C908BBB86EF8A95F1F780818E7F808382E01B
S1130CA006C0E6E6FEE03197F1F70000892F9FEFDA
S1130CB0980F8111F6CFE5E6F0E080818B7F808389
S1130CC080818D7F808380818160808326EF2A9557
S1130CD0F1F781E08BBB86EF8A95F1F780818E7FF7
S1130CE0808382E006C0E6E6FEE03197F1F700007B
S1130CF0892F9FEF980F8111F6CF9CDDE9DBF8D1A6
S1130D007894F4DBFFEF2FE786E1F1502040804038
S1130D10E1F700C00000DBDC809159078823E1F093
S1130D2068DE882379F060E071E0CE018F5B9F4F2D
S1130D3063DE22968FAD2297882321F0CE018F5B4C
S1130D409F4FA4DC9FEFEFEFF8E09150E040F040BC
S1130D50E1F700C00000DFCF8111DDCF809157079C
S1130D608823C9F225DAD2DA0EE317E0F801118EEE
S1130D70E4D968DDF801648975898689978920E05A
S1130D8030E040E251E4D0D5EDD46B017C01F801B0
S1130D90808D882309F4CFC010922E0710922D075E
S1130DA0E5E6F0E080818B7F808380818D7F808386
S1130DB080818160808326EF2A95F1F780E88BBBE0
S1130DC086EF8A95F1F780818E7F808360914A0750
S1130DD070914B0780914C0790914D07C3D47F933A
S1130DE06F938DEB91E09F938F938E010F5F1F4F55
S1130DF01F930F93B6D60F900F900F900F900F90F4
S1130E000F90D80122C0119681E006C0E6E6FEE00C
S1130E103197F1F70000822F2FEF280F8111F6CFC1
S1130E20E5E6F0E080818460808380818D7F80832B
S1130E3080818160808326EF2A95F1F79BBB86EF42
S1130E408A95F1F780818E7F80839C919111DBCF0D
S1130E50E5E6F0E080818B7F808380818D7F8083D5
S1130E6080818160808396EF9A95F1F780EC8BBB4B
S1130E7026EF2A95F1F780818E7F80839601ADEC71
S1130E80BCECEAD5AC0156954795569547955695D1
S1130E904795CA01880F991F440F551F440F551FCA
S1130EA0440F551F480F591FC601841B950BAC01F5
S1130EB0D3D59695879596958795969587955F93BF
S1130EC04F939F938F938FEC91E09F938F937E0129
S1130ED091E2E90EF11CFF92EF9243D60FB6F8941B
S1130EE0DEBF0FBECDBFD70122C0119681E006C080
S1130EF0E6E6FEE03197F1F70000822F2FEF280F8E
S1130F008111F6CFE5E6F0E0808184608083808102
S1130F108D7F808380818160808326EF2A95F1F71D
S1130F209BBB86EF8A95F1F780818E7F80839C91AD
S1130F309111DBCFDBC080912D0790912E078A3071
S1130F40910530F4019690932E0780932D07CEC01F
S1130F5010922E0710922D07E5E6F0E080818B7F3A
S1130F60808380818D7F808380818160808396EF00
S1130F709A95F1F780E88BBB26EF2A95F1F78081EB
S1130F808E7F808360914A0770914B0780914C0754
S1130F9090914D07E7D37F936F938DEB91E09F93EF
S1130FA08F938E010F5F1F4F1F930F93DAD50F900E
S1130FB00F900F900F900F900F90D80122C01196B0
S1130FC081E006C0E6E6FEE03197F1F70000822FEB
S1130FD02FEF280F8111F6CFE5E6F0E080818460E1
S1130FE0808380818D7F808380818160808326EFF0
S1130FF02A95F1F79BBB86EF8A95F1F780818E7F66
S113100080839C919111DBCFE5E6F0E080818B7FBA
S1131010808380818D7F808380818160808396EF4F
S11310209A95F1F780EC8BBB26EF2A95F1F7808136
S11310308E7F80839601ADECBCEC0ED5AC01569549
S113104047955695479556954795CA01880F991F18
S1131050440F551F440F551F440F551F480F591F68
S1131060C601841B950BAC01F7D49695879596958C
S11310708795969587955F934F939F938F938FEC66
S113108091E09F938F937E0191E2E90EF11CFF9210
S1131090EF9267D50FB6F894DEBF0FBECDBFD70170
S11310A022C0119681E006C0E6E6FEE03197F1F732
S11310B00000822F2FEF280F8111F6CFE5E6F0E034
S11310C080818460808380818D7F80838081816042
S11310D0808326EF2A95F1F79BBB86EF8A95F1F77B
S11310E080818E7F80839C919111DBCFFFD913CEB9
S11310F0EEE3F7E0138E148E0895EEE3F7E091E04B
S1131100938F848F813051F465EA80E090E00E94EF
S11311100A1480EE91E0BADA04C10895823031F401
S113112083EF91E0B3DA6FEF8FEF59CC0895CF934B
S1131130DF93CDB7DEB7A2970FB6F894DEBF0FBE2C
S1131140CDBF20915907222309F450C020915A079A
S1131150223029F410DC85E092E098DA47C021308F
S113116009F044C09E012F5D3F4F3F932F932052BF
S113117031093F932F9326E132E03F932F939F93BE
S11311808F931DD50FB6F894DEBF0FBECDBF029767
S113119021F088E292E07ADA29C06DE372E0CE01B0
S11311A001967DD4892B39F068E472E0CE01019672
S11311B076D4892B79F469A17AA1072E000C880BC7
S11311C0990BFED220E030E040E251E45ED2AB0164
S11311D0BC0109C069A17AA1072E000C880B990BE8
S11311E0EFD2AB01BC01CE01019613D1A2960FB68A
S11311F0F894DEBF0FBECDBFDF91CF910895EEE32B
S1131200F7E0138E848D823019F46AEF8AEFE7DBFE
S113121010925A07109230077FD084E592E036CAC4
S11312200895E1E3F7E080E090E0A0ECBFE3808381
S11312309183A283B38380E090E0A0EAB0E4848346
S11312409583A683B7838EE190E0918780878FE0B2
S113125090E09387828710922F070895CF9381E0BF
S113126090E00E94F313C82F82E090E00E94F313F1
S1131270CA3511F4813011F0D4DF0AC04DE050E0DA
S113128063E070E081E397E00E94E31310922F077C
S1131290CF9108951F93CF93DF93CDB7DEB72D97EA
S11312A00FB6F894DEBF0FBECDBF9FB7F89481E0B0
S11312B00AC08DE0E1E3F7E0DE01119601900D92A2
S11312C08A95E1F780E08111F4CF9FBF1FB7F894AE
S11312D081E015C06AE581E090E00E940A1461E0B3
S11312E082E090E00E940A144DE050E063E070E078
S11312F0CE0101960E94FB1310922F0780E081110A
S1131300E9CF1FBF2D960FB6F894DEBF0FBECDBF39
S1131310DF91CF911F91089580912F078111BACF4A
S113132008958F929F92AF92BF92EF92FF920F9384
S11313301F93CF93DF93CDB7DEB7C058D1090FB653
S1131340F894DEBF0FBECDBF01E317E0D8016D9165
S11313507D918D919C9120E030E040E251E4E4D213
S1131360FCD17B01F801648175818681978120E03D
S113137030E040E251E4D8D2F0D14B015C012AE0E4
S113138030E0C701B90133D3462FE72FF82FF92EE8
S1131390C401B9012CD3D8011A965C911A971B96F3
S11313A0EC901B9718962C91189719963C91EF92F4
S11313B05F933F932F939F938F937F936F93FF92AA
S11313C0FF93EF934F9380E692E09F938F931F9246
S11313D080E88F938E010F5F1F4F1F930F9385D368
S11313E0C80154D90FB6F894DEBF0FBECDBFC058A4
S11313F0DF4F0FB6F894DEBF0FBECDBFDF91CF91A4
S11314001F910F91FF90EF90BF90AF909F908F909E
S11314100895CF92DF92EF92FF92CF93DF93EC0186
S11314206A017B016DE372E03AD3892B11F52DEC4F
S11314303CEC4CEC5DE3C701B60172D218168CF497
S113144020E030E040E251E4C701B6011AD188231C
S113145044F4C0923107D0923207E0923307F092FD
S1131460340781E080932F0780EA92E00FD959DF97
S113147077C068E472E0CE0112D3892B11F52DEC0C
S11314803CEC4CEC5DE3C701B6014AD218168CF46F
S113149020E030E040E751E4C701B601F2D08823F0
S11314A044F4C0923507D0923607E0923707F092A1
S11314B0380781E080932F0780EA92E0E7D831DF94
S11314C04FC06EEA72E0CE01EAD2892B01F520E02A
S11314D030E0A901C701B60123D2882384F020E0BB
S11314E030E04AEF53E4C701B601CBD018163CF004
S11314F0C701B60137D170933A076093390781E089
S113150080932F0780EA92E0C1D80BDF29C068EBF3
S113151072E0CE01C4D2892B01F520E030E0A901AC
S1131520C701B601FDD1882384F020E030E04AEF02
S113153053E4C701B601A5D018163CF0C701B601A3
S113154011D170933C0760933B0781E080932F0790
S113155080EA92E09BD8E5DE03C084EC92E096D862
S1131560DF91CF91FF90EF90DF90CF900895EEE35D
S1131570F7E0108284E081838283138214861586C7
S113158016861786108A118A128A138A108E14827C
S113159015821682178280E090E0A0E8BFEB848B6E
S11315A0958BA68BB78B1086118612861386118EA7
S11315B0128E138E148E08955058BB27AA270ED06E
S11315C075C166D130F06BD120F031F49F3F11F436
S11315D01EF45BC10EF4E095E7FB51C1E92F77D10E
S11315E080F3BA17620773078407950718F071F43C
S11315F09EF58FC10EF4E0950B2EBA2FA02D0B0192
S1131600B90190010C01CA01A0011124FF27591B43
S113161099F0593F50F4503E68F11A16F040A22F49
S1131620232F342F4427585FF3CF469537952795BA
S1131630A795F0405395C9F77EF41F16BA0B620BB9
S1131640730B840BBAF09150A1F0FF0FBB1F661F00
S1131650771F881FC2F70EC0BA0F621F731F841F43
S113166048F4879577956795B795F7959E3F08F069
S1131670B3CF9395880F08F09927EE0F9795879528
S11316800895D9D008F481E008950CD00FC107D192
S113169040F0FED030F021F45F3F19F0F0C051115A
S11316A039C1F3C014D198F39923C9F35523B1F385
S11316B0951B550BBB27AA2762177307840738F0BD
S11316C09F5F5F4F220F331F441FAA1FA9F333D01C
S11316D00E2E3AF0E0E830D091505040E695001CD0
S11316E0CAF729D0FE2F27D0660F771F881FBB1F8C
S11316F0261737074807AB07B0E809F0BB0B802D66
S1131700BF01FF2793585F4F2AF09E3F510568F0B1
S1131710B6C000C15F3FECF3983EDCF38695779545
S11317206795B795F7959F5FC9F7880F911D9695B3
S1131730879597F90895E1E0660F771F881FBB1F0F
S1131740621773078407BA0720F0621B730B840BBC
S1131750BA0BEE1F88F7E095089504D06894B11190
S1131760D9C00895BCD088F09F5790F0B92F99271D
S1131770B751A0F0D1F0660F771F881F991F1AF098
S1131780BA95C9F712C0B13081F0C3D0B1E0089561
S1131790C0C0672F782F8827B85F39F0B93FCCF3E2
S11317A0869577956795B395D9F73EF4909580958E
S11317B0709561957F4F8F4F9F4F0895E89409C0AE
S11317C097FB3EF490958095709561957F4F8F4F70
S11317D09F4F9923A9F0F92F96E9BB279395F69586
S11317E0879577956795B795F111F8CFFAF4BB0F04
S11317F011F460FF1BC06F5F7F4F8F4F9F4F16C068
S1131800882311F096E911C0772321F09EE8872FF1
S1131810762F05C0662371F096E8862F70E060E0AD
S11318202AF09A95660F771F881FDAF7880F969526
S1131830879597F90895990F0008550FAA0BE0E8CA
S1131840FEEF16161706E807F907C0F0121613067E
S1131850E407F50798F0621B730B840B950B39F4BE
S11318600A2661F0232B242B252B21F408950A2624
S113187009F4A140A6958FEF811D811D089597F964
S11318809F6780E870E060E008959FEF80EC089522
S113189000240A941616170618060906089500244B
S11318A00A9412161306140605060895092E0394C5
S11318B0000C11F4882352F0BB0F40F4BF2B11F439
S11318C060FF04C06F5F7F4F8F4F9F4F089557FD98
S11318D09058440F551F59F05F3F71F04795880F9A
S11318E097FB991F61F09F3F79F087950895121631
S11318F013061406551FF2CF4695F1DF08C01616DD
S113190017061806991FF1CF86957105610508948D
S11319100895E894BB2766277727CB0197F90895A4
S11319208ADF08F48FEF08950BD0C0CFB1DF28F021
S1131930B6DF18F0952309F0A2CFA7CF1124EACF80
S1131940C6DFA0F3959FD1F3950F50E0551F629F1A
S1131950F001729FBB27F00DB11D639FAA27F00D04
S1131960B11DAA1F649F6627B00DA11D661F829F2B
S11319702227B00DA11D621F739FB00DA11D621F10
S1131980839FA00D611D221F749F3327A00D611D2D
S1131990231F849F600D211D822F762F6A2F11240F
S11319A09F5750408AF0E1F088234AF0EE0FFF1F62
S11319B0BB1F661F771F881F91505040A9F79E3F99
S11319C0510570F05CCFA6CF5F3FECF3983EDCF39B
S11319D0869577956795B795F795E7959F5FC1F7D6
S11319E0FE2B880F911D9695879597F9089597FB7F
S11319F0072E16F4009406D077FD08D03CD007FCDF
S1131A0005D03EF4909581959F4F0895709561950A
S1131A107F4F0895A1E21A2EAA1BBB1BFD010DC026
S1131A20AA1FBB1FEE1FFF1FA217B307E407F5078A
S1131A3020F0A21BB30BE40BF50B661F771F881F66
S1131A40991F1A9469F760957095809590959B01FC
S1131A50AC01BD01CF010895A29FB001B39FC001A5
S1131A60A39F700D811D1124911DB29F700D811DC6
S1131A701124911D0895AA1BBB1B51E107C0AA1F85
S1131A80BB1FA617B70710F0A61BB70B881F991F1B
S1131A905A95A9F780959095BC01CD010895FB0155
S1131AA0DC018D91019080190110D9F3990B0895EF
S1131AB0FB01DC014150504030F08D9101908019C0
S1131AC019F40020B9F7881B990B0895FB01DC0178
S1131AD04150504048F001900D920020C9F701C0D8
S1131AE01D9241505040E0F708950F931F93CF93F8
S1131AF0DF93CDB7DEB72E970FB6F894DEBF0FBED7
S1131B00CDBF0D891E898F89988D26E02C831A8379
S1131B10098397FF02C080E090E801979E838D833C
S1131B20AE01455E5F4F698D7A8DCE01019668D016
S1131B304D815E8157FD0AC02F81388542175307B6
S1131B400CF49A01F801E20FF31F10822E960FB6DF
S1131B50F894DEBF0FBECDBFDF91CF911F910F91DF
S1131B6008950F931F93CF93DF93CDB7DEB72E97CE
S1131B700FB6F894DEBF0FBECDBF0D891E8986E077
S1131B808C831A8309838FEF9FE79E838D83AE0135
S1131B90475E5F4F6F89788DCE01019631D0EF811A
S1131BA0F885E00FF11F10822E960FB6F894DEBF71
S1131BB00FBECDBFDF91CF911F910F910895CF93A9
S1131BC0DF93CDB7DEB72E970FB6F894DEBF0FBE06
S1131BD0CDBF85E08C838B899C899A838983AE01F0
S1131BE0495E5F4F6D897E89CE010196B8D32E96EA
S1131BF00FB6F894DEBF0FBECDBFDF91CF9108952D
S1131C002F923F924F925F926F927F928F929F9208
S1131C10AF92BF92CF92DF92EF92FF920F931F93F6
S1131C20CF93DF93CDB7DEB72B970FB6F894DEBF13
S1131C300FBECDBF6C017B018A01FC0117821682A5
S1131C40838181FFBFC1CE0101963C01F6019381DE
S1131C50F70193FD859193FF81917F01882309F416
S1131C60ADC1853239F493FD859193FF81917F0154
S1131C70853221F4B60190E0F0D4E8CF912C212CE8
S1131C80312CFFE1F315D8F08B3279F038F480323F
S1131C9079F08332A1F4232D20611DC08D3261F0CF
S1131CA0803369F4232D216016C0832D8260382E81
S1131CB0E32DE4603E2E2AC0F32DF8601DC037FCEE
S1131CC02DC020ED280F2A3040F08E32B9F436FCB6
S1131CD075C1232D2064322E19C036FE06C08AE059
S1131CE0989E200D1124922E11C0EAE02E9E200D04
S1131CF01124222EF32DF0623F2E08C08C3621F4DD
S1131D00832D8068382E02C0883641F4F70193FD94
S1131D10859193FF81917F018111B3CF982F9F7D8E
S1131D209554933028F40C5F1F4F9FE399830DC0A3
S1131D30833631F0833771F0833509F055C020C004
S1131D40F801808189830E5F1F4F88248394912C2E
S1131D50530112C02801F2E04F0E511CF801A0807B
S1131D60B18036FE03C0692D70E002C06FEF7FEFD3
S1131D70C5012AD44C018201F32DFF773F2E15C0F3
S1131D80280122E0420E511CF801A080B18036FEE9
S1131D9003C0692D70E002C06FEF7FEFC50109D465
S1131DA04C01F32DF0683F2E820133FC19C0822DC3
S1131DB090E088169906A0F4B60180E290E04DD434
S1131DC02A94F5CFF50137FC859137FE81915F01A7
S1131DD0B60190E042D421102A9421E0821A91089D
S1131DE08114910479F7E1C0843611F0893639F50C
S1131DF0F80137FE07C060817181828193810C5F95
S1131E001F4F08C060817181072E000C880B990B4D
S1131E100E5F1F4FF32DFF763F2E97FF09C090955D
S1131E208095709561957F4F8F4F9F4FF0683F2E3F
S1131E302AE030E0A30166D4882E861844C0853792
S1131E4031F4232D2F7EB22E2AE030E025C0932DCD
S1131E50997FB92E8F36C1F018F4883579F0AEC069
S1131E60803719F0883721F0A9C0E92FE061BE2E30
S1131E70B4FE0DC0FB2DF460BF2E09C034FE0AC0B1
S1131E80292F2660B22E06C028E030E005C020E1EC
S1131E9030E002C020E132E0F801B7FE07C0608103
S1131EA07181828193810C5F1F4F06C060817181B3
S1131EB080E090E00E5F1F4FA30124D4882E861883
S1131EC0FB2DFF773F2E36FE0DC0232D2E7FA22E35
S1131ED0891458F434FE0BC032FC09C0832D8E7E65
S1131EE0A82E05C0B82CA32C03C0B82C01C0B92C53
S1131EF0A4FE0FC0FE01E80DF11D8081803321F4A2
S1131F009A2D997EA92E09C0A2FE06C0B394B3945B
S1131F1004C08A2D867809F0B394A3FC10C0A0FEF7
S1131F2006C0B21480F4280C922C9B180DC0B21475
S1131F3058F4B60180E290E090D3B394F8CFB21491
S1131F4018F42B1802C0982C212CA4FE0FC0B60143
S1131F5080E390E082D3A2FE16C0A1FC03C088E710
S1131F6090E002C088E590E0B6010CC08A2D867826
S1131F7051F0A1FE02C08BE201C080E2A7FC8DE219
S1131F80B60190E06AD3891430F4B60180E390E09E
S1131F9064D39A94F8CF8A94F301E80DF11D8081FB
S1131FA0B60190E05AD38110F6CF222009F44ECE28
S1131FB0B60180E290E051D32A94F7CFF6018681EE
S1131FC0978102C08FEF9FEF2B960FB6F894DEBF78
S1131FD00FBECDBFDF91CF911F910F91FF90EF9076
S1131FE0DF90CF90BF90AF909F908F907F906F9035
S1131FF05F904F903F902F90089520FD09C0FC0101
S113200023FD05C022FF02C0738362835183408392
S1132010089544FD17C046FD17C0AB01BC01DA01A9
S1132020FB01AA0FBB1FEE1FFF1F1094D1F74A0F2D
S11320305B1F6E1F7F1FCB01BA01660F771F881FBE
S1132040991F09C033E001C034E0660F771F881F71
S1132050991F3150D1F7620F711D811D911D089593
S11320600F931F93CF93DF938C01C801B8D2EC0177
S113207097FD06C08BD2892BC1F7B801CE0129D3B5
S1132080CE01DF91CF911F910F9108958F929F926E
S1132090AF92BF92EF92FF920F931F93CF93DF9370
S11320A08C01D62F7A01B22E9AD29C0133272B327F
S11320B0310531F02D32310559F48B2D8068B82E5D
S11320C0D15011F480E061C0C80189D297FDFACFE4
S11320D0CB2DCD7F2B2D2073F9F48033E9F4AA2482
S11320E0AA94AD0E09F43EC0C80179D297FD3AC056
S11320F09C012F7D33272835310541F4C264D25029
S113210089F1C8016CD297FF07C02CC0B6FE02C08B
S1132110C26001C0C261DA2D812C912C540120EDE2
S1132120280F283078F0C4FF03C0B801D2D217C0FA
S11321302A3040F0C6FFF9CF2F7D3FEE320F363004
S1132140A0F727504C2FC501B40163DF4B015C019C
S1132150C260D15051F0C80142D297FFE0CFC1FD17
S113216004C0B0CF812C912C5401C7FF08C0B09497
S1132170A09490948094811C911CA11CB11C2C2FC0
S1132180B501A401C70139DF81E0DF91CF911F912F
S11321900F91FF90EF90BF90AF909F908F90089514
S11321A05F926F927F928F929F92AF92BF92CF92E3
S11321B0DF92EF92FF920F931F93CF93DF93CDB7EC
S11321C0DEB7A0970FB6F894DEBF0FBECDBF5C019B
S11321D0962E7A01F9018E010F5F1F4F680180E28C
S11321E0D8011D928A95E9F7D50113968C9080E069
S11321F090E0612C712C30E061E070E083FC25916B
S113220083FE21918F01522E211103C080E090E0C2
S113221090C02E3511F4009751F1432F50E0481728
S113222059073CF42D3559F12D3219F4772009F171
S113223003C0772009F468C0452D46954695469518
S1132240D601A40FB11D452D47708B0102C0000FAC
S1132250111F4A95E2F7A8015C91452B4C93651434
S113226059F0561410F45394E7CF5A94E5CF31E063
S113227004C07724739401C0712C0196BFCF7720DA
S113228019F08E8180628E83311103C08824839477
S113229017C0F6019E012F5D3F4F80818095819389
S11322A02E173F07D1F7F2CFE114F10429F0D7013B
S11322B08C93F70131967F019A94812C9920E9F04F
S11322C0C5018DD197FD17C0FC01FF2723E0F595CB
S11322D0E7952A95E1F7EC0DFD1D208130E0AC0176
S11322E04770552702C0359527954A95E2F720FD9A
S11322F0DBCFB501EED1811089CFE114F10411F0E7
S1132300D7011C92C80115C0422F469546954695A3
S1132310D601A40FB11D422F47708B0102C0000FDC
S1132320111F4A95E2F7A8015C91452B4C93622E4C
S1132330A4CFA0960FB6F894DEBF0FBECDBFDF9139
S1132340CF911F910F91FF90EF90DF90CF90BF90AE
S1132350AF909F908F907F906F905F9008955F9261
S11323606F927F928F929F92AF92BF92CF92DF92A1
S1132370EF92FF920F931F93CF93DF936C01EB01C6
S11323805A01FC0117821682512CF601E380FE01EA
S1132390E3FC8591E3FE8191182FEF01882309F472
S11323A0E0C090E0F3D0892B19F0C60159DEEDCFDF
S11323B0153241F4FE01E3FC1591E3FE1191EF01A6
S11323C0153271F4C6010BD197FDC9C0412F50E0FD
S11323D09C01332724173507C1F2B6017AD1C1C055
S11323E01A3239F4E3FC1591E3FE1191EF0101E097
S11323F001C000E0F12C20ED210F2A3078F40260B6
S11324006F2D70E080E090E040E203DEF62EFE01E6
S1132410E3FC1591E3FE1191EF01EDCF01FF03C041
S1132420F11003C09EC0FF24FA94183619F01C362C
S113243051F010C0FE01E3FC1591E3FE1191EF0190
S1132440183641F408600460FE01E3FC1591E3FED4
S11324501191EF01112309F484C0612F70E08CE81D
S113246090E09CD0892B09F47CC000FD07C0F501E5
S113247080809180C50102965C0102C0812C912C60
S11324801E3649F4F6014681578160E070E0202F42
S1132490C401B3DD7ACF1336A1F401FD02C0FF24D9
S11324A0F394C6019CD097FD5AC08114910429F07D
S11324B0F4018083C40101964C01FA94F110F1CF28
S11324C04AC01B3551F49E01A4016F2DC60168DE7C
S11324D0EC01892B09F03FC039C0C601C1DD97FD6D
S11324E03EC01F3649F128F4143621F1193639F16A
S11324F025C0133771F01537E9F020C08114910419
S113250029F0F4016082C40101964C01FA94FF2081
S113251059F0C60164D03C0197FD06C037D0892B21
S113252069F3B601C301D5D081149104A1F0F4017B
S1132530108211C0006203C0006101C00064202F3A
S1132540A4016F2DC601A2DD811105C0F6018381AE
S1132550807329F406C000FD18CF539416CF55207C
S113256019F0852D90E002C08FEF9FEFDF91CF919E
S11325701F910F91FF90EF90DF90CF90BF90AF909D
S11325809F908F907F906F905F900895911118C1E4
S1132590803219F089508550D0F70895FC010590D8
S11325A0061621F00020D9F7C00108953197CF0114
S11325B00895FC010590615070400110D8F7809592
S11325C090958E0F9F1F0895FC01615070400190FB
S11325D00110D8F7809590958E0F9F1F0895CF9383
S11325E0DF93EC012B8120FF33C026FF0AC02F7B31
S11325F02B838E819F8101969F838E838A8190E0B5
S113260029C022FF0FC0E881F9818081082E000CC7
S1132610990B009719F420622B831AC03196F98321
S1132620E8830EC0EA85FB85099597FF09C02B81D5
S1132630019611F080E201C080E1822B8B8308C0F7
S11326402E813F812F5F3F4F3F832E83992702C006
S11326508FEF9FEFDF91CF9108950F931F93CF9347
S1132660DF93FB01238121FD03C08FEF9FEF2CC07B
S113267022FF16C0468157812481358142175307B2
S113268044F4A081B1819D012F5F3F4F31832083AA
S11326908C93268137812F5F3F4F3783268314C065
S11326A08B01EC01FB010084F185E02D0995892B58
S11326B0E1F6D80116968D919C911797019617967D
S11326C09C938E931697CE01DF91CF911F910F911A
S11326D00895FB01238120FF12C026FD10C08F3F07
S11326E03FEF930761F082832F7D2064238326814B
S11326F037812150310937832683992708958FEF35
S11327009FEF0895FA01AA27283051F1203181F171
S1132710E8946F936E7F6E5F7F4F8F4F9F4FAF4FE5
S1132720B1E03ED0B4E03CD0670F781F891F9A1FF8
S1132730A11D680F791F8A1F911DA11D6A0F711DAC
S1132740811D911DA11D20D009F468943F912AE0B8
S1132750269F11243019305D3193DEF6CF010895A0
S1132760462F4770405D4193B3E00FD0C9F7F6CFD1
S1132770462F4F70405D4A3318F0495D31FD405299
S1132780419302D0A9F7EACFB4E0A695979587952F
S113279077956795BA95C9F700976105710508950E
S11327A09B01AC010A2E06945795479537952795BA
S11327B0BA95C9F7620F731F841F951FA01D089552
S11327C0992788270895DC01CB01FC01E199FECF0C
S11327D006C0FFBBEEBBE09A31960DB20D9241509C
S11327E05040B8F70895E199FECF9FBB8EBBE09AA5
S11327F099278DB30895DC01A40FB51F41505040B3
S113280040F0CB01840F951F2E9105D041505040CC
S1132810D8F70895262FE199FECF9FBB8EBBE09A8F
S113282001970DB2021631F02DBB0FB6F894E29A5F
S10D2830E19A0FBE0895F894FFCF5B
S113283A53544154453A554C5452413D2533643B13
S113284A4D4F44453D25643B4D4F544F523D2564FD
S113285A3B53706565643D25643B4643573D256497
S113286A3B5454433D2532752E2531750A00257390
S113287A0A004F54413A4E414B3A52585F4F56451B
S113288A52464C4F57004F54413A424547494E3AF3
S113289A4D41494E004F54413A424547494E3A53F5
S11328AA5542004F54413A454E44004F54413A4E22
S11328BA414B3A4E4F545F494E5F5355425F4F5412
S11328CA41004442473A554E4B4E4F574E20434DD2
S11328DA44002573004F54413A4E414B3A535542F2
S11328EA5F52585F4F564552464C4F5700537065D6
S11328FA65643A20256420636D2F732020200054D8
S113290A54433A2532752E25317520732020200030
S113291A4F54413A41434B3A424547494E3A4D4155
S113292A494E004F54413A41434B3A424547494E76
S113293A3A535542004F54413A41434B3A44415465
S113294A413A535542003A504152414D3A253331A6
S113295A5B5E3A5D3A2564004F54413A4E414B3A24
S113296A504152414D5F464F524D415400545443D5
S113297A5F44414E474552005454435F5741524EB7
S113298A494E47004F54413A41434B3A454E44005D
S113299A5454435F44414E4745523D25642E2564B1
S11329AA3B5454435F5741524E494E473D25642E8A
S11329BA25643B445F43415554494F4E3D25753B7D
S11329CA445F454D455247454E43593D25753B00A5
S11329DA4F54413A41434B3A504152414D00445FAE
S11329EA43415554494F4E00445F454D455247456E
S11329FA4E4359004F54413A4E41434B3A50415287
S1072A0A414D000036
S9030000FC
