:100000004BC0000067C0000065C0000063C0000076
:1000100061C000005FC000005DC000005BC0000068
:1000200059C0000057C0000055C0000053C0000078
:1000300051C000004FC000004DC000004BC0000088
:1000400049C0000047C0000093C40000B9C40000CC
:1000500041C000003FC000003DC000003BC00000A8
:1000600039C0000037C0000035C0000033C00000B8
:1000700031C000002FC000008DC30000B4C30000D9
:1000800029C0000027C0000025C000006364696E1D
:100090006F70737578585B0011241FBECFEFD0E1ED
:1000A000DEBFCDBF12E0A0E0B1E0EEEEF6E200E090
:1000B0000BBF02C007900D92A638B107D9F725E013
:1000C000A6E8B2E001C01D92AB30B207E1F7BBD4A5
:1000D0000C94751395CF6091F2047091F3048091A4
:1000E000F4049091F5040E940C0B8091EB04909124
:1000F000EC048617970720F083E08093EF040895BF
:100100008091E9049091EA048617970720F082E035
:100110008093EF0408958091F004823021F481E00F
:100120008093EF040895833021F482E08093EF04FC
:10013000089584E08093EF04089580910605882354
:1001400031F010928802109287021092860282305B
:1001500021F483E08093EF040895813021F482E05C
:100160008093EF04089581111EC080918602811151
:1001700018C02091ED0430E08091870290918802B0
:100180008217930748F40196909388028093870220
:1001900083E08093EF0408959EDF81E080938602E0
:1001A000089599CF0895833011F48093EF04089552
:1001B000CF92DF92EF92FF926091F2047091F3047C
:1001C0008091F4049091F50420E030E040E351E4A4
:1001D0000E94360A6B017C0120E030E0A9010E94F8
:1001E0009B0A88231CF4C12CD12C7601C092F20406
:1001F000D092F304E092F404F092F504FF90EF90B3
:10020000DF90CF9008958F929F92AF92BF92CF923E
:10021000DF92EF92FF92CF93DF93CEEED4E0CC80CB
:10022000DD80EE80FF80288539854A855B85C701A2
:10023000B6010E94360A2DEC3CEC4CEC5DE30E94CA
:100240009F0A2DEC3CEC4CEC5EE30E94EE0B4B0164
:100250005C01688979898A899B892AE939E949E1B8
:100260005FE30E94EE0B9B01AC01C501B4010E944B
:10027000370A6C877D878E879F87688B798B8A8BFF
:100280009B8BC886D986EA86FB86DF91CF91FF904B
:10029000EF90DF90CF90BF90AF909F908F90089598
:1002A000CF92DF92EF92FF92AEDFC090FA04D0902F
:1002B000FB04E090FC04F090FD0420E030E040E816
:1002C0005FEBC701B6010E94EA0B882394F46091AA
:1002D000F2047091F3048091F4049091F504A70165
:1002E000960150580E949F0A562F472F382F292FCA
:1002F00004C050E04CE33CE126E4652F742F832FCB
:10030000922FFF90EF90DF90CF900895CF92DF92E1
:10031000EF92FF92C5DF6B017C01EEEEF4E0648B9F
:10032000758B868B978B808D823079F580918902D1
:1003300090918A02A0918B02B0918C020097A10546
:10034000B10561F00197A109B109809389029093E9
:100350008A02A0938B02B0938C0252C02091E104D8
:100360003091E2044091E3045091E404C701B601E6
:100370000E949B0A88234CF420E030E0A901C701C9
:10038000B6010E94EA0B1816DCF12091E1043091CD
:10039000E2044091E3045091E404C701B6010E94D5
:1003A0009B0A8823CCF420E030E0A901C701B60104
:1003B0000E94EA0B181684F482E08093060588E018
:1003C00090E0A0E0B0E08093890290938A02A0932D
:1003D0008B02B0938C0214C02091E5043091E604A6
:1003E0004091E7045091E804C701B6010E949B0ABE
:1003F000882324F481E08093060502C0109206054C
:10040000FF90EF90DF90CF900895DC01CB01880F33
:10041000991FAA1FBB1F880F991FAA1FBB1F9C01F2
:10042000AD01220F331F441F551F220F331F441FDE
:10043000551F60E070E081EE90E00E94640C215056
:1004400031093093900029B91BB888E98AB986E050
:10045000809395000895DC01CB01880F991FAA1F96
:10046000BB1F880F991FAA1FBB1F9C01AD01220F44
:10047000331F441F551F220F331F441F551F60E0B9
:1004800070E081EE90E00E94640C215031093093BD
:1004900098002093990010929B0088E980939A001D
:1004A00086E080939D000895EAE9F0E08081806213
:1004B00080830895EAE9F0E080818F7D808308954C
:1004C0008AB180628AB908958AB18F7D8AB9089508
:1004D00060E076E980E090E0BEDF109211031092B8
:1004E000900210928F0210928E0208954F925F92A6
:1004F0006F927F928F929F92AF92BF92CF92DF9234
:10050000EF92FF920F931F93CF93DF938091090592
:10051000811171C080918F0281116DC0F894CEEE6F
:10052000D4E06C897D898E899F8920E030E040E2AB
:1005300051E40E94EE0B0E940C0B6B017C01488D74
:100540004C845D846E847F84098118818C809D80B9
:10055000AE80BF809B01ADECBCEC0E94860C9695F2
:10056000879596958795969587959C01220F331FC1
:10057000880F991F880F991F880F991F820F931F4B
:100580009601281B390BC9019F932F9396010E9456
:10059000860C9695879596958795969587959F93C2
:1005A0008F931F924F93C301B2010E94070B7F9359
:1005B0006F931F920F931F921F93C501B4010E9466
:1005C0000C0B7F936F9380E091E09F938F9381E971
:1005D00092E09F938F930E940B0D80938F02109255
:1005E000900262DF78948DB79EB742960FB6F8946A
:1005F0009EBF0FBE8DBFDF91CF911F910F91FF90D6
:10060000EF90DF90CF90BF90AF909F908F907F90B2
:100610006F905F904F9008958D3001F18A3051F4C2
:10062000E0911103F0E0EE5EFC4F108281E08093D8
:100630008E02089590918D02911110C0E0911103E6
:10064000EF3F49F091E09E0F90931103F0E0EE5ED2
:10065000FC4F8083089581E080938D020895E0919E
:10066000900280918F02E81758F481E08E0F8093FA
:100670009002F0E0EF56FD4F808180939C0008953A
:1006800019DF1092900210928F02089520918F022C
:100690002111FCCF9F938F938EE391E09F938F93D3
:1006A0001F9280E88F9381E992E09F938F930E943D
:1006B000CF0C80938F0210929002F6DE8DB79EB71A
:1006C00008960FB6F8949EBF0FBE8DBF0895809117
:1006D0008E02882309F45DC080918D02882351F039
:1006E00010928D021092110310928E0282E491E01A
:1006F000CDCF0895E2E1F3E001900020E9F73197D2
:10070000E251F34049F03197DF01AE5EBC4F8C916E
:100710008D3011F4FD0110824EE050E066E571E08D
:1007200082E193E00E94B20C892B19F481E05AD443
:100730002CC04DE050E065E671E082E193E00E945C
:10074000B20C892B19F482E04DD41FC047E050E071
:1007500063E771E082E193E00E94B20C892B11F40F
:10076000C3D413C0809112038A3361F480910905C8
:10077000882321F082E193E052D407C08BE791E017
:1007800085DF03C082E991E081DF109211031092AE
:100790008E0208951F920F920FB60F9211240BB67E
:1007A0000F922F933F934F935F936F937F938F930A
:1007B0009F93AF93BF93EF93FF9380919C002CDFA7
:1007C000FF91EF91BF91AF919F918F917F916F9129
:1007D0005F914F913F912F910F900BBE0F900FBEE5
:1007E0000F901F9018951F920F920FB60F92112421
:1007F0000BB60F922F933F934F935F936F937F931B
:100800008F939F93AF93BF93EF93FF9328DFFF9155
:10081000EF91BF91AF919F918F917F916F915F9178
:100820004F913F912F910F900BBE0F900FBE0F90E5
:100830001F90189560E076E980E090E0E6DD109288
:10084000DA040895CF93DF938091130481110AC0D5
:10085000EEEEF4E0808D809312048181828381E04A
:1008600080931304EEEEF4E081819281891306C037
:100870002091060590911204291779F0E8EDF4E033
:100880008083CEEED4E0888D81831092D70418DE69
:1008900089818A83888D80931204DF91CF91089596
:1008A000CF93DF93E091DA0491E09E0F9093DA0406
:1008B000F0E0E552FB4F80838091DA048230B8F09B
:1008C0001092DA04EBEDF4E0618170E0762F662798
:1008D0008081682BCEEED4E0072E000C880B990B9C
:1008E000C9D66C837D838E839F8381E0898FDF915E
:1008F000CF910895BC01909114049111FCCF4FEB5E
:1009000050E087E194E00E94C00C1092D60487E189
:1009100094E0909316048093150481E0809314046E
:100920008093E004CDCD0895E0911504F091160474
:10093000309751F08081882339F03196F093160476
:10094000E09315048CB908958AE08CB910921604CE
:100950001092150410921404B7CD0895E8EDF4E058
:10096000808361831092D7041092E004A9CD08958A
:100970001F920F920FB60F9211240BB60F922F9366
:100980003F934F935F936F937F938F939F93AF9317
:10099000BF93EF93FF938CB183DFFF91EF91BF91F2
:1009A000AF919F918F917F916F915F914F913F9107
:1009B0002F910F900BBE0F900FBE0F901F901895A8
:1009C0001F920F920FB60F9211240BB60F922F9316
:1009D0003F934F935F936F937F938F939F93AF93C7
:1009E000BF93EF93FF938091E004813011F49CDF7B
:1009F00010C0E091D70481E08E0F8093D704F0E01F
:100A0000E852FB4F80818CB98091D704823008F086
:100A10005BDDFF91EF91BF91AF919F918F917F919E
:100A20006F915F914F913F912F910F900BBE0F905F
:100A30000FBE0F901F90189584B7806884BF84B74D
:100A4000806884BF0895CF93DF93CDB7DEB7C054DD
:100A5000D1090FB6F894DEBF0FBECDBFEDDFE1D4F4
:100A60006BD38FEF8ABBE4E6F0E080818760808300
:100A7000E5E6F0E080818B7F808380818D7F8083BD
:100A800080818160808326EF2A95F1F788E38BBB14
:100A900086EF8A95F1F780818E7F808384E006C09F
:100AA000E6E6FEE03197F1F70000892F9FEF980FFF
:100AB0008111F6CFE5E6F0E080818B7F8083808135
:100AC0008D7F808380818160808326EF2A95F1F776
:100AD00088E38BBB86EF8A95F1F780818E7F8083D8
:100AE00084E006C0E6E6FEE03197F1F70000892FCA
:100AF0009FEF980F8111F6CFE5E6F0E080818B7FC4
:100B0000808380818D7F808380818160808326EFD8
:100B10002A95F1F788E38BBB86EF8A95F1F7808100
:100B20008E7F808384E006C0E6E6FEE03197F1F731
:100B30000000892F9FEF980F8111F6CFE5E6F0E0D6
:100B400080818B7F808380818D7F808380818160A5
:100B5000808326EF2A95F1F78EE08BBB86EF8A958E
:100B6000F1F780818E7F808382E006C0E6E6FEE0BA
:100B70003197F1F70000892F9FEF980F8111F6CF81
:100B8000E5E6F0E080818B7F808380818D7F8083AC
:100B900080818160808326EF2A95F1F786E08BBB08
:100BA00086EF8A95F1F780818E7F808382E006C090
:100BB000E6E6FEE03197F1F70000892F9FEF980FEE
:100BC0008111F6CFE5E6F0E080818B7F8083808124
:100BD0008D7F808380818160808326EF2A95F1F765
:100BE00081E08BBB86EF8A95F1F780818E7F8083D1
:100BF00082E006C0E6E6FEE03197F1F70000892FBB
:100C00009FEF980F8111F6CF15DE62DCE6D1789464
:100C10006DDCFFEF2FE786E1F15020408040E1F7E7
:100C200000C0000054DD80910905882351F09FEF3A
:100C3000EFEFF8E09150E040F040E1F700C0000035
:100C4000F1CF8111EFCF80910705882359F3B0DAF6
:100C50005DDB0EEE14E0F801118E6FDAF3DDF801C2
:100C6000648975898689978920E030E040E251E403
:100C7000B5D5D2D46B017C01F801808D882309F4AD
:100C8000CFC01092DE041092DD04E5E6F0E0808132
:100C90008B7F808380818D7F808380818160808352
:100CA00026EF2A95F1F780E88BBB86EF8A95F1F75E
:100CB00080818E7F80836091FA047091FB04809123
:100CC000FC049091FD04A8D47F936F9382EA91E095
:100CD0009F938F938E010F5F1F4F1F930F939BD690
:100CE0000F900F900F900F900F900F90D80122C08F
:100CF000119681E006C0E6E6FEE03197F1F70000CC
:100D0000822F2FEF280F8111F6CFE5E6F0E08081EA
:100D10008460808380818D7F8083808181608083F7
:100D200026EF2A95F1F79BBB86EF8A95F1F7808134
:100D30008E7F80839C919111DBCFE5E6F0E080818E
:100D40008B7F808380818D7F8083808181608083A1
:100D500096EF9A95F1F780EC8BBB26EF2A95F1F789
:100D600080818E7F80839601ADECBCECCFD5AC0149
:100D7000569547955695479556954795CA01880FBC
:100D8000991F440F551F440F551F440F551F480FFF
:100D9000591FC601841B950BAC01B8D59695879554
:100DA00096958795969587955F934F939F938F938D
:100DB00084EB91E09F938F937E0191E2E90EF11C09
:100DC000FF92EF9228D60FB6F894DEBF0FBECDBFCC
:100DD000D70122C0119681E006C0E6E6FEE0319719
:100DE000F1F70000822F2FEF280F8111F6CFE5E6F3
:100DF000F0E080818460808380818D7F808380812A
:100E00008160808326EF2A95F1F79BBB86EF8A9558
:100E1000F1F780818E7F80839C919111DBCFDBC0C5
:100E20008091DD049091DE048A30910530F40196C2
:100E30009093DE048093DD04CEC01092DE04109205
:100E4000DD04E5E6F0E080818B7F808380818D7F0B
:100E5000808380818160808396EF9A95F1F780E8A6
:100E60008BBB26EF2A95F1F780818E7F808360917E
:100E7000FA047091FB048091FC049091FD04CCD3A2
:100E80007F936F9382EA91E09F938F938E010F5F20
:100E90001F4F1F930F93BFD50F900F900F900F9080
:100EA0000F900F90D80122C0119681E006C0E6E6AF
:100EB000FEE03197F1F70000822F2FEF280F81110C
:100EC000F6CFE5E6F0E080818460808380818D7FCD
:100ED000808380818160808326EF2A95F1F79BBB18
:100EE00086EF8A95F1F780818E7F80839C919111A6
:100EF000DBCFE5E6F0E080818B7F808380818D7F92
:100F0000808380818160808396EF9A95F1F780ECF1
:100F10008BBB26EF2A95F1F780818E7F8083960127
:100F2000ADECBCECF3D4AC0156954795569547957E
:100F300056954795CA01880F991F440F551F440FB6
:100F4000551F440F551F480F591FC601841B950B91
:100F5000AC01DCD49695879596958795969587955F
:100F60005F934F939F938F9384EB91E09F938F9325
:100F70007E0191E2E90EF11CFF92EF924CD50FB683
:100F8000F894DEBF0FBECDBFD70122C0119681E01D
:100F900006C0E6E6FEE03197F1F70000822F2FEF62
:100FA000280F8111F6CFE5E6F0E080818460808330
:100FB00080818D7F808380818160808326EF2A9568
:100FC000F1F79BBB86EF8A95F1F780818E7F808356
:100FD0009C919111DBCF8ADA25CEEEEEF4E0138EF0
:100FE000148E0895EEEEF4E091E0938F848F8130BB
:100FF00051F465EA80E090E00E94641385EC91E092
:1010000045DBFDC00895823049F488ED91E03EDB78
:101010006FEF8FEFA3DC81E08093E00408950F93DE
:101020001F93CF93DF93CDB7DEB7A2970FB6F89497
:10103000DEBF0FBECDBF20910905222309F449C0B0
:1010400020910A05223029F455DC8AEE91E01EDB5E
:1010500040C0213009F03DC09E012F5D3F4F3F93BE
:101060002F938E010F5F1F4F1F930F932BEF31E0D4
:101070003F932F939F938F93FCD46DE072E0C80150
:1010800068D40FB6F894DEBF0FBECDBF892B31F008
:1010900068E172E0C8015DD4892B79F469A17AA175
:1010A000072E000C880B990BE5D220E030E040E2DF
:1010B00051E445D2AB01BC0109C069A17AA1072E58
:1010C000000C880B990BD6D2AB01BC01CE01019666
:1010D0000ED1A2960FB6F894DEBF0FBECDBFDF9142
:1010E000CF911F910F910895EEEEF4E0138E148EC0
:1010F0001092E0047FD084E292E0C8CA0895E1EE45
:10110000F4E080E090E0A0ECBFE380839183A283D1
:10111000B38380E090E0A0EAB0E484839583A68363
:10112000B7838EE190E0918780878FE090E093878E
:1011300082871092DF040895CF9381E090E00E94AF
:101140004D13C82F82E090E00E944D13CA3511F470
:10115000813011F0D4DF0AC04DE050E063E070E070
:1011600081EE94E00E943D131092DF04CF91089528
:101170001F93CF93DF93CDB7DEB72D970FB6F894BB
:10118000DEBF0FBECDBF9FB7F89481E00AC08DE0EF
:10119000E1EEF4E0DE01119601900D928A95E1F7FF
:1011A00080E08111F4CF9FBF1FB7F89481E015C094
:1011B0006AE581E090E00E94641361E082E090E0E3
:1011C0000E9464134DE050E063E070E0CE010196B0
:1011D0000E9455131092DF0480E08111E9CF1FBFF8
:1011E0002D960FB6F894DEBF0FBECDBFDF91CF9125
:1011F0001F9108958091DF048111BACF08958F92D5
:101200009F92AF92BF92EF92FF920F931F93CF9353
:10121000DF93CDB7DEB7C058D1090FB6F894DEBF63
:101220000FBECDBF01EE14E0D8016D917D918D917F
:101230009C9120E030E040E251E4D0D2E8D17B0143
:10124000F801648175818681978120E030E040E279
:1012500051E4C4D2DCD14B015C012AE030E0C7018B
:10126000B9011FD3462FE72FF82FF92EC401B9017A
:1012700018D3D8011A965C911A971B96EC901B977D
:1012800018962C91189719963C91EF925F933F9383
:101290002F939F938F937F936F93FF92FF93EF937F
:1012A0004F9380E392E09F938F931F9280E88F93F8
:1012B0008E010F5F1F4F1F930F9371D3C801E6D9A3
:1012C0000FB6F894DEBF0FBECDBFC058DF4F0FB6CC
:1012D000F894DEBF0FBECDBFDF91CF911F910F916C
:1012E000FF90EF90BF90AF909F908F900895CF9216
:1012F000DF92EF92FF92CF93DF93EC016A017B01C3
:101300006DE072E026D3892BF1F42DEC3CEC4CEC33
:101310005DE3C701B6015ED218168CF420E030E020
:1013200040E251E4C701B60106D1882344F4C092DB
:10133000E104D092E204E092E304F092E40481E05C
:101340008093DF0467C068E172E0CE0102D3892B8D
:10135000F1F42DEC3CEC4CEC5DE3C701B6013AD264
:1013600018168CF420E030E040E751E4C701B601E4
:10137000E2D0882344F4C092E504D092E604E092DF
:10138000E704F092E80481E08093DF0443C060E763
:1013900072E0CE01DED2892BE1F420E030E0A90139
:1013A000C701B60117D2882384F020E030E04AEF6D
:1013B00053E4C701B601BFD018163CF0C701B6010F
:1013C0002BD17093EA046093E90481E08093DF04F9
:1013D00021C06AE772E0CE01BCD2892BD9F420E0AB
:1013E00030E0A901C701B601F5D1882384F020E0DF
:1013F00030E04AEF53E4C701B6019DD018163CF027
:10140000C701B60109D17093EC046093EB0481E04D
:101410008093DF04DF91CF91FF90EF90DF90CF902A
:101420000895EEEEF4E0108284E0818382831382DB
:101430001486158616861786108A118A128A138AD0
:10144000108E148215821682178280E090E0A0E848
:10145000BFEB848B958BA68BB78B1086118612867B
:101460001386118E128E138E148E08955058BB273A
:10147000AA270ED075C166D130F06BD120F031F4BF
:101480009F3F11F41EF45BC10EF4E095E7FB51C1E0
:10149000E92F77D180F3BA1762077307840795079E
:1014A00018F071F49EF58FC10EF4E0950B2EBA2F53
:1014B000A02D0B01B90190010C01CA01A00111245A
:1014C000FF27591B99F0593F50F4503E68F11A1606
:1014D000F040A22F232F342F4427585FF3CF469597
:1014E00037952795A795F0405395C9F77EF41F16B9
:1014F000BA0B620B730B840BBAF09150A1F0FF0F83
:10150000BB1F661F771F881FC2F70EC0BA0F621F6E
:10151000731F841F48F4879577956795B795F7955E
:101520009E3F08F0B3CF9395880F08F09927EE0FF0
:10153000979587950895D9D008F481E008950CD047
:101540000FC107D140F0FED030F021F45F3F19F019
:10155000F0C0511139C1F3C014D198F39923C9F3E4
:101560005523B1F3951B550BBB27AA2762177307A9
:10157000840738F09F5F5F4F220F331F441FAA1F5D
:10158000A9F333D00E2E3AF0E0E830D0915050401D
:10159000E695001CCAF729D0FE2F27D0660F771FCB
:1015A000881FBB1F261737074807AB07B0E809F0AD
:1015B000BB0B802DBF01FF2793585F4F2AF09E3F42
:1015C000510568F0B6C000C15F3FECF3983EDCF314
:1015D000869577956795B795F7959F5FC9F7880FBB
:1015E000911D9695879597F90895E1E0660F771F0D
:1015F000881FBB1F621773078407BA0720F0621B9E
:10160000730B840BBA0BEE1F88F7E095089504D096
:101610006894B111D9C00895BCD088F09F5790F05C
:10162000B92F9927B751A0F0D1F0660F771F881F07
:10163000991F1AF0BA95C9F712C0B13081F0C3D022
:10164000B1E00895C0C0672F782F8827B85F39F0C0
:10165000B93FCCF3869577956795B395D9F73EF466
:1016600090958095709561957F4F8F4F9F4F08950E
:10167000E89409C097FB3EF490958095709561952C
:101680007F4F8F4F9F4F9923A9F0F92F96E9BB27E2
:101690009395F695879577956795B795F111F8CF5E
:1016A000FAF4BB0F11F460FF1BC06F5F7F4F8F4FC9
:1016B0009F4F16C0882311F096E911C0772321F0BF
:1016C0009EE8872F762F05C0662371F096E8862F57
:1016D00070E060E02AF09A95660F771F881FDAF7AE
:1016E000880F9695879597F90895990F0008550FDB
:1016F000AA0BE0E8FEEF16161706E807F907C0F098
:1017000012161306E407F50798F0621B730B840B9F
:10171000950B39F40A2661F0232B242B252B21F479
:1017200008950A2609F4A140A6958FEF811D811D19
:10173000089597F99F6780E870E060E008959FEF53
:1017400080EC089500240A94161617061806090658
:10175000089500240A941216130614060506089527
:10176000092E0394000C11F4882352F0BB0F40F4AF
:10177000BF2B11F460FF04C06F5F7F4F8F4F9F4FEF
:10178000089557FD9058440F551F59F05F3F71F071
:101790004795880F97FB991F61F09F3F79F08795D8
:1017A0000895121613061406551FF2CF4695F1DF61
:1017B00008C0161617061806991FF1CF86957105F1
:1017C000610508940895E894BB2766277727CB0125
:1017D00097F908958ADF08F48FEF08950BD0C0CFF2
:1017E000B1DF28F0B6DF18F0952309F0A2CFA7CF1C
:1017F0001124EACFC6DFA0F3959FD1F3950F50E0F7
:10180000551F629FF001729FBB27F00DB11D639FB2
:10181000AA27F00DB11DAA1F649F6627B00DA11D58
:10182000661F829F2227B00DA11D621F739FB00DFE
:10183000A11D621F839FA00D611D221F749F33276E
:10184000A00D611D231F849F600D211D822F762F07
:101850006A2F11249F5750408AF0E1F088234AF004
:10186000EE0FFF1FBB1F661F771F881F9150504050
:10187000A9F79E3F510570F05CCFA6CF5F3FECF318
:10188000983EDCF3869577956795B795F795E7953C
:101890009F5FC1F7FE2B880F911D9695879597F94D
:1018A000089597FB072E16F4009406D077FD08D014
:1018B0003CD007FC05D03EF4909581959F4F08954C
:1018C000709561957F4F0895A1E21A2EAA1BBB1B4C
:1018D000FD010DC0AA1FBB1FEE1FFF1FA217B307FC
:1018E000E407F50720F0A21BB30BE40BF50B661F12
:1018F000771F881F991F1A9469F7609570958095D6
:1019000090959B01AC01BD01CF010895A29FB0014C
:10191000B39FC001A39F700D811D1124911DB29F23
:10192000700D811D1124911D0895AA1BBB1B51E14F
:1019300007C0AA1FBB1FA617B70710F0A61BB70B3F
:10194000881F991F5A95A9F780959095BC01CD01E4
:101950000895FB01DC018D91019080190110D9F3EC
:10196000990B0895FB01DC014150504030F08D91FE
:101970000190801919F40020B9F7881B990B08957C
:10198000FB01DC014150504048F001900D920020D5
:10199000C9F701C01D9241505040E0F708950F93E0
:1019A0001F93CF93DF93CDB7DEB72E970FB6F89482
:1019B000DEBF0FBECDBF0D891E898F89988D26E0B1
:1019C0002C831A83098397FF02C080E090E8019777
:1019D0009E838D83AE01455E5F4F698D7A8DCE010A
:1019E000019668D04D815E8157FD0AC02F813885F0
:1019F000421753070CF49A01F801E20FF31F10820B
:101A00002E960FB6F894DEBF0FBECDBFDF91CF91FB
:101A10001F910F9108950F931F93CF93DF93CDB72D
:101A2000DEB72E970FB6F894DEBF0FBECDBF0D897F
:101A30001E8986E08C831A8309838FEF9FE79E833C
:101A40008D83AE01475E5F4F6F89788DCE01019621
:101A500031D0EF81F885E00FF11F10822E960FB67E
:101A6000F894DEBF0FBECDBFDF91CF911F910F91D4
:101A70000895CF93DF93CDB7DEB72E970FB6F894C6
:101A8000DEBF0FBECDBF85E08C838B899C899A8396
:101A90008983AE01495E5F4F6D897E89CE010196D3
:101AA000B8D32E960FB6F894DEBF0FBECDBFDF9130
:101AB000CF9108952F923F924F925F926F927F92B3
:101AC0008F929F92AF92BF92CF92DF92EF92FF924E
:101AD0000F931F93CF93DF93CDB7DEB72B970FB63E
:101AE000F894DEBF0FBECDBF6C017B018A01FC0103
:101AF00017821682838181FFBFC1CE0101963C010E
:101B0000F6019381F70193FD859193FF81917F0108
:101B1000882309F4ADC1853239F493FD859193FF93
:101B200081917F01853221F4B60190E0F0D4E8CFB5
:101B3000912C212C312CFFE1F315D8F08B3279F068
:101B400038F4803279F08332A1F4232D20611DC056
:101B50008D3261F0803369F4232D216016C0832D0E
:101B60008260382EE32DE4603E2E2AC0F32DF8600B
:101B70001DC037FC2DC020ED280F2A3040F08E32DA
:101B8000B9F436FC75C1232D2064322E19C036FEFF
:101B900006C08AE0989E200D1124922E11C0EAE022
:101BA0002E9E200D1124222EF32DF0623F2E08C010
:101BB0008C3621F4832D8068382E02C0883641F49B
:101BC000F70193FD859193FF81917F018111B3CF3F
:101BD000982F9F7D9554933028F40C5F1F4F9FE3FF
:101BE00099830DC0833631F0833771F0833509F066
:101BF00055C020C0F801808189830E5F1F4F882463
:101C00008394912C530112C02801F2E04F0E511C15
:101C1000F801A080B18036FE03C0692D70E002C0DB
:101C20006FEF7FEFC5012AD44C018201F32DFF77BE
:101C30003F2E15C0280122E0420E511CF801A08061
:101C4000B18036FE03C0692D70E002C06FEF7FEFF8
:101C5000C50109D44C01F32DF0683F2E820133FCFD
:101C600019C0822D90E088169906A0F4B60180E292
:101C700090E04DD42A94F5CFF50137FC859137FEDD
:101C800081915F01B60190E042D421102A9421E0B5
:101C9000821A91088114910479F7E1C0843611F019
:101CA000893639F5F80137FE07C06081718182817C
:101CB00093810C5F1F4F08C060817181072E000C5B
:101CC000880B990B0E5F1F4FF32DFF763F2E97FF6A
:101CD00009C090958095709561957F4F8F4F9F4F6C
:101CE000F0683F2E2AE030E0A30166D4882E8618E3
:101CF00044C0853731F4232D2F7EB22E2AE030E008
:101D000025C0932D997FB92E8F36C1F018F48835F0
:101D100079F0AEC0803719F0883721F0A9C0E92FDB
:101D2000E061BE2EB4FE0DC0FB2DF460BF2E09C0D5
:101D300034FE0AC0292F2660B22E06C028E030E00B
:101D400005C020E130E002C020E132E0F801B7FE3A
:101D500007C060817181828193810C5F1F4F06C033
:101D60006081718180E090E00E5F1F4FA30124D459
:101D7000882E8618FB2DFF773F2E36FE0DC0232DB3
:101D80002E7FA22E891458F434FE0BC032FC09C0F9
:101D9000832D8E7EA82E05C0B82CA32C03C0B82C92
:101DA00001C0B92CA4FE0FC0FE01E80DF11D808119
:101DB000803321F49A2D997EA92E09C0A2FE06C077
:101DC000B394B39404C08A2D867809F0B394A3FC2D
:101DD00010C0A0FE06C0B21480F4280C922C9B18F0
:101DE0000DC0B21458F4B60180E290E090D3B394E1
:101DF000F8CFB21418F42B1802C0982C212CA4FE92
:101E00000FC0B60180E390E082D3A2FE16C0A1FC11
:101E100003C088E790E002C088E590E0B6010CC0FE
:101E20008A2D867851F0A1FE02C08BE201C080E2CB
:101E3000A7FC8DE2B60190E06AD3891430F4B601B4
:101E400080E390E064D39A94F8CF8A94F301E80D8C
:101E5000F11D8081B60190E05AD38110F6CF222087
:101E600009F44ECEB60180E290E051D32A94F7CF28
:101E7000F6018681978102C08FEF9FEF2B960FB6F8
:101E8000F894DEBF0FBECDBFDF91CF911F910F91B0
:101E9000FF90EF90DF90CF90BF90AF909F908F908A
:101EA0007F906F905F904F903F902F90089520FD0E
:101EB00009C0FC0123FD05C022FF02C073836283B9
:101EC00051834083089544FD17C046FD17C0AB0100
:101ED000BC01DA01FB01AA0FBB1FEE1FFF1F10940C
:101EE000D1F74A0F5B1F6E1F7F1FCB01BA01660F30
:101EF000771F881F991F09C033E001C034E0660FC7
:101F0000771F881F991F3150D1F7620F711D811DF6
:101F1000911D08950F931F93CF93DF938C01C801F8
:101F2000B8D2EC0197FD06C08BD2892BC1F7B8015E
:101F3000CE0129D3CE01DF91CF911F910F9108954A
:101F40008F929F92AF92BF92EF92FF920F931F9347
:101F5000CF93DF938C01D62F7A01B22E9AD29C01B7
:101F600033272B32310531F02D32310559F48B2DC9
:101F70008068B82ED15011F480E061C0C80189D2C8
:101F800097FDFACFCB2DCD7F2B2D2073F9F4803325
:101F9000E9F4AA24AA94AD0E09F43EC0C80179D28E
:101FA00097FD3AC09C012F7D33272835310541F438
:101FB000C264D25089F1C8016CD297FF07C02CC00F
:101FC000B6FE02C0C26001C0C261DA2D812C912C24
:101FD000540120ED280F283078F0C4FF03C0B80169
:101FE000D2D217C02A3040F0C6FFF9CF2F7D3FEE86
:101FF000320F3630A0F727504C2FC501B40163DFF4
:102000004B015C01C260D15051F0C80142D297FF30
:10201000E0CFC1FD04C0B0CF812C912C5401C7FF8B
:1020200008C0B094A09490948094811C911CA11C31
:10203000B11C2C2FB501A401C70139DF81E0DF916C
:10204000CF911F910F91FF90EF90BF90AF909F9015
:102050008F9008955F926F927F928F929F92AF922E
:10206000BF92CF92DF92EF92FF920F931F93CF9385
:10207000DF93CDB7DEB7A0970FB6F894DEBF0FBEE3
:10208000CDBF5C01962E7A01F9018E010F5F1F4FC3
:10209000680180E2D8011D928A95E9F7D50113966F
:1020A0008C9080E090E0612C712C30E061E070E079
:1020B00083FC259183FE21918F01522E211103C0B3
:1020C00080E090E090C02E3511F4009751F1432F3D
:1020D00050E0481759073CF42D3559F12D3219F4C9
:1020E000772009F103C0772009F468C0452D469593
:1020F00046954695D601A40FB11D452D47708B011D
:1021000002C0000F111F4A95E2F7A8015C91452B10
:102110004C93651459F0561410F45394E7CF5A9425
:10212000E5CF31E004C07724739401C0712C01968F
:10213000BFCF772019F08E8180628E83311103C06A
:102140008824839417C0F6019E012F5D3F4F808144
:10215000809581932E173F07D1F7F2CFE114F10458
:1021600029F0D7018C93F70131967F019A94812C45
:102170009920E9F0C5018DD197FD17C0FC01FF271B
:1021800023E0F595E7952A95E1F7EC0DFD1D2081FB
:1021900030E0AC014770552702C0359527954A9528
:1021A000E2F720FDDBCFB501EED1811089CFE1143C
:1021B000F10411F0D7011C92C80115C0422F4695B9
:1021C00046954695D601A40FB11D422F47708B014D
:1021D00002C0000F111F4A95E2F7A8015C91452B40
:1021E0004C93622EA4CFA0960FB6F894DEBF0FBE1C
:1021F000CDBFDF91CF911F910F91FF90EF90DF90B6
:10220000CF90BF90AF909F908F907F906F905F9096
:1022100008955F926F927F928F929F92AF92BF923A
:10222000CF92DF92EF92FF920F931F93CF93DF93A2
:102230006C01EB015A01FC0117821682512CF60148
:10224000E380FE01E3FC8591E3FE8191182FEF010D
:10225000882309F4E0C090E0F3D0892B19F0C6017F
:1022600059DEEDCF153241F4FE01E3FC1591E3FE9A
:102270001191EF01153271F4C6010BD197FDC9C060
:10228000412F50E09C01332724173507C1F2B601D6
:102290007AD1C1C01A3239F4E3FC1591E3FE1191F1
:1022A000EF0101E001C000E0F12C20ED210F2A3008
:1022B00078F402606F2D70E080E090E040E203DE91
:1022C000F62EFE01E3FC1591E3FE1191EF01EDCF37
:1022D00001FF03C0F11003C09EC0FF24FA9418361A
:1022E00019F01C3651F010C0FE01E3FC1591E3FE1D
:1022F0001191EF01183641F408600460FE01E3FC1F
:102300001591E3FE1191EF01112309F484C0612FAF
:1023100070E08CE890E09CD0892B09F47CC000FD33
:1023200007C0F50180809180C50102965C0102C062
:10233000812C912C1E3649F4F6014681578160E0CC
:1023400070E0202FC401B3DD7ACF1336A1F401FD74
:1023500002C0FF24F394C6019CD097FD5AC081149B
:10236000910429F0F4018083C40101964C01FA9490
:10237000F110F1CF4AC01B3551F49E01A4016F2D1D
:10238000C60168DEEC01892B09F03FC039C0C601E7
:10239000C1DD97FD3EC01F3649F128F4143621F106
:1023A000193639F125C0133771F01537E9F020C01F
:1023B0008114910429F0F4016082C40101964C015A
:1023C000FA94FF2059F0C60164D03C0197FD06C085
:1023D00037D0892B69F3B601C301D5D0811491049C
:1023E000A1F0F401108211C0006203C0006101C0BD
:1023F0000064202FA4016F2DC601A2DD811105C04C
:10240000F6018381807329F406C000FD18CF539430
:1024100016CF552019F0852D90E002C08FEF9FEF69
:10242000DF91CF911F910F91FF90EF90DF90CF90B0
:10243000BF90AF909F908F907F906F905F90089526
:10244000911118C1803219F089508550D0F7089544
:10245000FC010590061621F00020D9F7C00108956F
:102460003197CF010895FC01059061507040011033
:10247000D8F7809590958E0F9F1F0895FC016150AD
:10248000704001900110D8F7809590958E0F9F1F96
:102490000895CF93DF93EC012B8120FF33C026FFFB
:1024A0000AC02F7B2B838E819F8101969F838E8311
:1024B0008A8190E029C022FF0FC0E881F9818081E4
:1024C000082E000C990B009719F420622B831AC078
:1024D0003196F983E8830EC0EA85FB85099597FF5D
:1024E00009C02B81019611F080E201C080E1822BAE
:1024F0008B8308C02E813F812F5F3F4F3F832E8308
:10250000992702C08FEF9FEFDF91CF9108950F932E
:102510001F93CF93DF93FB01238121FD03C08FEF36
:102520009FEF2CC022FF16C0468157812481358140
:102530004217530744F4A081B1819D012F5F3F4FA3
:10254000318320838C93268137812F5F3F4F3783E0
:10255000268314C08B01EC01FB010084F185E02D82
:102560000995892BE1F6D80116968D919C911797C4
:10257000019617969C938E931697CE01DF91CF917B
:102580001F910F910895FB01238120FF12C026FDAA
:1025900010C08F3F3FEF930761F082832F7D20644F
:1025A0002383268137812150310937832683992758
:1025B00008958FEF9FEF0895FA01AA27283051F16F
:1025C000203181F1E8946F936E7F6E5F7F4F8F4F64
:1025D0009F4FAF4FB1E03ED0B4E03CD0670F781FC3
:1025E000891F9A1FA11D680F791F8A1F911DA11DA8
:1025F0006A0F711D811D911DA11D20D009F46894E1
:102600003F912AE0269F11243019305D3193DEF688
:10261000CF010895462F4770405D4193B3E00FD03E
:10262000C9F7F6CF462F4F70405D4A3318F0495D29
:1026300031FD4052419302D0A9F7EACFB4E0A6950C
:102640009795879577956795BA95C9F7009761052E
:10265000710508959B01AC010A2E06945795479584
:1026600037952795BA95C9F7620F731F841F951F79
:10267000A01D0895992788270895DC01CB01FC014E
:10268000E199FECF06C0FFBBEEBBE09A31960DB2DA
:102690000D9241505040B8F70895E199FECF9FBB8D
:1026A0008EBBE09A99278DB30895DC01A40FB51F66
:1026B0004150504040F0CB01840F951F2E9105D022
:1026C00041505040D8F70895262FE199FECF9FBB87
:1026D0008EBBE09A01970DB2021631F02DBB0FB6FA
:0E26E000F894E29AE19A0FBE0895F894FFCFA5
:1026EE0053544154453A554C5452413D2533643B65
:1026FE004D4F44453D25643B4D4F544F523D25644F
:10270E003B53706565643D25643B4643573D2564E8
:10271E003B5454433D2532752E2531750A002573E1
:10272E000A004F54413A4E414B3A52585F4F56456C
:10273E0052464C4F57004F54413A424547494E3A44
:10274E004D41494E004F54413A424547494E3A5346
:10275E005542004F54413A454E44004F54413A4E73
:10276E00414B3A4E4F545F494E5F5355425F4F5463
:10277E0041004442473A554E4B4E4F574E20434D23
:10278E00440053706565643A20256420636D2F7391
:10279E00202020005454433A2532752E25317520C1
:1027AE0073202020004F54413A41434B3A42454753
:1027BE00494E3A4D41494E004F54413A41434B3AEE
:1027CE00424547494E3A535542004F54413A4143D0
:1027DE004B3A444154413A535542003A50415241CA
:1027EE004D3A2533315B5E3A5D3A256400545443CD
:1027FE005F44414E474552005454435F5741524E39
:10280E00494E47004F54413A41434B3A454E4400DE
:10281E005454435F44414E4745523D25642E256432
:10282E003B5454435F5741524E494E473D25642E0B
:10283E0025643B445F43415554494F4E3D25753BFE
:10284E00445F454D455247454E43593D25753B0026
:10285E00445F43415554494F4E00445F454D4552E8
:06286E0047454E435900EE
:00000001FF
