S02000004D494E495F5344565F53595354454D5F4D41494E5F4D43552E737265637F
S113000045C0000061C000005FC000005DC000008A
S11300105BC0000059C0000057C0000055C000007C
S113002053C0000051C000004FC000004DC000008C
S11300304BC0000049C0000047C0000045C000009C
S113004043C0000041C00000A2C20000C8C20000BA
S11300503BC0000039C0000037C0000035C00000BC
S113006033C0000031C000002FC000002DC00000CC
S11300702BC0000029C00000D6C10000FDC1000053
S113008023C0000021C000001FC0000011241FBEB7
S1130090CFEFD0E1DEBFCDBF11E0A0E0B1E0EAE0F8
S11300A0F4E100E00BBF02C007900D92A833B10742
S11300B0D9F721E0A8E3B1E001C01D92AE39B2073F
S11300C0E1F7BBD20C94030A9BCF80919A01823052
S11300D021F483E0809383010895813021F482E048
S11300E0809383010895811112C08091840183302B
S11300F021F482E0809383010895823021F481E029
S113010080938301089584E080938301089583306C
S113011011F48093830108958F929F92AF92BF92BE
S1130120CF92DF92EF92FF92CF93DF93C2E8D1E0B8
S1130130CC80DD80EE80FF80288539854A855B850B
S1130140C701B6014DD42DEC3CEC4CEC5DE3B1D4CD
S11301502DEC3CEC4CEC5EE3F6D54B015C0168897C
S113016079898A899B892AE939E949E15FE3EBD5F1
S11301709B01AC01C501B40134D46C877D878E87A3
S11301809F87688B798B8A8B9B8BC886D986EA86F6
S1130190FB86DF91CF91FF90EF90DF90CF90BF90DF
S11301A0AF909F908F900895CF92DF92EF92FF923D
S11301B0B3DFC0908E01D0908F01E0909001F09059
S11301C0910120E030E040E050ECC701B601B7D522
S11301D088238CF460918601709187018091880155
S11301E090918901A7019601505863D4562F472F47
S11301F0382F292F04C050E04CE33CE126E4652F5E
S1130200742F832F922FFF90EF90DF90CF9008955B
S1130210CF92DF92EF92FF92C7DF6B017C0120E067
S113022030E0A90142D4882324F483E080939A0126
S11302302DC020E030E040E85FE3C701B60135D4CB
S1130240882364F420E030E0A901C701B60177D522
S1130250882324F082E080939A0118C020E030E0E3
S113026040E85FE3C701B6016AD588236CF020E05B
S113027030E040E450E4C701B60117D4882324F4E5
S113028081E080939A0102C010929A01C092960173
S1130290D0929701E0929801F0929901FF90EF902B
S11302A0DF90CF900895DC01CB01880F991FAA1F1E
S11302B0BB1F880F991FAA1FBB1F9C01AD01220FF2
S11302C0331F441F551F220F331F441F551F60E067
S11302D070E081EE90E09AD521503109309390007E
S11302E029B91BB888E98AB986E0809395000895F6
S11302F0DC01CB01880F991FAA1FBB1F880F991F10
S1130300AA1FBB1F9C01AD01220F331F441F551FA1
S1130310220F331F441F551F60E070E081EE90E010
S113032075D521503109309398002093990010928B
S11303309B0088E980939A0086E080939D0008954D
S1130340EAE9F0E08081806280830895EAE9F0E0E0
S113035080818F7D808308958AB180628AB90895EF
S11303608AB18F7D8AB9089560E076E980E090E0F3
S1130370BFDF10927B0110923A0110923901109262
S113038038010895E2E8F1E051814081848195814A
S1130390268137811F925F931F924F933F932F9330
S11303A09F938F9380E091E09F938F938BE391E0F1
S11303B09F938F934DD58093390110923A01C0DFFA
S11303C08DB79EB70C960FB6F8949EBF0FBE8DBF27
S11303D008958A3021F481E0809338010895809152
S11303E07B018F3318F48F5F80937B010895E09134
S11303F03A0180913901E81758F481E08E0F809317
S11304003A01F0E0E55CFE4F808180939C00089502
S11304109DDF80E4EBE3F1E0DF011D928A95E9F7CB
S11304201092390108951F920F920FB60F92112462
S11304300BB60F922F933F934F935F936F937F93DA
S11304408F939F93AF93BF93EF93FF9380919C00FF
S1130450C0DFFF91EF91BF91AF919F918F917F91F9
S11304606F915F914F913F912F910F900BBE0F9021
S11304700FBE0F901F9018951F920F920FB60F92F8
S113048011240BB60F922F933F934F935F936F9367
S11304907F938F939F93AF93BF93EF93FF9398B3FF
S11304A081E0892788BBA3DFFF91EF91BF91AF91D2
S11304B09F918F917F916F915F914F913F912F9178
S11304C00F900BBE0F900FBE0F901F90189560E019
S11304D076E980E090E0E7DE10927F010895CF9303
S11304E0DF93E2E8F1E081819281891304C0909165
S11304F09A01992361F0EDE7F1E08083C2E8D1E04D
S1130500888D818310927C0127DF89818A83DF9122
S1130510CF910895CF93DF93E0917F0191E09E0FF7
S113052090937F01F0E0E058FE4F808380917F013B
S11305308230B8F010927F01E0E8F1E0618170E070
S1130540762F66278081682BC2E8D1E0072E000C45
S1130550880B990B44D36C837D838E839F8381E0C6
S1130560898FDF91CF910895E0917C0181E08E0F16
S113057080937C01F0E0E358FE4F80818CB9809138
S11305807C01823018F010927C01EACE08951F920B
S11305900F920FB60F9211240BB60F922F933F9325
S11305A04F935F936F937F938F939F93AF93BF9377
S11305B0EF93FF938CB1AEDFFF91EF91BF91AF91B9
S11305C09F918F917F916F915F914F913F912F9167
S11305D00F900BBE0F900FBE0F901F9018951F9297
S11305E00F920FB60F9211240BB60F922F933F93D5
S11305F04F935F936F937F938F939F93AF93BF9327
S1130600EF93FF93B1DFFF91EF91BF91AF919F9172
S11306108F917F916F915F914F913F912F910F90A7
S11306200BBE0F900FBE0F901F90189584B7806873
S113063084BF84B7806884BF0895CF93DF93CDB718
S1130640DEB7A0970FB6F894DEBF0FBECDBFEEDFC6
S1130650A3D18FEF8ABBE4E6F0E0808187608083DA
S1130660E5E6F0E080818B7F808380818D7F8083CD
S113067080818160808326EF2A95F1F788E38BBB24
S113068086EF8A95F1F780818E7F808384E006C0AF
S1130690E6E6FEE03197F1F70000892F9FEF980F0F
S11306A08111F6CFE5E6F0E080818B7F8083808145
S11306B08D7F808380818160808326EF2A95F1F786
S11306C088E38BBB86EF8A95F1F780818E7F8083E8
S11306D084E006C0E6E6FEE03197F1F70000892FDA
S11306E09FEF980F8111F6CFE5E6F0E080818B7FD4
S11306F0808380818D7F808380818160808326EFE9
S11307002A95F1F788E38BBB86EF8A95F1F7808110
S11307108E7F808384E006C0E6E6FEE03197F1F741
S11307200000892F9FEF980F8111F6CFE5E6F0E0E6
S113073080818B7F808380818D7F808380818160B5
S1130740808326EF2A95F1F78EE08BBB86EF8A959E
S1130750F1F780818E7F808382E006C0E6E6FEE0CA
S11307603197F1F70000892F9FEF980F8111F6CF91
S1130770E5E6F0E080818B7F808380818D7F8083BC
S113078080818160808326EF2A95F1F786E08BBB18
S113079086EF8A95F1F780818E7F808382E006C0A0
S11307A0E6E6FEE03197F1F70000892F9FEF980FFE
S11307B08111F6CFE5E6F0E080818B7F8083808134
S11307C08D7F808380818160808326EF2A95F1F775
S11307D081E08BBB86EF8A95F1F780818E7F8083E1
S11307E082E006C0E6E6FEE03197F1F70000892FCB
S11307F09FEF980F8111F6CF6ADEB6DDCBD07894E7
S1130800C1DDFFEF2FE786E1F15020408040E1F7A2
S113081000C0000080919D018111BAC080919B01AC
S11308208823C1F3F5DC02E811E0F801118E4DDCF8
S113083056DEE5E6F0E080818B7F808380818D7FCA
S1130840808380818160808326EF2A95F1F780E898
S11308508BBB86EF8A95F1F780818E7F8083F801C8
S113086064817581868197818CD17F936F9382E2B5
S113087091E09F938F938E010F5F1F4F1F930F93F0
S1130880E7D20F900F900F900F900F900F90D80118
S113089022C0119681E006C0E6E6FEE03197F1F74A
S11308A00000822F2FEF280F8111F6CFE5E6F0E04C
S11308B080818460808380818D7F8083808181605A
S11308C0808326EF2A95F1F79BBB86EF8A95F1F793
S11308D080818E7F80839C919111DBCFE5E6F0E0EF
S11308E080818B7F808380818D7F80838081816004
S11308F0808396EF9A95F1F780EC8BBB26EF2A95CF
S1130900F1F780818E7F80836091960170919701C9
S1130910809198019091990134D17F936F938EE2E5
S113092091E09F938F938E010F5F1F4F1F930F933F
S11309308FD20F900F900F900F900F900F90D801BF
S113094022C0119681E006C0E6E6FEE03197F1F799
S11309500000822F2FEF280F8111F6CFE5E6F0E09B
S113096080818460808380818D7F808380818160A9
S1130970808326EF2A95F1F79BBB86EF8A95F1F7E2
S113098080818E7F80839C919111DBCFFBDC42CFF1
S113099002D040CF08950895E2E8F1E0108284E0A7
S11309A08183828313821486158616861786108A9D
S11309B0118A128A138A108E148215821682178263
S11309C080E090E0A0E8BFEB848B958BA68BB78B7F
S11309D01086118612861386118E128E138E089538
S11309E05058BB27AA270ED070C161D130F066D110
S11309F020F031F49F3F11F41EF456C10EF4E0953B
S1130A00E7FB4CC1E92F72D180F3BA176207730771
S1130A108407950718F071F49EF58AC10EF4E095E9
S1130A200B2EBA2FA02D0B01B90190010C01CA01A4
S1130A30A0011124FF27591B99F0593F50F4503E4F
S1130A4068F11A16F040A22F232F342F4427585F41
S1130A50F3CF469537952795A795F0405395C9F759
S1130A607EF41F16BA0B620B730B840BBAF0915011
S1130A70A1F0FF0FBB1F661F771F881FC2F70EC0B0
S1130A80BA0F621F731F841F48F487957795679583
S1130A90B795F7959E3F08F0B3CF9395880F08F06C
S1130AA09927EE0F979587950895D4D008F481E09F
S1130AB008950CD00AC102D140F0F9D030F021F4ED
S1130AC05F3F19F0EBC0511134C1EEC00FD198F360
S1130AD09923C9F35523B1F3951B550BBB27AA27BB
S1130AE062177307840738F09F5F5F4F220F331F2D
S1130AF0441FAA1FA9F333D00E2E3AF0E0E830D0F9
S1130B0091505040E695001CCAF729D0FE2F27D0FB
S1130B10660F771F881FBB1F261737074807AB07C9
S1130B20B0E809F0BB0B802DBF01FF2793585F4F3E
S1130B302AF09E3F510568F0B1C0FBC05F3FECF363
S1130B40983EDCF3869577956795B795F7959F5F03
S1130B50C9F7880F911D9695879597F90895E1E057
S1130B60660F771F881FBB1F621773078407BA07B6
S1130B7020F0621B730B840BBA0BEE1F88F7E09511
S1130B800895BCD088F09F5790F0B92F9927B7519A
S1130B90A0F0D1F0660F771F881F991F1AF0BA953D
S1130BA0C9F712C0B13081F0C3D0B1E00895C0C01C
S1130BB0672F782F8827B85F39F0B93FCCF3869533
S1130BC077956795B395D9F73EF490958095709590
S1130BD061957F4F8F4F9F4F0895E89409C097FB0D
S1130BE03EF490958095709561957F4F8F4F9F4F00
S1130BF09923A9F0F92F96E9BB279395F695879544
S1130C0077956795B795F111F8CFFAF4BB0F11F406
S1130C1060FF1BC06F5F7F4F8F4F9F4F16C08823AD
S1130C2011F096E911C0772321F09EE8872F762FE3
S1130C3005C0662371F096E8862F70E060E02AF024
S1130C409A95660F771F881FDAF7880F9695879510
S1130C5097F90895990F0008550FAA0BE0E8FEEFE5
S1130C6016161706E807F907C0F012161306E4076C
S1130C70F50798F0621B730B840B950B39F40A2665
S1130C8061F0232B242B252B21F408950A2609F443
S1130C90A140A6958FEF811D811D089597F99F6747
S1130CA080E870E060E008959FEF80EC08950024F0
S1130CB00A941616170618060906089500240A94BD
S1130CC012161306140605060895092E0394000C43
S1130CD011F4882352F0BB0F40F4BF2B11F460FFD2
S1130CE004C06F5F7F4F8F4F9F4F089557FD9058FB
S1130CF0440F551F59F05F3F71F04795880F97FBDC
S1130D00991F61F09F3F79F0879508951216130695
S1130D101406551FF2CF4695F1DF08C016161706C4
S1130D201806991FF1CF86957105610508940895F9
S1130D30E894BB2766277727CB0197F908958ADFC4
S1130D4008F48FEF08950BD0C0CFB1DF28F0B6DFE1
S1130D5018F0952309F0A2CFA7CF1124EACFC6DF5C
S1130D60A0F3959FD1F3950F50E0551F629FF001BA
S1130D70729FBB27F00DB11D639FAA27F00DB11D13
S1130D80AA1F649F6627B00DA11D661F829F22279C
S1130D90B00DA11D621F739FB00DA11D621F839F23
S1130DA0A00D611D221F749F3327A00D611D231FF9
S1130DB0849F600D211D822F762F6A2F11249F5747
S1130DC050408AF0E1F088234AF0EE0FFF1FBB1F6A
S1130DD0661F771F881F91505040A9F79E3F510509
S1130DE070F05CCFA6CF5F3FECF3983EDCF38695C2
S1130DF077956795B795F795E7959F5FC1F7FE2BB4
S1130E00880F911D9695879597F90895A1E21A2E5A
S1130E10AA1BBB1BFD010DC0AA1FBB1FEE1FFF1F9A
S1130E20A217B307E407F50720F0A21BB30BE40BEA
S1130E30F50B661F771F881F991F1A9469F7609531
S1130E407095809590959B01AC01BD01CF010895EB
S1130E500F931F93CF93DF93CDB7DEB72E970FB6C3
S1130E60F894DEBF0FBECDBF0D891E8986E08C834A
S1130E701A8309838FEF9FE79E838D83AE01475EBC
S1130E805F4F6F89788DCE01019610D0EF81F88580
S1130E90E00FF11F10822E960FB6F894DEBF0FBE3E
S1130EA0CDBFDF91CF911F910F9108952F923F9263
S1130EB04F925F926F927F928F929F92AF92BF9266
S1130EC0CF92DF92EF92FF920F931F93CF93DF9312
S1130ED0CDB7DEB72B970FB6F894DEBF0FBECDBFEC
S1130EE06C017B018A01FC0117821682838181FFD8
S1130EF0BFC1CE0101963C01F6019381F70193FD38
S1130F00859193FF81917F01882309F4ADC18532D6
S1130F1039F493FD859193FF81917F01853221F40A
S1130F20B60190E0D6D1E8CF912C212C312CFFE1F1
S1130F30F315D8F08B3279F038F4803279F08332BB
S1130F40A1F4232D20611DC08D3261F0803369F43A
S1130F50232D216016C0832D8260382EE32DE4609A
S1130F603E2E2AC0F32DF8601DC037FC2DC020EDA5
S1130F70280F2A3040F08E32B9F436FC75C1232D87
S1130F802064322E19C036FE06C08AE0989E200DD9
S1130F901124922E11C0EAE02E9E200D1124222E3F
S1130FA0F32DF0623F2E08C08C3621F4832D806827
S1130FB0382E02C0883641F4F70193FD859193FFE2
S1130FC081917F018111B3CF982F9F7D95549330E8
S1130FD028F40C5F1F4F9FE399830DC0833631F0D3
S1130FE0833771F0833509F055C020C0F801808142
S1130FF089830E5F1F4F88248394912C530112C060
S11310002801F2E04F0E511CF801A080B18036FE99
S113101003C0692D70E002C06FEF7FEFC5014ED1B0
S11310204C018201F32DFF773F2E15C0280122E0E9
S1131030420E511CF801A080B18036FE03C0692D18
S113104070E002C06FEF7FEFC5012DD14C01F32D8D
S1131050F0683F2E820133FC19C0822D90E088167F
S11310609906A0F4B60180E290E033D12A94F5CF3A
S1131070F50137FC859137FE81915F01B60190E05F
S113108028D121102A9421E0821A91088114910414
S113109079F7E1C0843611F0893639F5F80137FE65
S11310A007C060817181828193810C5F1F4F08C0EA
S11310B060817181072E000C880B990B0E5F1F4F06
S11310C0F32DFF763F2E97FF09C09095809570957C
S11310D061957F4F8F4F9F4FF0683F2E2AE030E09D
S11310E0A30133D1882E861844C0853731F4232DCB
S11310F02F7EB22E2AE030E025C0932D997FB92EA1
S11311008F36C1F018F4883579F0AEC0803719F005
S1131110883721F0A9C0E92FE061BE2EB4FE0DC0CE
S1131120FB2DF460BF2E09C034FE0AC0292F2660AF
S1131130B22E06C028E030E005C020E130E002C055
S113114020E132E0F801B7FE07C06081718182813D
S113115093810C5F1F4F06C06081718180E090E035
S11311600E5F1F4FA301F1D0882E8618FB2DFF7749
S11311703F2E36FE0DC0232D2E7FA22E891458F447
S113118034FE0BC032FC09C0832D8E7EA82E05C010
S1131190B82CA32C03C0B82C01C0B92CA4FE0FC0DA
S11311A0FE01E80DF11D8081803321F49A2D997E92
S11311B0A92E09C0A2FE06C0B394B39404C08A2D1C
S11311C0867809F0B394A3FC10C0A0FE06C0B21444
S11311D080F4280C922C9B180DC0B21458F4B6015C
S11311E080E290E076D0B394F8CFB21418F42B18C0
S11311F002C0982C212CA4FE0FC0B60180E390E01D
S113120068D0A2FE16C0A1FC03C088E790E002C02B
S113121088E590E0B6010CC08A2D867851F0A1FED5
S113122002C08BE201C080E2A7FC8DE2B60190E02F
S113123050D0891430F4B60180E390E04AD09A94F7
S1131240F8CF8A94F301E80DF11D8081B60190E096
S113125040D08110F6CF222009F44ECEB60180E2B0
S113126090E037D02A94F7CFF6018681978102C0A7
S11312708FEF9FEF2B960FB6F894DEBF0FBECDBF56
S1131280DF91CF911F910F91FF90EF90DF90CF905E
S1131290BF90AF909F908F907F906F905F904F9092
S11312A03F902F900895FC0105906150704001100B
S11312B0D8F7809590958E0F9F1F0895FC0161507B
S11312C0704001900110D8F7809590958E0F9F1F64
S11312D008950F931F93CF93DF93FB01238121FD87
S11312E003C08FEF9FEF2CC022FF16C046815781A9
S11312F0248135814217530744F4A081B1819D01B3
S11313002F5F3F4F318320838C93268137812F5F5A
S11313103F4F3783268314C08B01EC01FB0100840B
S1131320F185E02D0995892BE1F6D80116968D916A
S11313309C911797019617969C938E931697CE01BE
S1131340DF91CF911F910F910895FA01AA272830B8
S113135051F1203181F1E8946F936E7F6E5F7F4F7E
S11313608F4F9F4FAF4FB1E03ED0B4E03CD0670FFA
S1131370781F891F9A1FA11D680F791F8A1F911D4D
S1131380A11D6A0F711D811D911DA11D20D009F49D
S113139068943F912AE0269F11243019305D3193DF
S11313A0DEF6CF010895462F4770405D4193B3E0C8
S11313B00FD0C9F7F6CF462F4F70405D4A3318F06F
S11313C0495D31FD4052419302D0A9F7EACFB4E020
S11313D0A6959795879577956795BA95C9F70097D8
S11313E06105710508959B01AC010A2E0694579579
S11313F0479537952795BA95C9F7620F731F841FD0
S10D1400951FA01D0895F894FFCF76
S113140A53544154453A554C5452413D2533643B57
S113141A4D4F44453D25643B4D4F544F523D256441
S113142A0A00446973743D25336420636D0074743F
S10B143A633D253464207300B6
S9030000FC
