S02000004D494E495F5344565F53595354454D5F4D41494E5F4D43552E737265637F
S113000045C0000060C000005EC000005CC000008D
S11300105AC0000058C0000056C0000054C0000080
S113002052C0000050C000004EC000004CC0000090
S11300304AC0000048C0000046C0000044C00000A0
S113004042C0000040C00000ECC000003CC0000002
S11300503AC0000038C0000036C0000034C00000C0
S113006032C0000030C000002EC000002CC00000D0
S11300702AC0000028C0000037C100005EC1000093
S113008022C0000020C000001EC0000011241FBEBA
S1130090CFEFD0E1DEBFCDBF11E0A0E0B1E0E0ECF6
S11300A0FCE000E00BBF02C007900D92AE30B10738
S11300B0D9F721E0AEE0B1E001C01D92AD31B20745
S11300C0E1F762D1FBC59CCF809118019091190191
S11300D08531910538F4E4E1F1E083E0818382E045
S11300E080830895C39750F4E4E1F1E082E08183D2
S11300F080818230F1F010921401089580911401EE
S11301008230A1F080911601823021F481E0809345
S1130110150109C0833021F482E08093150103C0E6
S113012084E08093150110921401089583E0809374
S113013015010895E4E1F1E0108283E081830895DC
S1130140DC01CB01880F991FAA1FBB1F880F991FC1
S1130150AA1FBB1F9C01AD01220F331F441F551F53
S1130160220F331F441F551F60E070E081EE90E0C2
S1130170A8D2215031093093900029B91BB888E9DD
S11301808AB986E0809395000895DC01CB01880F3D
S1130190991FAA1FBB1F880F991FAA1FBB1F9C0171
S11301A0AD01220F331F441F551F220F331F441F5D
S11301B0551F60E070E081EE90E083D22150310958
S11301C0309398002093990010929B0088E98093C3
S11301D09A0086E080939D000895EAE9F0E080812A
S11301E0806280830895EAE9F0E080818F7D8083D6
S11301F0089560E076E980E090E0A2DF10920F01BC
S113020010920E0108958A3021F481E080930E014A
S1130210089580910F018F3318F48F5F80930F013D
S113022008951F920F920FB60F9211240BB60F92DE
S11302302F933F934F935F936F937F938F939F93EA
S1130240AF93BF93EF93FF938CB1DDDFFF91EF91F9
S1130250BF91AF919F918F917F916F915F914F91DA
S11302603F912F910F900BBE0F900FBE0F901F90D8
S1130270189560E076E980E090E087DF1092110144
S11302800895E4E1F1E081819281891739F0809346
S11302901001A3DFE4E1F1E0818182830895E0911C
S11302A0110191E09E0F90931101F0E0EE5EFE4F7C
S11302B0808380911101823080F010921101E2E17B
S11302C0F1E0818190E0982F88272081822BE4E15E
S11302D0F1E09583848381E0868308958091100101
S11302E080939C0080CF08951F920F920FB60F92B7
S11302F011240BB60F922F933F934F935F936F93F9
S11303007F938F939F93AF93BF93EF93FF938091CA
S11303109C00C5DFFF91EF91BF91AF919F918F91A9
S11303207F916F915F914F913F912F910F900BBEF1
S11303300F900FBE0F901F9018951F920F920FB63B
S11303400F9211240BB60F922F933F934F935F9309
S11303506F937F938F939F93AF93BF93EF93FF9389
S1130360BDDFFF91EF91BF91AF919F918F917F91ED
S11303706F915F914F913F912F910F900BBE0F9012
S11303800FBE0F901F901895CF93DF93CDB7DEB7B4
S1130390A0970FB6F894DEBF0FBECDBF85D18FEF07
S11303A08ABBE4E6F0E0808187608083E5E6F0E0E4
S11303B080818B7F808380818D7F80838081816039
S11303C0808386EF8A95F1F788E38BBB86EF8A9565
S11303D0F1F780818E7F808384E006C0E6E6FEE04C
S11303E03197F1F70000892F9FEF980F8111F6CF15
S11303F0E5E6F0E080818B7F808380818D7F808340
S113040080818160808386EF8A95F1F788E38BBBD6
S113041086EF8A95F1F780818E7F808384E006C021
S1130420E6E6FEE03197F1F70000892F9FEF980F81
S11304308111F6CFE5E6F0E080818B7F80838081B7
S11304408D7F808380818160808386EF8A95F1F738
S113045088E38BBB86EF8A95F1F780818E7F80835A
S113046084E006C0E6E6FEE03197F1F70000892F4C
S11304709FEF980F8111F6CFE5E6F0E080818B7F46
S1130480808380818D7F808380818160808386EFFB
S11304908A95F1F78EE08BBB86EF8A95F1F7808120
S11304A08E7F808382E006C0E6E6FEE03197F1F7B6
S11304B00000892F9FEF980F8111F6CFE5E6F0E059
S11304C080818B7F808380818D7F80838081816028
S11304D0808386EF8A95F1F786E08BBB86EF8A9559
S11304E0F1F780818E7F808382E006C0E6E6FEE03D
S11304F03197F1F70000892F9FEF980F8111F6CF04
S1130500E5E6F0E080818B7F808380818D7F80832E
S113051080818160808386EF8A95F1F781E08BBBCF
S113052086EF8A95F1F780818E7F808382E006C012
S1130530E6E6FEE03197F1F70000892F9FEF980F70
S11305408111F6CF96DE55DEADD0789480911C01F2
S11305508111A6C080911A018823C1F380911401EE
S1130560823041F4809118019091190184369105EB
S113057008F0E0DD10921A01A7DD83DEE5E6F0E085
S113058080818B7F808380818D7F80838081816067
S1130590808386EF8A95F1F780E88BBB86EF8A9596
S11305A0F1F780818E7F8083A0E0B1E022C01196B4
S11305B081E006C0E6E6FEE03197F1F70000822F05
S11305C02FEF280F8111F6CFE5E6F0E080818460FB
S11305D0808380818D7F808380818160808386EFAA
S11305E08A95F1F79BBB86EF8A95F1F780818E7F20
S11305F080839C919111DBCFE4E1F1E085818F93BD
S113060084818F9386E091E09F938F938E010F5F97
S11306101F4F1F930F9377D0E5E6F0E080818B7F27
S1130620808380818D7F808380818160808386EF59
S11306308A95F1F780EC8BBB86EF8A95F1F7808180
S11306408E7F80830F900F900F900F900F900F90DC
S1130650D80122C0119681E006C0E6E6FEE031979B
S1130660F1F70000822F2FEF280F8111F6CFE5E676
S1130670F0E080818460808380818D7F80838081AD
S11306808160808386EF8A95F1F79BBB86EF8A951C
S1130690F1F780818E7F80839C919111DBCF56CFBF
S11306A002D054CF08950895E4E1F1E0108284E08B
S11306B081838283138215821482168217821086A4
S11306C00895A1E21A2EAA1BBB1BFD010DC0AA1F8F
S11306D0BB1FEE1FFF1FA217B307E407F50720F0A7
S11306E0A21BB30BE40BF50B661F771F881F991F22
S11306F01A9469F760957095809590959B01AC016B
S1130700BD01CF0108950F931F93CF93DF93CDB70E
S1130710DEB72E970FB6F894DEBF0FBECDBF0D899E
S11307201E8986E08C831A8309838FEF9FE79E835B
S11307308D83AE01475E5F4F6F89788DCE01019640
S113074010D0EF81F885E00FF11F10822E960FB6BE
S1130750F894DEBF0FBECDBFDF91CF911F910F91F3
S113076008952F923F924F925F926F927F928F9251
S11307709F92AF92BF92CF92DF92EF92FF920F932C
S11307801F93CF93DF93CDB7DEB72B970FB6F894B3
S1130790DEBF0FBECDBF6C017B018A01FC01178255
S11307A01682838181FFBFC1CE0101963C01F6010F
S11307B09381F70193FD859193FF81917F018823B4
S11307C009F4ADC1853239F493FD859193FF81918C
S11307D07F01853221F4B60190E0D6D1E8CF912C87
S11307E0212C312CFFE1F315D8F08B3279F038F459
S11307F0803279F08332A1F4232D20611DC08D3223
S113080061F0803369F4232D216016C0832D82604A
S1130810382EE32DE4603E2E2AC0F32DF8601DC06F
S113082037FC2DC020ED280F2A3040F08E32B9F469
S113083036FC75C1232D2064322E19C036FE06C045
S11308408AE0989E200D1124922E11C0EAE02E9E7B
S1130850200D1124222EF32DF0623F2E08C08C3679
S113086021F4832D8068382E02C0883641F4F701C4
S113087093FD859193FF81917F018111B3CF982FCF
S11308809F7D9554933028F40C5F1F4F9FE3998309
S11308900DC0833631F0833771F0833509F055C0CC
S11308A020C0F801808189830E5F1F4F88248394C0
S11308B0912C530112C02801F2E04F0E511CF80193
S11308C0A080B18036FE03C0692D70E002C06FEFD6
S11308D07FEFC5014ED14C018201F32DFF773F2EEE
S11308E015C0280122E0420E511CF801A080B180FD
S11308F036FE03C0692D70E002C06FEF7FEFC501C3
S11309002DD14C01F32DF0683F2E820133FC19C028
S1130910822D90E088169906A0F4B60180E290E05A
S113092033D12A94F5CFF50137FC859137FE8191B7
S11309305F01B60190E028D121102A9421E0821AA7
S113094091088114910479F7E1C0843611F0893655
S113095039F5F80137FE07C0608171818281938186
S11309600C5F1F4F08C060817181072E000C880B3B
S1130970990B0E5F1F4FF32DFF763F2E97FF09C093
S113098090958095709561957F4F8F4F9F4FF0683C
S11309903F2E2AE030E0A30133D1882E861844C0CC
S11309A0853731F4232D2F7EB22E2AE030E025C086
S11309B0932D997FB92E8F36C1F018F4883579F0CC
S11309C0AEC0803719F0883721F0A9C0E92FE06163
S11309D0BE2EB4FE0DC0FB2DF460BF2E09C034FE44
S11309E00AC0292F2660B22E06C028E030E005C0D8
S11309F020E130E002C020E132E0F801B7FE07C098
S1130A0060817181828193810C5F1F4F06C0608178
S1130A10718180E090E00E5F1F4FA301F1D0882E1A
S1130A208618FB2DFF773F2E36FE0DC0232D2E7F1B
S1130A30A22E891458F434FE0BC032FC09C0832D55
S1130A408E7EA82E05C0B82CA32C03C0B82C01C0E0
S1130A50B92CA4FE0FC0FE01E80DF11D8081803386
S1130A6021F49A2D997EA92E09C0A2FE06C0B39442
S1130A70B39404C08A2D867809F0B394A3FC10C003
S1130A80A0FE06C0B21480F4280C922C9B180DC052
S1130A90B21458F4B60180E290E076D0B394F8CF63
S1130AA0B21418F42B1802C0982C212CA4FE0FC0E9
S1130AB0B60180E390E068D0A2FE16C0A1FC03C09A
S1130AC088E790E002C088E590E0B6010CC08A2D6A
S1130AD0867851F0A1FE02C08BE201C080E2A7FC3F
S1130AE08DE2B60190E050D0891430F4B60180E371
S1130AF090E04AD09A94F8CF8A94F301E80DF11D5E
S1130B008081B60190E040D08110F6CF222009F414
S1130B104ECEB60180E290E037D02A94F7CFF601AA
S1130B208681978102C08FEF9FEF2B960FB6F894C2
S1130B30DEBF0FBECDBFDF91CF911F910F91FF900C
S1130B40EF90DF90CF90BF90AF909F908F907F9069
S1130B506F905F904F903F902F900895FC01059007
S1130B60615070400110D8F7809590958E0F9F1FAB
S1130B700895FC016150704001900110D8F78095F0
S1130B8090958E0F9F1F08950F931F93CF93DF931C
S1130B90FB01238121FD03C08FEF9FEF2CC022FFB7
S1130BA016C046815781248135814217530744F486
S1130BB0A081B1819D012F5F3F4F318320838C93AE
S1130BC0268137812F5F3F4F3783268314C08B01E3
S1130BD0EC01FB010084F185E02D0995892BE1F6F8
S1130BE0D80116968D919C911797019617969C9310
S1130BF08E931697CE01DF91CF911F910F91089597
S1130C00FA01AA27283051F1203181F1E8946F9339
S1130C106E7F6E5F7F4F8F4F9F4FAF4FB1E03ED0DF
S1130C20B4E03CD0670F781F891F9A1FA11D680F7D
S1130C30791F8A1F911DA11D6A0F711D811D911DB0
S1130C40A11D20D009F468943F912AE0269F112425
S1130C503019305D3193DEF6CF010895462F477089
S1130C60405D4193B3E00FD0C9F7F6CF462F4F70E4
S1130C70405D4A3318F0495D31FD4052419302D042
S1130C80A9F7EACFB4E0A6959795879577956795E8
S1130C90BA95C9F700976105710508959B01AC01E8
S1130CA00A2E06945795479537952795BA95C9F70F
S1130CB0620F731F841F951FA01D0895F894FFCF22
S1110CC0446973743D0025336420636D0000A5
S9030000FC
