:1000000045C0000060C000005EC000005CC0000091
:100010005AC0000058C0000056C0000054C0000084
:1000200052C0000050C000004EC000004CC0000094
:100030004AC0000048C0000046C0000044C00000A4
:1000400042C0000040C00000C5C1000055C2000011
:100050003AC0000038C0000036C0000034C00000C4
:1000600032C0000030C000002EC000002CC00000D4
:100070002AC0000028C000001FC1000046C10000C7
:1000800022C0000020C000001EC0000011241FBEBE
:10009000CFEFD0E1DEBFCDBF11E0A0E0B1E0E2EBF9
:1000A000FEE000E00BBF02C007900D92AA33B1073B
:1000B000D9F721E0AAE3B1E001C01D92A239B2074D
:1000C000E1F748D2F4C69CCF8091860190918701D8
:1000D0008531910538F4E2E8F1E083E0818382E044
:1000E00080830895C39750F4E2E8F1E082E08183D1
:1000F00080818230F1F01092820108958091820116
:100100008230A1F080918401823021F481E08093DB
:10011000830109C0833021F482E08093830103C00E
:1001200084E08093830110928201089583E080939C
:1001300083010895E2E8F1E0108283E0818308956D
:10014000DC01CB01880F991FAA1FBB1F880F991FC5
:10015000AA1FBB1F9C01AD01220F331F441F551F57
:10016000220F331F441F551F60E070E081EE90E0C6
:10017000A1D3215031093093900029B91BB888E9E7
:100180008AB986E0809395000895DC01CB01880F41
:10019000991FAA1FBB1F880F991FAA1FBB1F9C0175
:1001A000AD01220F331F441F551F220F331F441F61
:1001B000551F60E070E081EE90E07CD32150310962
:1001C000309398002093990010929B0088E98093C7
:1001D0009A0086E080939D000895EAE9F0E080812E
:1001E000806280830895EAE9F0E080818F7D8083DA
:1001F00008958AB180628AB908958AB18F7D8AB9DB
:10020000089560E076E980E090E0BFDF10927D0124
:1002100010923C0110923B0110923A010895E2E8DD
:10022000F1E0918180811F929F931F928F9385812E
:100230008F9384818F9380E091E09F938F938DE3E0
:1002400091E09F938F9358D380933B0110923C0190
:10025000C4DF8DB79EB70A960FB6F8949EBF0FBE47
:100260008DBF08958A3021F481E080933A0108958A
:1002700080917D018F3318F48F5F80937D01089505
:10028000E0913C0180913B01E81758F481E08E0F2A
:1002900080933C01F0E0E35CFE4F808180939C0002
:1002A0000895A1DF80E4EDE3F1E0DF011D928A957E
:1002B000E9F710923B0108951F920F920FB60F922B
:1002C00011240BB60F922F933F934F935F936F932D
:1002D0007F938F939F93AF93BF93EF93FF938091FF
:1002E0009C00C0DFFF91EF91BF91AF919F918F91E3
:1002F0007F916F915F914F913F912F910F900BBE26
:100300000F900FBE0F901F9018951F920F920FB66F
:100310000F9211240BB60F922F933F934F935F933D
:100320006F937F938F939F93AF93BF93EF93FF93BD
:1003300098B381E0892788BBA3DFFF91EF91BF913C
:10034000AF919F918F917F916F915F914F913F916D
:100350002F910F900BBE0F900FBE0F901F9018950E
:1003600060E076E980E090E0EBDE10927F01089596
:10037000E2E8F1E081819281891739F080937E0172
:1003800038DFE2E8F1E0818182830895E0917F0126
:1003900091E09E0F90937F01F0E0E058FE4F808344
:1003A00080917F01823080F010927F01E0E8F1E0DF
:1003B000818190E0982F88272081822BE2E8F1E06C
:1003C0009583848381E08587089580917E018CB92F
:1003D00014CF08951F920F920FB60F9211240BB6EF
:1003E0000F92EF92FF921F932F933F934F935F9340
:1003F0006F937F938F939F93AF93BF93EF93FF93ED
:10040000CF93DF93CDB7DEB76097DEBFCDBF1CB112
:10041000E5E6F0E080818B7F808380818D7F808323
:1004200080818160808380E18A95F1F700C080E857
:100430008BBB90E19A95F1F700C080818E7F80831D
:100440001F921F9382E291E09F938F93FE0131965A
:100450007F01FF93EF9350D20F900F900F900F906A
:100460000F900F90D70125C0119681E007C0E9EFEA
:10047000F0E03197F1F700C00000822F2FEF280F36
:100480008111F5CFE5E6F0E0808184608083808192
:100490008D7F808380818160808380E18A95F1F700
:1004A00000C09BBB90E19A95F1F700C080818E7FE0
:1004B00080839C919111D8CF812F68DF60960FB611
:1004C000F894DEBF0FBECDBFDF91CF91FF91EF91CA
:1004D000BF91AF919F918F917F916F915F914F915C
:1004E0003F912F911F91FF90EF900F900BBE0F90B7
:1004F0000FBE0F901F9018951F920F920FB60F927C
:1005000011240BB60F922F933F934F935F936F93EA
:100510007F938F939F93AF93BF93EF93FF9355DF99
:10052000FF91EF91BF91AF919F918F917F916F91CB
:100530005F914F913F912F910F900BBE0F900FBE87
:100540000F901F90189584B7806884BF84B7806827
:1005500084BF0895CF93DF93CDB7DEB7A0970FB6D2
:10056000F894DEBF0FBECDBFEEDF90D18FEF8ABB18
:10057000E4E6F0E0808187608083E5E6F0E080815A
:100580008B7F808380818D7F808380818160808369
:1005900026EF2A95F1F788E38BBB86EF8A95F1F772
:1005A00080818E7F808384E006C0E6E6FEE031979E
:1005B000F1F70000892F9FEF980F8111F6CFE5E644
:1005C000F0E080818B7F808380818D7F808380813C
:1005D0008160808326EF2A95F1F788E38BBB86EF55
:1005E0008A95F1F780818E7F808384E006C0E6E6FD
:1005F000FEE03197F1F70000892F9FEF980F8111EE
:10060000F6CFE5E6F0E080818B7F808380818D7F6F
:10061000808380818160808326EF2A95F1F788E3CB
:100620008BBB86EF8A95F1F780818E7F808384E093
:1006300006C0E6E6FEE03197F1F70000892F9FEF54
:10064000980F8111F6CFE5E6F0E080818B7F808303
:1006500080818D7F808380818160808326EF2A95D1
:10066000F1F78EE08BBB86EF8A95F1F780818E7F64
:10067000808382E006C0E6E6FEE03197F1F70000F5
:10068000892F9FEF980F8111F6CFE5E6F0E080818A
:100690008B7F808380818D7F808380818160808358
:1006A00026EF2A95F1F786E08BBB86EF8A95F1F766
:1006B00080818E7F808382E006C0E6E6FEE031978F
:1006C000F1F70000892F9FEF980F8111F6CFE5E633
:1006D000F0E080818B7F808380818D7F808380812B
:1006E0008160808326EF2A95F1F781E08BBB86EF4E
:1006F0008A95F1F780818E7F808382E006C0E6E6EE
:10070000FEE03197F1F70000892F9FEF980F8111DC
:10071000F6CF26DE76DDB8D0789481DDFFEF2FE7C7
:1007200086E1F15020408040E1F700C00000809158
:1007300091018111A7C080918F018823C1F380911D
:100740008201823041F48091860190918701843644
:10075000910508F0EFDC10928F01B6DC09DEE5E6CA
:10076000F0E080818B7F808380818D7F808380819A
:100770008160808396EF9A95F1F780E88BBB26EF36
:100780002A95F1F780818E7F8083ADE2B1E022C0AF
:10079000119681E006C0E6E6FEE03197F1F7000031
:1007A000822F2FEF280F8111F6CFE5E6F0E0808150
:1007B0008460808380818D7F80838081816080835D
:1007C00026EF2A95F1F79BBB86EF8A95F1F780819A
:1007D0008E7F80839C919111DBCFE2E8F1E08581EF
:1007E0008F9384818F9383E391E09F938F938E0106
:1007F0000F5F1F4F1F930F937FD0E5E6F0E08081DE
:100800008B7F808380818D7F8083808181608083E6
:1008100096EF9A95F1F780EC8BBB26EF2A95F1F7CE
:1008200080818E7F80830F900F900F900F900F909C
:100830000F90D80122C0119681E006C0E6E6FEE0E6
:100840003197F1F70000822F2FEF280F8111F6CF9B
:10085000E5E6F0E080818460808380818D7F808305
:1008600080818160808326EF2A95F1F79BBB86EF1C
:100870008A95F1F780818E7F80839C919111DBCFE7
:10088000CEDC55CF02D053CF08950895E2E8F1E0D1
:10089000108284E0818382831382108611861286FF
:1008A0001386148615821482178216821586168680
:1008B00017860895A1E21A2EAA1BBB1BFD010DC0CD
:1008C000AA1FBB1FEE1FFF1FA217B307E407F50700
:1008D00020F0A21BB30BE40BF50B661F771F881FDC
:1008E000991F1A9469F760957095809590959B0172
:1008F000AC01BD01CF0108950F931F93CF93DF93F8
:10090000CDB7DEB72E970FB6F894DEBF0FBECDBFC2
:100910000D891E8986E08C831A8309838FEF9FE7F8
:100920009E838D83AE01475E5F4F6F89788DCE01C8
:10093000019610D0EF81F885E00FF11F10822E96FE
:100940000FB6F894DEBF0FBECDBFDF91CF911F91E0
:100950000F9108952F923F924F925F926F927F92E4
:100960008F929F92AF92BF92CF92DF92EF92FF92BF
:100970000F931F93CF93DF93CDB7DEB72B970FB6AF
:10098000F894DEBF0FBECDBF6C017B018A01FC0174
:1009900017821682838181FFBFC1CE0101963C017F
:1009A000F6019381F70193FD859193FF81917F017A
:1009B000882309F4ADC1853239F493FD859193FF05
:1009C00081917F01853221F4B60190E0D6D1E8CF44
:1009D000912C212C312CFFE1F315D8F08B3279F0DA
:1009E00038F4803279F08332A1F4232D20611DC0C8
:1009F0008D3261F0803369F4232D216016C0832D80
:100A00008260382EE32DE4603E2E2AC0F32DF8607C
:100A10001DC037FC2DC020ED280F2A3040F08E324B
:100A2000B9F436FC75C1232D2064322E19C036FE70
:100A300006C08AE0989E200D1124922E11C0EAE093
:100A40002E9E200D1124222EF32DF0623F2E08C081
:100A50008C3621F4832D8068382E02C0883641F40C
:100A6000F70193FD859193FF81917F018111B3CFB0
:100A7000982F9F7D9554933028F40C5F1F4F9FE370
:100A800099830DC0833631F0833771F0833509F0D7
:100A900055C020C0F801808189830E5F1F4F8824D4
:100AA0008394912C530112C02801F2E04F0E511C87
:100AB000F801A080B18036FE03C0692D70E002C04D
:100AC0006FEF7FEFC5014ED14C018201F32DFF770F
:100AD0003F2E15C0280122E0420E511CF801A080D3
:100AE000B18036FE03C0692D70E002C06FEF7FEF6A
:100AF000C5012DD14C01F32DF0683F2E820133FC4E
:100B000019C0822D90E088169906A0F4B60180E203
:100B100090E033D12A94F5CFF50137FC859137FE6B
:100B200081915F01B60190E028D121102A9421E043
:100B3000821A91088114910479F7E1C0843611F08A
:100B4000893639F5F80137FE07C0608171818281ED
:100B500093810C5F1F4F08C060817181072E000CCC
:100B6000880B990B0E5F1F4FF32DFF763F2E97FFDB
:100B700009C090958095709561957F4F8F4F9F4FDD
:100B8000F0683F2E2AE030E0A30133D1882E86188A
:100B900044C0853731F4232D2F7EB22E2AE030E079
:100BA00025C0932D997FB92E8F36C1F018F4883562
:100BB00079F0AEC0803719F0883721F0A9C0E92F4D
:100BC000E061BE2EB4FE0DC0FB2DF460BF2E09C047
:100BD00034FE0AC0292F2660B22E06C028E030E07D
:100BE00005C020E130E002C020E132E0F801B7FEAC
:100BF00007C060817181828193810C5F1F4F06C0A5
:100C00006081718180E090E00E5F1F4FA301F1D001
:100C1000882E8618FB2DFF773F2E36FE0DC0232D24
:100C20002E7FA22E891458F434FE0BC032FC09C06A
:100C3000832D8E7EA82E05C0B82CA32C03C0B82C03
:100C400001C0B92CA4FE0FC0FE01E80DF11D80818A
:100C5000803321F49A2D997EA92E09C0A2FE06C0E8
:100C6000B394B39404C08A2D867809F0B394A3FC9E
:100C700010C0A0FE06C0B21480F4280C922C9B1861
:100C80000DC0B21458F4B60180E290E076D0B3946F
:100C9000F8CFB21418F42B1802C0982C212CA4FE03
:100CA0000FC0B60180E390E068D0A2FE16C0A1FCA0
:100CB00003C088E790E002C088E590E0B6010CC070
:100CC0008A2D867851F0A1FE02C08BE201C080E23D
:100CD000A7FC8DE2B60190E050D0891430F4B60143
:100CE00080E390E04AD09A94F8CF8A94F301E80D1B
:100CF000F11D8081B60190E040D08110F6CF222016
:100D000009F44ECEB60180E290E037D02A94F7CFB6
:100D1000F6018681978102C08FEF9FEF2B960FB669
:100D2000F894DEBF0FBECDBFDF91CF911F910F9121
:100D3000FF90EF90DF90CF90BF90AF909F908F90FB
:100D40007F906F905F904F903F902F900895FC019F
:100D50000590615070400110D8F7809590958E0FE6
:100D60009F1F0895FC016150704001900110D8F759
:100D7000809590958E0F9F1F08950F931F93CF938B
:100D8000DF93FB01238121FD03C08FEF9FEF2CC078
:100D900022FF16C0468157812481358142175307AF
:100DA00044F4A081B1819D012F5F3F4F31832083A7
:100DB0008C93268137812F5F3F4F3783268314C062
:100DC0008B01EC01FB010084F185E02D0995892B55
:100DD000E1F6D80116968D919C911797019617967A
:100DE0009C938E931697CE01DF91CF911F910F9117
:100DF0000895FA01AA27283051F1203181F1E894B1
:100E00006F936E7F6E5F7F4F8F4F9F4FAF4FB1E0FD
:100E10003ED0B4E03CD0670F781F891F9A1FA11DF8
:100E2000680F791F8A1F911DA11D6A0F711D811DF9
:100E3000911DA11D20D009F468943F912AE0269FBE
:100E400011243019305D3193DEF6CF010895462F1D
:100E50004770405D4193B3E00FD0C9F7F6CF462FFE
:100E60004F70405D4A3318F0495D31FD4052419367
:100E700002D0A9F7EACFB4E0A69597958795779524
:100E80006795BA95C9F700976105710508959B01AB
:100E9000AC010A2E06945795479537952795BA9534
:100EA000C9F7620F731F841F951FA01D0895F89442
:020EB000FFCF72
:100EB20053544154453A554C5452413D2533643BB9
:100EC2004D4F44453D25643B4D4F544F523D2564A3
:100ED2000A0052583A2530325820202000446973C3
:0A0EE200743D0025336420636D00A9
:00000001FF
