S02700004D494E495F5344565F53595354454D5F4D41494E5F424F4F544C4F414445522E7372656372
S113000045C0000060C000005EC000005CC000008D
S11300105AC0000058C0000056C0000054C0000080
S113002052C0000050C000004EC000004CC0000090
S11300304AC0000048C0000046C0000044C00000A0
S113004042C0000040C000003EC000003CC00000B0
S11300503AC0000038C0000036C0000034C00000C0
S113006032C0000030C000002EC000002CC00000D0
S11300702AC0000028C0000026C0000024C00000E0
S113008022C0000020C000001EC0000011241FBEBA
S1130090CFEFD0E1DEBFCDBF11E0A0E0B1E0E8E3F7
S11300A0F6E000E00BBF02C007900D92AE39B10735
S11300B0D9F722E0AEE9B1E001C01D92A23AB2073D
S11300C0E1F768D2B7C29CCFDC01CB01880F991F3E
S11300D0AA1FBB1F880F991FAA1FBB1F9C01AD013C
S11300E0220F331F441F551F220F331F441F551F58
S11300F060E070E081EE90E05BD2215031093093F2
S113010098002093990010929B0088E180939A00B4
S113011086E080939D00089590919B0095FFFCCF0D
S113012080939C000895CF93DF93EC0102C0219645
S1130130F3DF88818111FBCFDF91CF910895F3DF45
S11301408AE0EACF089580919B008823E4F78091A8
S11301509C0090E00895EF92FF920F931F93CF932A
S1130160DF938C017B01C0E0D0E0EDDF8D309105A1
S1130170E1F38A30910529F4C00FD11F188281E080
S113018015C0970121503109C217D30730F4F80183
S1130190EC0FFD1F80832196E8CFD5DF0A97E9F79E
S11301A0F801108284E091E0CADF80E0DF91CF9112
S11301B01F910F91FF90EF90089590ED980F9A3052
S11301C060F09FEB980F963010F4875308959FE9E1
S11301D0980F963020F487550895892F08958FEF4E
S11301E008950F931F93CF938C01FC018081E5DF69
S11301F0C82FF8018181E1DFCF3F41F08F3F41F00B
S1130200F0E1CF9F90011124822B03C08FEF01C036
S11302108FEFCF911F910F9108950F931F93CF9359
S11302208C01DFDFC82FC8010296DBDFCF3F51F01E
S11302308F3F59F02C2F30E0322F2227A901482B71
S1130240CA0105C08FEF9FEF02C08FEF9FEFCF91E0
S11302501F910F910895EF92FF921F93CF93DF9315
S1130260009709F43CC0FC0120812A3309F039C00D
S11302707C010196B6DF182FC7010396CEDFEC018F
S1130280C7010796AEDF1F3F71F1CF3FFFEFDF07D6
S113029061F18F3F61F19D2F910FC90FC80F89E064
S11302A0E80EF11CD0E00BC08D2F90E0880F991F51
S11302B08E0D9F1D96DF8F3FE1F0C80FDF5FD117D2
S11302C098F3812F90E0880F991F8E0D9F1D89DF71
S11302D08F3F89F0C80F81E079F080E00DC080E0A5
S11302E00BC080E009C080E007C080E005C080E06A
S11302F003C080E001C080E0DF91CF911F91FF90A7
S1130300EF900895CF92DF92EF92FF9223E0FB01EA
S113031080935B0020936800E8952091680020FD9D
S1130320FCCF20E030E01DC0F901EE55FE4FE08126
S1130330D901AD55BE4F4C9150E0542F44274E2B5C
S11303406B017C01C20ED31EE11CF11CA1E00A0169
S1130350F601E0925B00A0936800E89511242E5FFB
S11303603F4F2F3F310501F3F8F225E0FB01809365
S11303705B0020936800E8958091680080FDFCCFC5
S113038081E180936800E895FF90EF90DF90CF9033
S11303900895F89460E080E090E03BD10FB6F894C3
S11303A0A89581B5886181BD11BC0FBEE0E0F0E085
S11303B009950895CF93DF93CDB7DEB7C058D1091F
S11303C00FB6F894DEBF0FBECDBF88E191E0B7DE73
S11303D040E051E06FEF70E082EA91E00BD18FEFE3
S11303E09FEFDC018093000190930101A09302012F
S11303F0B093030110929E0110929F011092A001EC
S11304001092A10160E870E0CE010196A4DE882379
S1130410C9F389818823B1F38A33A1F7CE01019608
S11304201ADF811104C08CE291E089DEEBCFCE01AA
S11304300296D7DEA82ECE010496EFDE8C01CE0103
S11304400896CFDEF82E24E0821314C0CE010A965B
S1130450E4DEA0E0B0E0DC019927882780939E01C8
S113046090939F01A093A001B093A1018DE391E02B
S113047066DEC8CF31E0831322C060910001709121
S1130480010180910201909103016F3F2FEF7207E8
S11304908207920761F036DF8FEF9FEFDC018093D4
S11304A0000190930101A0930201B093030160E065
S11304B080E090E0AED08EE491E041DE6ADFFF2080
S11304C009F45FC08AE591E03ADE9CCF8B2D90E081
S11304D0880F991F2AE030E02C0F3D1F820F931FD5
S11304E080DE982EC0909E01D0909F01E090A001E4
S11304F0F090A101C00ED11EE11CF11CCB0CD11C4B
S1130500E11CF11CC11430EED30631E0E306F10422
S113051038F08CE691E013DE8DE791E010DE39C00F
S113052026013701442460910001709101018091FA
S11305300201909103014616570668067906B1F048
S11305406F3F2FEF72078207920709F0DBDE40E06E
S113055051E06FEF70E082EA91E04CD040920001EC
S1130560509201016092020170920301D701C60109
S11305709927AA27BB27FC01EE55FE4F9082B3941E
S113058001C0B12CBA1408F4A1CF8BE891E0D7DDF7
S113059039CFFFCFF89460E076E980E090E094DD15
S11305A080E090E02ED0813009F404DFF2DEFFCF4A
S11305B0A1E21A2EAA1BBB1BFD010DC0AA1FBB1F63
S11305C0EE1FFF1FA217B307E407F50720F0A21BD5
S11305D0B30BE40BF50B661F771F881F991F1A9442
S11305E069F760957095809590959B01AC01BD016C
S11305F0CF010895DC0101C06D9341505040E0F7F4
S11306000895E199FECF9FBB8EBBE09A99278DB3E5
S11306100895262FE199FECF9FBB8EBBE09A0197E8
S11306200DB2021631F02DBB0FB6F894E29AE19A9E
S10B06300FBE0895F894FFCFFA
S1130638FFFFFFFF4F54413A4E414B3A52585F4F28
S1130648564552464C4F57004F54413A424F4F5427
S11306583A52454144593A4D41494E004F54413A62
S11306684E414B3A4241445F49484558004F544132
S11306783A41434B3A444154413A454C41004F5462
S1130688413A41434B3A454E44004F54413A414361
S11306984B3A444154413A534B4950004F54413A20
S11306A84E414B3A414444525F4F4F42004F5441EC
S11306B83A4E414B3A41424F5254004F54413A4109
S11106C8434B3A444154413A4D41494E0000DF
S9030000FC
