:1000000045C0000060C000005EC000005CC0000091
:100010005AC0000058C0000056C0000054C0000084
:1000200052C0000050C000004EC000004CC0000094
:100030004AC0000048C0000046C0000085C2000061
:1000400042C0000040C000003EC000003CC00000B4
:100050003AC0000038C0000036C0000034C00000C4
:1000600032C0000030C000002EC000002CC00000D4
:100070002AC0000028C0000054C2000027C20000AF
:1000800022C0000020C000001EC0000011241FBEBE
:10009000CFEFD0E1DEBFCDBF11E0A0E0B1E0E0E8FE
:1000A000F0E100E00BBF02C007900D92A233B10750
:1000B000D9F721E0A2E3B1E001C01D92AA33B20753
:1000C000E1F776D2DBC79CCF1092980087E180934E
:1000D000990010929B0088E980939A0086E08093B3
:1000E0009D00089594EA9093740020E030E006C0EB
:1000F000F9013196213D374038F49F019091740009
:100100009923B4F7909171008093730084E88093F1
:10011000740080E090E007C09C012F5F3F4F813D5D
:10012000974060F4C901209174002223ACF78091BC
:100130007100887F883121F082E003C081E001C036
:1001400080E081113DC06093730094E89093740047
:1001500020E030E007C0B9016F5F7F4F213D37409D
:1001600060F49B01909174009923ACF79091710019
:10017000987F983219F082E001C081E0811120C09F
:100180004093730094E89093740020E030E007C03F
:10019000A9014F5F5F4F213D374060F49A01909174
:1001A00074009923ACF790917100987F983219F000
:1001B00082E001C081E0811103C094E99093740052
:1001C000089594EA9093740020E030E006C0F901AD
:1001D0003196213D374038F49F0190917400992366
:1001E000B4F7909171008093730094E89093740039
:1001F00020E030E006C0F9013196213D374060F43F
:100200009F01909174009923B4F790917100987FA9
:10021000983121F0E2E003C0E1E001C0E0E0E1114B
:100220007BC06093730094E89093740020E030E00A
:1002300007C0B9016F5F7F4F213D374060F49B01DC
:10024000909174009923ACF790917100987F983247
:1002500019F0E2E001C0E1E0E1115EC094EA9093A0
:10026000740020E030E007C0B9016F5F7F4F213D8F
:10027000374060F49B01909174009923ACF7909102
:100280007100987F903119F0E2E001C0E1E0E111E6
:1002900043C081608093730084E88093740020E001
:1002A00030E007C0B9016F5F7F4F213D374060F4F8
:1002B0009B01909174009923ACF780917100887F25
:1002C000803419F0E2E001C0E1E0E11125C084E8EA
:1002D0008093740020E030E006C0C9010196213D02
:1002E000374060F49C01809174008823B4F78091BA
:1002F0007100887F883519F0E2E001C0E1E0E1118A
:1003000003C08091730001C080E0E11105C094E951
:1003100090937400DA018C938E2F089541E560E08C
:10032000E1CE0895EF92FF921F93CF93DF931F9238
:10033000CDB7DEB7182F7B01AE014F5F5F4F62E094
:1003400040DF882311F090E016C08981F701108208
:100350008183AE014F5F5F4F63E0812F32DF8823DF
:1003600011F090E008C09981F70120813181292B9B
:100370003183208390E00F90DF91CF911F91FF9008
:10038000EF9008958FE083BF12BE8EE081BF82E0C0
:1003900087BF089581EA8FBD8AE08EBD089581EA06
:1003A00080938B008AE080938A00089590E09BBD43
:1003B0008ABD99BD88BD90938700809386009093F5
:1003C0008500809384000895DC0111962C9111978B
:1003D000E4E3F1E021838C91808310923301EAE918
:1003E000F0E0808180628083089520913601FC01D5
:1003F00020830895811119C082B3806182BB82B3CA
:100400008F7D82BB82B3806482BB82B38F7782BBD5
:1004100088B3816088BB88B38D7F88BB88B38460D4
:1004200088BB88B3877F88BB089582B38F7E82BBE9
:1004300082B3806282BB82B38F7B82BB82B38068CF
:1004400082BB88B38E7F88BB88B3826088BB88B349
:100450008B7F88BB88B3886088BB0895CF93DF9378
:10046000EB01813021F488EC8883A0DF2CC082303E
:1004700021F484EB88839ADF26C0843019F48881C4
:1004800095DF21C08330F9F4888190E011C09BBDD5
:100490008ABD99BD88BD9093870080938600909314
:1004A000850080938400E3E3FBE23197F1F70A973C
:1004B00099236CF780E07ADF188282B38F7082BB59
:1004C00088B3807F88BBDF91CF9108951F920F92F0
:1004D0000FB60F9211240BB60F928F93EF93FF93E9
:1004E000E091330181E08E0F80933301F0E0EC5C0A
:1004F000FE4F808180939C0080913301823038F0E0
:10050000EAE9F0E080818F7D808310923301FF91D2
:10051000EF918F910F900BBE0F900FBE0F901F9019
:1005200018951F920F920FB60F9211248F938091FE
:100530009C008093360181E0809332018F910F906F
:100540000FBE0F901F9018951F920F920FB60F922B
:1005500011242F938F939F938091380190913901AB
:1005600001969093390180933801809138019091E0
:100570003901883E934038F081E080933701109232
:100580003901109238019F918F912F910F900FBEDA
:100590000F901F90189584B7806884BF84B78068D7
:1005A00084BF84B7806884BF84B7806884BF08959F
:1005B000CF93DF93CDB7DEB7AC970FB6F894DEBF1D
:1005C0000FBECDBFE8DF88EC89837EDD8FEF8ABB6D
:1005D000E4E6F0E0808187608083E5E6F0E08081FA
:1005E0008B7F808380818D7F808380818160808309
:1005F00086EF8A95F1F788E38BBB96EF9A95F1F732
:1006000080818E7F808384E006C0E6E6FEE031973D
:10061000F1F70000892F9FEF980F8111F6CFE5E6E3
:10062000F0E080818B7F808380818D7F80838081DB
:100630008160808386EF8A95F1F788E38BBB96EF24
:100640009A95F1F780818E7F808384E006C0E6E68C
:10065000FEE03197F1F70000892F9FEF980F81118D
:10066000F6CFE5E6F0E080818B7F808380818D7F0F
:10067000808380818160808386EF8A95F1F788E3AB
:100680008BBB96EF9A95F1F780818E7F808384E013
:1006900006C0E6E6FEE03197F1F70000892F9FEFF4
:1006A000980F8111F6CFE5E6F0E080818B7F8083A3
:1006B00080818D7F808380818160808386EF8A95B1
:1006C000F1F78EE08BBB96EF9A95F1F780818E7FE4
:1006D000808382E006C0E6E6FEE03197F1F7000095
:1006E000892F9FEF980F8111F6CFE5E6F0E080812A
:1006F0008B7F808380818D7F8083808181608083F8
:1007000086EF8A95F1F786E08BBB96EF9A95F1F725
:1007100080818E7F808382E006C0E6E6FEE031972E
:10072000F1F70000892F9FEF980F8111F6CFE5E6D2
:10073000F0E080818B7F808380818D7F80838081CA
:100740008160808386EF8A95F1F781E08BBB96EF1D
:100750009A95F1F780818E7F808382E006C0E6E67D
:10076000FEE03197F1F70000892F9FEF980F81117C
:10077000F6CF08DE1092710082E38093700084E06F
:100780008093740007DE0BDE898110DE87B38F66ED
:1007900087BB82B1886182B981B3806F81BB1CA69F
:1007A00041E560E080EE9EDCE5E6F0E090819B7F35
:1007B000908390819D7F908390819160908396EF4C
:1007C0009A95F1F790EC9BBB96EF9A95F1F7908193
:1007D0009E7F90831F928F938EE191E09F938F93E2
:1007E0008E010C5F1F4F1F930F936DD10F900F90D1
:1007F0000F900F900F900F90D80122C0119681E0BA
:1008000006C0E6E6FEE03197F1F70000822F2FEFF9
:10081000280F8111F6CFE5E6F0E0808184608083C7
:1008200080818D7F808380818160808386EF8A953F
:10083000F1F79BBB96EF9A95F1F780818E7F8083CD
:100840009C919111DBCF80EE69DD109239011092FD
:100850003801789480E0CEDDBE016F5F7F4F88EC79
:10086000FDDD80913201882329F0CE018C96BDDD1B
:100870001092320180E0BEDDBE016F5F7F4F8CA51C
:10088000EDDD80913701813061F710923701BE01B3
:100890006E5F7F4F80EE46DD892B09F47DC0E5E673
:1008A000F0E080818B7F808380818D7F8083808159
:1008B0008160808386EF8A95F1F780E88BBB96EFA5
:1008C0009A95F1F780818E7F8083A0E0B1E022C00D
:1008D000119681E006C0E6E6FEE03197F1F70000F0
:1008E000822F2FEF280F8111F6CFE5E6F0E080810F
:1008F0008460808380818D7F80838081816080831C
:1009000086EF8A95F1F79BBB96EF9A95F1F7808178
:100910008E7F80839C919111DBCFE5E6F0E08081B2
:100920008B7F808380818D7F8083808181608083C5
:1009300086EF8A95F1F785EC8BBB96EF9A95F1F7E8
:1009400080818E7F8083AFE0B1E022C0119681E08C
:1009500006C0E6E6FEE03197F1F70000822F2FEFA8
:10096000280F8111F6CFE5E6F0E080818460808376
:1009700080818D7F808380818160808386EF8A95EE
:10098000F1F79BBB96EF9A95F1F780818E7F80837C
:100990009C919111DBCF65CFE5E6F0E080818B7F04
:1009A000808380818D7F808380818160808386EFDA
:1009B0008A95F1F780E88BBB96EF9A95F1F78081E5
:1009C0008E7F8083A0E0B1E022C0119681E006C056
:1009D000E6E6FEE03197F1F70000822F2FEF280FB7
:1009E0008111F6CFE5E6F0E080818460808380812C
:1009F0008D7F808380818160808386EF8A95F1F787
:100A00009BBB96EF9A95F1F780818E7F80839C91B6
:100A10009111DBCF8B818F938A818F931F9282E01C
:100A20008F9383E291E09F938F938E010C5F1F4F12
:100A30001F930F9348D0E5E6F0E080818B7F8083A1
:100A400080818D7F808380818160808386EF8A951D
:100A5000F1F785EC8BBB96EF9A95F1F780818E7F4D
:100A600080830FB6F894DEBF0FBECDBFD80122C081
:100A7000119681E006C0E6E6FEE03197F1F700004E
:100A8000822F2FEF280F8111F6CFE5E6F0E080816D
:100A90008460808380818D7F80838081816080837A
:100AA00086EF8A95F1F79BBB96EF9A95F1F78081D7
:100AB0008E7F80839C919111DBCF80EE2FDCCE0165
:100AC000029682DCCECE0F931F93CF93DF93CDB7E8
:100AD000DEB72E970FB6F894DEBF0FBECDBF0D89DF
:100AE0001E8986E08C831A8309838FEF9FE79E839C
:100AF0008D83AE01475E5F4F6F89788DCE01019681
:100B000010D0EF81F885E00FF11F10822E960FB6FE
:100B1000F894DEBF0FBECDBFDF91CF911F910F9133
:100B200008952F923F924F925F926F927F928F9291
:100B30009F92AF92BF92CF92DF92EF92FF920F936C
:100B40001F93CF93DF93CDB7DEB72B970FB6F894F3
:100B5000DEBF0FBECDBF6C017B018A01FC01178295
:100B60001682838181FFBFC1CE0101963C01F6014F
:100B70009381F70193FD859193FF81917F018823F4
:100B800009F4ADC1853239F493FD859193FF8191CC
:100B90007F01853221F4B60190E0D6D1E8CF912CC7
:100BA000212C312CFFE1F315D8F08B3279F038F499
:100BB000803279F08332A1F4232D20611DC08D3263
:100BC00061F0803369F4232D216016C0832D82608B
:100BD000382EE32DE4603E2E2AC0F32DF8601DC0B0
:100BE00037FC2DC020ED280F2A3040F08E32B9F4AA
:100BF00036FC75C1232D2064322E19C036FE06C086
:100C00008AE0989E200D1124922E11C0EAE02E9EBB
:100C1000200D1124222EF32DF0623F2E08C08C36B9
:100C200021F4832D8068382E02C0883641F4F70104
:100C300093FD859193FF81917F018111B3CF982F0F
:100C40009F7D9554933028F40C5F1F4F9FE3998349
:100C50000DC0833631F0833771F0833509F055C00C
:100C600020C0F801808189830E5F1F4F8824839400
:100C7000912C530112C02801F2E04F0E511CF801D3
:100C8000A080B18036FE03C0692D70E002C06FEF16
:100C90007FEFC5014ED14C018201F32DFF773F2E2E
:100CA00015C0280122E0420E511CF801A080B1803D
:100CB00036FE03C0692D70E002C06FEF7FEFC50103
:100CC0002DD14C01F32DF0683F2E820133FC19C069
:100CD000822D90E088169906A0F4B60180E290E09B
:100CE00033D12A94F5CFF50137FC859137FE8191F8
:100CF0005F01B60190E028D121102A9421E0821AE8
:100D000091088114910479F7E1C0843611F0893695
:100D100039F5F80137FE07C06081718182819381C6
:100D20000C5F1F4F08C060817181072E000C880B7B
:100D3000990B0E5F1F4FF32DFF763F2E97FF09C0D3
:100D400090958095709561957F4F8F4F9F4FF0687C
:100D50003F2E2AE030E0A30133D1882E861844C00C
:100D6000853731F4232D2F7EB22E2AE030E025C0C6
:100D7000932D997FB92E8F36C1F018F4883579F00C
:100D8000AEC0803719F0883721F0A9C0E92FE061A3
:100D9000BE2EB4FE0DC0FB2DF460BF2E09C034FE84
:100DA0000AC0292F2660B22E06C028E030E005C018
:100DB00020E130E002C020E132E0F801B7FE07C0D8
:100DC00060817181828193810C5F1F4F06C06081B9
:100DD000718180E090E00E5F1F4FA301F1D0882E5B
:100DE0008618FB2DFF773F2E36FE0DC0232D2E7F5C
:100DF000A22E891458F434FE0BC032FC09C0832D96
:100E00008E7EA82E05C0B82CA32C03C0B82C01C020
:100E1000B92CA4FE0FC0FE01E80DF11D80818033C6
:100E200021F49A2D997EA92E09C0A2FE06C0B39482
:100E3000B39404C08A2D867809F0B394A3FC10C043
:100E4000A0FE06C0B21480F4280C922C9B180DC092
:100E5000B21458F4B60180E290E076D0B394F8CFA3
:100E6000B21418F42B1802C0982C212CA4FE0FC029
:100E7000B60180E390E068D0A2FE16C0A1FC03C0DA
:100E800088E790E002C088E590E0B6010CC08A2DAA
:100E9000867851F0A1FE02C08BE201C080E2A7FC7F
:100EA0008DE2B60190E050D0891430F4B60180E3B1
:100EB00090E04AD09A94F8CF8A94F301E80DF11D9E
:100EC0008081B60190E040D08110F6CF222009F455
:100ED0004ECEB60180E290E037D02A94F7CFF601EB
:100EE0008681978102C08FEF9FEF2B960FB6F89403
:100EF000DEBF0FBECDBFDF91CF911F910F91FF904D
:100F0000EF90DF90CF90BF90AF909F908F907F90A9
:100F10006F905F904F903F902F900895FC01059047
:100F2000615070400110D8F7809590958E0F9F1FEB
:100F30000895FC016150704001900110D8F7809530
:100F400090958E0F9F1F08950F931F93CF93DF935C
:100F5000FB01238121FD03C08FEF9FEF2CC022FFF7
:100F600016C046815781248135814217530744F4C6
:100F7000A081B1819D012F5F3F4F318320838C93EE
:100F8000268137812F5F3F4F3783268314C08B0123
:100F9000EC01FB010084F185E02D0995892BE1F638
:100FA000D80116968D919C911797019617969C9350
:100FB0008E931697CE01DF91CF911F910F910895D7
:100FC000FA01AA27283051F1203181F1E8946F937A
:100FD0006E7F6E5F7F4F8F4F9F4FAF4FB1E03ED020
:100FE000B4E03CD0670F781F891F9A1FA11D680FBE
:100FF000791F8A1F911DA11D6A0F711D811D911DF1
:10100000A11D20D009F468943F912AE0269F112465
:101010003019305D3193DEF6CF010895462F4770C9
:10102000405D4193B3E00FD0C9F7F6CF462F4F7024
:10103000405D4A3318F0495D31FD4052419302D082
:10104000A9F7EACFB4E0A695979587957795679528
:10105000BA95C9F700976105710508959B01AC0128
:101060000A2E06945795479537952795BA95C9F74F
:10107000620F731F841F951FA01D0895F894FFCF62
:101080004D6561737572656420446973743D0045F4
:101090005252202020202020202020202000573ABB
:1010A00025640025303164202020253033642063FE
:0210B0006D00D1
:00000001FF
