:1000000045C0000061C000005FC000005DC000008E
:100010005BC0000059C0000057C0000055C0000080
:1000200053C00000EEC300004FC000004DC00000F0
:100030004BC0000049C0000047C00000BDC3000025
:1000400043C0000041C0000087C300005DC3000042
:100050003BC0000039C0000037C0000035C00000C0
:1000600033C0000031C000002FC000002DC00000D0
:100070002BC0000029C0000027C0000025C00000E0
:1000800023C0000021C000001FC0000011241FBEBB
:10009000CFEFD0E1DEBFCDBF11E0A0E0B1E0E2EAFA
:1000A000F3E100E00BBF02C007900D92A836B10744
:1000B000D9F721E0A8E6B1E001C01D92A338B2074C
:1000C000E1F73ED40C94CF099BCF1092900087E1CA
:1000D00089B91BB888E98AB986E0809395000895AC
:1000E00094EA9093740020E030E006C0F901319664
:1000F000213D374038F49F01909174009923B4F763
:10010000909171008093730084E88093740080E084
:1001100090E007C09C012F5F3F4F813D974060F406
:10012000C901209174002223ACF780917100887F6F
:10013000883121F082E003C081E001C080E08111BC
:100140003DC06093730094E89093740020E030E029
:1001500007C0B9016F5F7F4F213D374060F49B01BD
:10016000909174009923ACF790917100987F983228
:1001700019F082E001C081E0811120C0409373003A
:1001800094E89093740020E030E007C0A9014F5F2D
:100190005F4F213D374060F49A019091740099239C
:1001A000ACF790917100987F983219F082E001C00D
:1001B00081E0811103C094E990937400089594EA5A
:1001C0009093740020E030E006C0F9013196213DA3
:1001D000374038F49F01909174009923B4F79091BF
:1001E00071008093730094E89093740020E030E0F5
:1001F00006C0F9013196213D374060F49F0190918E
:1002000074009923B4F790917100987F983121F090
:10021000E2E003C0E1E001C0E0E0E1117BC06093F7
:10022000730094E89093740020E030E007C0B901B7
:100230006F5F7F4F213D374060F49B0190917400C8
:100240009923ACF790917100987F983219F0E2E011
:1002500001C0E1E0E1115EC094EA9093740020E0F7
:1002600030E007C0B9016F5F7F4F213D374060F438
:100270009B01909174009923ACF790917100987F45
:10028000903119F0E2E001C0E1E0E11143C081608A
:100290008093730084E88093740020E030E007C00E
:1002A000B9016F5F7F4F213D374060F49B01909112
:1002B00074009923ACF780917100887F803419F025
:1002C000E2E001C0E1E0E11125C084E88093740020
:1002D00020E030E006C0C9010196213D374060F4BE
:1002E0009C01809174008823B4F780917100887F0D
:1002F000883519F0E2E001C0E1E0E11103C080912E
:10030000730001C080E0E11105C094E9909374008E
:10031000DA018C938E2F089541E560E0E1CE0895D7
:10032000EF92FF921F93CF93DF931F92CDB7DEB76B
:10033000182F7B01AE014F5F5F4F62E040DF8823E3
:1003400011F090E016C08981F70110828183AE011F
:100350004F5F5F4F63E0812F32DF882311F090E021
:1003600008C09981F70120813181292B31832083B5
:1003700090E00F90DF91CF911F91FF90EF90089543
:100380008FE083BF12BE8EE081BF82E087BF0895F9
:1003900081EA8FBD8AE08EBD089581EA80938B004B
:1003A0008AE080938A00089590E09BBD8ABD99BD44
:1003B00088BD9093870080938600909385008093FA
:1003C00084000895DC0111962C911197ECE7F1E07F
:1003D00021838C91808310927B018AB180628AB9DB
:1003E000089520917901FC01208380917801FB011F
:1003F00080830895FC01408151819A012150310987
:10040000243F314040F02091680130916901FC01A6
:10041000318320830895209168013091690121156D
:10042000310529F450936901409368010895B90199
:10043000660F771F260F371F240F351F3695279518
:1004400036952795FC0131832083309369012093F1
:1004500068010895811119C082B3806182BB82B3A3
:100460008F7D82BB82B3806482BB82B38F7782BB75
:1004700088B3816088BB88B38D7F88BB88B3846074
:1004800088BB88B3877F88BB089582B38F7E82BB89
:1004900082B3806282BB82B38F7B82BB82B380686F
:1004A00082BB88B38E7F88BB88B3826088BB88B3E9
:1004B0008B7F88BB88B3886088BB0895CF93DF9318
:1004C000EB01813021F488EC88836EDF2CC0823010
:1004D00021F486E9888368DF26C0843019F4888196
:1004E00063DF21C08330F9F4888190E011C09BBDA7
:1004F0008ABD99BD88BD90938700809386009093B4
:10050000850080938400E3E3FBE23197F1F70A97DB
:1005100099236CF780E048DF188282B38F7082BB2A
:1005200088B3807F88BBDF91CF910895E5E6F0E046
:1005300090819B7F908390819D7F9083908191603B
:10054000908396EF9A95F1F790EC9BBB96EF9A9576
:10055000F1F790819E7F9083813009F454C050F16F
:10056000823009F479C0833009F49FC0C7C0119666
:1005700081E006C0E6E6FEE03197F1F70000822F49
:100580002FEF280F8111F6CFE5E6F0E0808184603F
:10059000808380818D7F808380818160808386EFEE
:1005A0008A95F1F79BBB96EF9A95F1F780818E7F44
:1005B000808302C0A0E0B1E09C919111D8CF089552
:1005C000119681E006C0E6E6FEE03197F1F7000003
:1005D000822F2FEF280F8111F6CFE5E6F0E0808122
:1005E0008460808380818D7F80838081816080832F
:1005F00086EF8A95F1F79BBB96EF9A95F1F780818C
:100600008E7F808302C0AFE0B1E09C919111D8CF82
:100610000895119681E006C0E6E6FEE03197F1F715
:100620000000822F2FEF280F8111F6CFE5E6F0E0D2
:1006300080818460808380818D7F808380818160E0
:10064000808386EF8A95F1F79BBB96EF9A95F1F739
:1006500080818E7F808302C0AEE1B1E09C919111D8
:10066000D8CF0895119681E006C0E6E6FEE0319706
:10067000F1F70000822F2FEF280F8111F6CFE5E66A
:10068000F0E080818460808380818D7F80838081A1
:100690008160808386EF8A95F1F79BBB96EF9A95F0
:1006A000F1F780818E7F808302C0ADE2B1E09C9142
:1006B0009111D8CF0895119681E006C0E6E6FEE0DC
:1006C0003197F1F70000822F2FEF280F8111F6CF1D
:1006D000E5E6F0E080818460808380818D7F808387
:1006E00080818160808386EF8A95F1F79BBB96EFCE
:1006F0009A95F1F780818E7F808302C0ADE2B1E0F0
:100700009C919111D8CF08951F920F920FB60F921E
:1007100011240BB60F928F93EF93FF93E0917B011F
:1007200081E08E0F80937B01F0E0E458FE4F8081E2
:100730008CB980917B01823028F08AB18F7D8AB993
:1007400010927B01FF91EF918F910F900BBE0F9054
:100750000FBE0F901F9018951F920F920FB60F9219
:1007600011240BB60F928F93EF93FF93E0917A01D0
:1007700081E08E0F80937A01F0E08CB1E158FE4F5A
:10078000808380917A01823068F0EFE7F1E0808128
:100790008093790181818093780181E08093770152
:1007A00010927A01FF91EF918F910F900BBE0F90F5
:1007B0000FBE0F901F9018951F920F920FB60F92B9
:1007C00011248F939F9380918101909182010196D2
:1007D00090938201809381018091810190918201A7
:1007E0008436910538F081E080937E011092820179
:1007F000109281019F918F910F900FBE0F901F90CB
:1008000018951F920F920FB60F9211240BB60F92EC
:100810002F933F938F939F93EF93FF938091720158
:10082000882331F08091750190917601892B51F4E4
:10083000E5E6F0E080818E7F808310927401109253
:10084000730164C080917101882309F445C08091CF
:100850006B0190916C01019690936C0180936B01F8
:1008600080916A018823D9F020916B0130916C014D
:1008700080916F01909170012817390768F11092EB
:100880006A0110926C0110926B01E5E6F0E0808144
:100890008E7F8083109274011092730137C0209173
:1008A0006B0130916C0180916D0190916E01281760
:1008B000390740F081E080936A0110926C01109238
:1008C0006B010AC0E5E6F0E080818E7F80831092A4
:1008D0007401109273011AC0809173019091740198
:1008E000019690937401809373012091750130916A
:1008F00076018217930750F01092740110927301E1
:10090000E5E6F0E0908181E089278083FF91EF9117
:100910009F918F913F912F910F900BBE0F900FBE23
:100920000F901F90189584B7806884BF84B7806843
:1009300084BF84B7806884BF84B7806884BF08950B
:10094000CF93DF93CDB7DEB7AD970FB6F894DEBF88
:100950000FBECDBFE8DF88EC8983B7DB8FEF8ABBA2
:10096000E4E6F0E0808187608083E5E6F0E0808166
:100970008B7F808380818D7F808380818160808375
:1009800086EF8A95F1F788E38BBB96EF9A95F1F79E
:1009900080818E7F808384E006C0E6E6FEE03197AA
:1009A000F1F70000892F9FEF980F8111F6CFE5E650
:1009B000F0E080818B7F808380818D7F8083808148
:1009C0008160808386EF8A95F1F788E38BBB96EF91
:1009D0009A95F1F780818E7F808384E006C0E6E6F9
:1009E000FEE03197F1F70000892F9FEF980F8111FA
:1009F000F6CFE5E6F0E080818B7F808380818D7F7C
:100A0000808380818160808386EF8A95F1F788E317
:100A10008BBB96EF9A95F1F780818E7F808384E07F
:100A200006C0E6E6FEE03197F1F70000892F9FEF60
:100A3000980F8111F6CFE5E6F0E080818B7F80830F
:100A400080818D7F808380818160808386EF8A951D
:100A5000F1F78EE08BBB96EF9A95F1F780818E7F50
:100A6000808382E006C0E6E6FEE03197F1F7000001
:100A7000892F9FEF980F8111F6CFE5E6F0E0808196
:100A80008B7F808380818D7F808380818160808364
:100A900086EF8A95F1F786E08BBB96EF9A95F1F792
:100AA00080818E7F808382E006C0E6E6FEE031979B
:100AB000F1F70000892F9FEF980F8111F6CFE5E63F
:100AC000F0E080818B7F808380818D7F8083808137
:100AD0008160808386EF8A95F1F781E08BBB96EF8A
:100AE0009A95F1F780818E7F808382E006C0E6E6EA
:100AF000FEE03197F1F70000892F9FEF980F8111E9
:100B0000F6CF3EDC1092710082E38093700084E0A7
:100B1000809374003DDC41DC898146DC87B38F66BD
:100B200087BB82B1886182B981B3806F81BB1CA60B
:100B30001DA641E560E080EED3DAE5E6F0E09081C5
:100B40009B7F908390819D7F908390819160908323
:100B500096EF9A95F1F790EC9BBB96EF9A95F1F78B
:100B600090819E7F90831F928F9381E591E09F9368
:100B70008F938E010C5F1F4F1F930F9335D10F90F2
:100B80000F900F900F900F900F90D80122C01196E8
:100B900081E006C0E6E6FEE03197F1F70000822F23
:100BA0002FEF280F8111F6CFE5E6F0E08081846019
:100BB000808380818D7F808380818160808386EFC8
:100BC0008A95F1F79BBB96EF9A95F1F780818E7F1E
:100BD00080839C919111DBCF80EE9EDB109282018D
:100BE00010928101789480E035DCBE016F5F7F4F09
:100BF00088EC64DC80917701882341F0BE01635D5D
:100C00007F4FCE018C96EDDB1092770180E022DCE5
:100C1000BE016F5F7F4F8CA551DC80917E018130DA
:100C200049F710927E01BE016E5F7F4F80EE78DB48
:100C3000892B09F47DC0E5E6F0E080818B7F80831D
:100C400080818D7F808380818160808386EF8A951B
:100C5000F1F780E88BBB96EF9A95F1F780818E7F54
:100C60008083ACE3B1E022C0119681E006C0E6E6E5
:100C7000FEE03197F1F70000822F2FEF280F81114E
:100C8000F6CFE5E6F0E080818460808380818D7F0F
:100C9000808380818160808386EF8A95F1F79BBB9A
:100CA00096EF9A95F1F780818E7F80839C919111C8
:100CB000DBCFE5E6F0E080818B7F808380818D7FD4
:100CC000808380818160808386EF8A95F1F785EC4F
:100CD0008BBB96EF9A95F1F780818E7F8083A2E49B
:100CE000B1E022C0119681E006C0E6E6FEE0319751
:100CF000F1F70000822F2FEF280F8111F6CFE5E6E4
:100D0000F0E080818460808380818D7F808380811A
:100D10008160808386EF8A95F1F79BBB96EF9A9569
:100D2000F1F780818E7F80839C919111DBCF62CF20
:100D3000CE0102965FDBCE01029644DBE5E6F0E0F1
:100D400080818B7F808380818D7F808380818160A3
:100D5000808386EF8A95F1F780E88BBB96EF9A95B2
:100D6000F1F780818E7F80838B818F938A818F932F
:100D700086E591E09F938F938E010C5F1F4F1F9329
:100D80000F9332D00F900F900F900F900F900F9005
:100D9000D80122C0119681E006C0E6E6FEE0319758
:100DA000F1F70000822F2FEF280F8111F6CFE5E633
:100DB000F0E080818460808380818D7F808380816A
:100DC0008160808386EF8A95F1F79BBB96EF9A95B9
:100DD000F1F780818E7F80839C919111DBCF8DA56F
:100DE000A5DB80EE99DA06CF0F931F93CF93DF93A5
:100DF000CDB7DEB72E970FB6F894DEBF0FBECDBFCE
:100E00000D891E8986E08C831A8309838FEF9FE703
:100E10009E838D83AE01475E5F4F6F89788DCE01D3
:100E2000019610D0EF81F885E00FF11F10822E9609
:100E30000FB6F894DEBF0FBECDBFDF91CF911F91EB
:100E40000F9108952F923F924F925F926F927F92EF
:100E50008F929F92AF92BF92CF92DF92EF92FF92CA
:100E60000F931F93CF93DF93CDB7DEB72B970FB6BA
:100E7000F894DEBF0FBECDBF6C017B018A01FC017F
:100E800017821682838181FFBFC1CE0101963C018A
:100E9000F6019381F70193FD859193FF81917F0185
:100EA000882309F4ADC1853239F493FD859193FF10
:100EB00081917F01853221F4B60190E0D6D1E8CF4F
:100EC000912C212C312CFFE1F315D8F08B3279F0E5
:100ED00038F4803279F08332A1F4232D20611DC0D3
:100EE0008D3261F0803369F4232D216016C0832D8B
:100EF0008260382EE32DE4603E2E2AC0F32DF86088
:100F00001DC037FC2DC020ED280F2A3040F08E3256
:100F1000B9F436FC75C1232D2064322E19C036FE7B
:100F200006C08AE0989E200D1124922E11C0EAE09E
:100F30002E9E200D1124222EF32DF0623F2E08C08C
:100F40008C3621F4832D8068382E02C0883641F417
:100F5000F70193FD859193FF81917F018111B3CFBB
:100F6000982F9F7D9554933028F40C5F1F4F9FE37B
:100F700099830DC0833631F0833771F0833509F0E2
:100F800055C020C0F801808189830E5F1F4F8824DF
:100F90008394912C530112C02801F2E04F0E511C92
:100FA000F801A080B18036FE03C0692D70E002C058
:100FB0006FEF7FEFC5014ED14C018201F32DFF771A
:100FC0003F2E15C0280122E0420E511CF801A080DE
:100FD000B18036FE03C0692D70E002C06FEF7FEF75
:100FE000C5012DD14C01F32DF0683F2E820133FC59
:100FF00019C0822D90E088169906A0F4B60180E20F
:1010000090E033D12A94F5CFF50137FC859137FE76
:1010100081915F01B60190E028D121102A9421E04E
:10102000821A91088114910479F7E1C0843611F095
:10103000893639F5F80137FE07C0608171818281F8
:1010400093810C5F1F4F08C060817181072E000CD7
:10105000880B990B0E5F1F4FF32DFF763F2E97FFE6
:1010600009C090958095709561957F4F8F4F9F4FE8
:10107000F0683F2E2AE030E0A30133D1882E861895
:1010800044C0853731F4232D2F7EB22E2AE030E084
:1010900025C0932D997FB92E8F36C1F018F488356D
:1010A00079F0AEC0803719F0883721F0A9C0E92F58
:1010B000E061BE2EB4FE0DC0FB2DF460BF2E09C052
:1010C00034FE0AC0292F2660B22E06C028E030E088
:1010D00005C020E130E002C020E132E0F801B7FEB7
:1010E00007C060817181828193810C5F1F4F06C0B0
:1010F0006081718180E090E00E5F1F4FA301F1D00D
:10110000882E8618FB2DFF773F2E36FE0DC0232D2F
:101110002E7FA22E891458F434FE0BC032FC09C075
:10112000832D8E7EA82E05C0B82CA32C03C0B82C0E
:1011300001C0B92CA4FE0FC0FE01E80DF11D808195
:10114000803321F49A2D997EA92E09C0A2FE06C0F3
:10115000B394B39404C08A2D867809F0B394A3FCA9
:1011600010C0A0FE06C0B21480F4280C922C9B186C
:101170000DC0B21458F4B60180E290E076D0B3947A
:10118000F8CFB21418F42B1802C0982C212CA4FE0E
:101190000FC0B60180E390E068D0A2FE16C0A1FCAB
:1011A00003C088E790E002C088E590E0B6010CC07B
:1011B0008A2D867851F0A1FE02C08BE201C080E248
:1011C000A7FC8DE2B60190E050D0891430F4B6014E
:1011D00080E390E04AD09A94F8CF8A94F301E80D26
:1011E000F11D8081B60190E040D08110F6CF222021
:1011F00009F44ECEB60180E290E037D02A94F7CFC2
:10120000F6018681978102C08FEF9FEF2B960FB674
:10121000F894DEBF0FBECDBFDF91CF911F910F912C
:10122000FF90EF90DF90CF90BF90AF909F908F9006
:101230007F906F905F904F903F902F900895FC01AA
:101240000590615070400110D8F7809590958E0FF1
:101250009F1F0895FC016150704001900110D8F764
:10126000809590958E0F9F1F08950F931F93CF9396
:10127000DF93FB01238121FD03C08FEF9FEF2CC083
:1012800022FF16C0468157812481358142175307BA
:1012900044F4A081B1819D012F5F3F4F31832083B2
:1012A0008C93268137812F5F3F4F3783268314C06D
:1012B0008B01EC01FB010084F185E02D0995892B60
:1012C000E1F6D80116968D919C9117970196179685
:1012D0009C938E931697CE01DF91CF911F910F9122
:1012E0000895FA01AA27283051F1203181F1E894BC
:1012F0006F936E7F6E5F7F4F8F4F9F4FAF4FB1E009
:101300003ED0B4E03CD0670F781F891F9A1FA11D03
:10131000680F791F8A1F911DA11D6A0F711D811D04
:10132000911DA11D20D009F468943F912AE0269FC9
:1013300011243019305D3193DEF6CF010895462F28
:101340004770405D4193B3E00FD0C9F7F6CF462F09
:101350004F70405D4A3318F0495D31FD4052419372
:1013600002D0A9F7EACFB4E0A6959795879577952F
:101370006795BA95C9F700976105710508959B01B6
:10138000AC010A2E06945795479537952795BA953F
:10139000C9F7620F731F841F951FA01D0895F8944D
:0213A000FFCF7D
:1013A20073746174653D53414645202020200073CB
:1013B200746174653D5741524E494E472000737423
:1013C2006174653D44414E4745522020007374616B
:1013D20074653D4552524F52202020004469737477
:1013E2003D00455252202020202020202020202075
:1013F20000573A256400446973743D2025303375E3
:0814020020636D202020000092
:00000001FF
