:1000000045C0000061C000005FC000005DC000008E
:100010005BC0000059C0000057C0000055C0000080
:1000200053C0000069C500004FC000004DC0000073
:100030004BC0000049C0000047C0000038C50000A8
:1000400043C0000041C0000026C40000FCC3000003
:100050003BC0000039C0000037C0000035C00000C0
:1000600033C0000031C000002FC000002DC00000D0
:100070002BC0000029C0000027C0000025C00000E0
:1000800023C0000021C000001FC0000011241FBEBB
:10009000CFEFD0E1DEBFCDBF11E0A0E0B1E0E4E7FB
:1000A000F8E100E00BBF02C007900D92A638B1073F
:1000B000D9F722E0A6E8B1E001C01D92A03AB2074C
:1000C000E1F7D7D50C94380C9BCF1092900087E1C4
:1000D00089B91BB888E98AB986E0809395000895AC
:1000E0000F931F93009731F18C0120E030E0C9019C
:1000F000B801605F784D8F4F9F4FA9019801220F83
:10010000331F441F551F0E943B092115310541052E
:10011000510521F421E030E040E050E021368AEE44
:1001200038074105510520F020E63AEE40E050E066
:10013000C90102C080E090E01F910F910895E5E6AB
:10014000F0E080818B7F808380818D7F80838081C0
:100150008160808386EF8A95F1F781E08BBB86EF23
:100160008A95F1F780818E7F808382E006C0E6E683
:10017000FEE03197F1F70000892F9FEF980F811172
:10018000F6CF089594EA9093740020E030E006C022
:10019000F9013196213D374038F49F019091740068
:1001A0009923B4F7909171008093730084E8809351
:1001B000740080E090E007C09C012F5F3F4F813DBD
:1001C000974060F4C901209174002223ACF780911C
:1001D0007100887F883121F082E003C081E001C096
:1001E00080E081113DC06093730094E890937400A7
:1001F00020E030E007C0B9016F5F7F4F213D3740FD
:1002000060F49B01909174009923ACF79091710078
:10021000987F983219F082E001C081E0811120C0FE
:100220004093730094E89093740020E030E007C09E
:10023000A9014F5F5F4F213D374060F49A019091D3
:1002400074009923ACF790917100987F983219F05F
:1002500082E001C081E0811103C094E990937400B1
:10026000089594EA9093740020E030E006C0F9010C
:100270003196213D374038F49F01909174009923C5
:10028000B4F7909171008093730094E89093740098
:1002900020E030E006C0F9013196213D374060F49E
:1002A0009F01909174009923B4F790917100987F09
:1002B000983121F0E2E003C0E1E001C0E0E0E111AB
:1002C0007BC06093730094E89093740020E030E06A
:1002D00007C0B9016F5F7F4F213D374060F49B013C
:1002E000909174009923ACF790917100987F9832A7
:1002F00019F0E2E001C0E1E0E1115EC094EA909300
:10030000740020E030E007C0B9016F5F7F4F213DEE
:10031000374060F49B01909174009923ACF7909161
:100320007100987F903119F0E2E001C0E1E0E11145
:1003300043C081608093730084E88093740020E060
:1003400030E007C0B9016F5F7F4F213D374060F457
:100350009B01909174009923ACF780917100887F84
:10036000803419F0E2E001C0E1E0E11125C084E849
:100370008093740020E030E006C0C9010196213D61
:10038000374060F49C01809174008823B4F7809119
:100390007100887F883519F0E2E001C0E1E0E111E9
:1003A00003C08091730001C080E0E11105C094E9B1
:1003B00090937400DA018C938E2F089541E560E0EC
:1003C000E1CE0895EF92FF921F93CF93DF931F9298
:1003D000CDB7DEB7182F7B01AE014F5F5F4F62E0F4
:1003E00040DF882311F090E016C08981F701108268
:1003F0008183AE014F5F5F4F63E0812F32DF88233F
:1004000011F090E008C09981F70120813181292BFA
:100410003183208390E00F90DF91CF911F91FF9067
:10042000EF9008958FE083BF12BE8EE081BF82E01F
:1004300087BF089581EA8FBD8AE08EBD089581EA65
:1004400080938B008AE080938A0008958CE085BDBC
:1004500082E783BD87B7806887BF089590E09BBD22
:100460008ABD99BD88BD9093870080938600909344
:100470008500809384000895DC0111962C911197DA
:10048000E9E9F2E021838C918083109298028AB18D
:1004900080628AB9089520919602FC0120838091A0
:1004A0009502FB0180830895FC01408151819A01EE
:1004B00021503109243F314040F020918601309194
:1004C0008701FC01318320830895209186013091BA
:1004D00087012115310529F4509387014093860146
:1004E0000895B901660F771F260F371F240F351F98
:1004F0003695279536952795FC01318320833093D7
:100500008701209386010895811119C082B380610B
:1005100082BB82B38F7D82BB82B3806482BB82B395
:100520008F7782BB88B3816088BB88B38D7F88BB9F
:1005300088B3846088BB88B3877F88BB089582B303
:100540008F7E82BB82B3806282BB82B38F7B82BB91
:1005500082B3806882BB88B38E7F88BB88B3826099
:1005600088BB88B38B7F88BB88B3886088BB0895BD
:10057000CF93DF93EB01813021F488EC88836EDF29
:100580002CC0823021F486E9888368DF26C084305D
:1005900019F4888163DF21C08330F9F4888190E009
:1005A00011C09BBD8ABD99BD88BD90938700809383
:1005B00086009093850080938400E3E3FBE231970B
:1005C000F1F70A9799236CF780E048DF188282B32D
:1005D0008F7082BB88B3807F88BBDF91CF910895F5
:1005E000E5E6F0E090819B7F908390819D7F9083F2
:1005F00090819160908396EF9A95F1F790EC9BBB78
:1006000096EF9A95F1F790819E7F9083813009F45F
:1006100054C050F1823009F479C0833009F49FC08E
:10062000C7C0119681E006C0E6E6FEE03197F1F71B
:100630000000822F2FEF280F8111F6CFE5E6F0E0C2
:1006400080818460808380818D7F808380818160D0
:10065000808386EF8A95F1F79BBB96EF9A95F1F729
:1006600080818E7F808302C0A0E0B1E09C919111D7
:10067000D8CF0895119681E006C0E6E6FEE03197F6
:10068000F1F70000822F2FEF280F8111F6CFE5E65A
:10069000F0E080818460808380818D7F8083808191
:1006A0008160808386EF8A95F1F79BBB96EF9A95E0
:1006B000F1F780818E7F808302C0AFE0B1E09C9132
:1006C0009111D8CF0895119681E006C0E6E6FEE0CC
:1006D0003197F1F70000822F2FEF280F8111F6CF0D
:1006E000E5E6F0E080818460808380818D7F808377
:1006F00080818160808386EF8A95F1F79BBB96EFBE
:100700009A95F1F780818E7F808302C0AEE1B1E0DF
:100710009C919111D8CF0895119681E006C0E6E62C
:10072000FEE03197F1F70000822F2FEF280F8111A3
:10073000F6CFE5E6F0E080818460808380818D7F64
:10074000808380818160808386EF8A95F1F79BBBEF
:1007500096EF9A95F1F780818E7F808302C0ADE29B
:10076000B1E09C919111D8CF0895119681E006C017
:10077000E6E6FEE03197F1F70000822F2FEF280F19
:100780008111F6CFE5E6F0E080818460808380818E
:100790008D7F808380818160808386EF8A95F1F7E9
:1007A0009BBB96EF9A95F1F780818E7F808302C084
:1007B000ADE2B1E09C919111D8CF0895813081F0E4
:1007C00028F0823001F1833059F1089510928F02A0
:1007D00010928E02E5E6F0E080818F7E808308959E
:1007E00081E080938F0280938E0280EF9AE078DC24
:1007F000909393028093920210928D0210928C0239
:1008000010928B02089581E080938F0210928E02E5
:1008100080E692E265DC90939302809392020895C1
:1008200081E080938F0280938E0288EA91E658DC03
:10083000909393028093920210928D0210928C02F8
:1008400010928B0208951F920F920FB60F921124EF
:100850000BB60F928F93EF93FF93E091980281E094
:100860008E0F80939802F0E0E756FD4F80818CB99F
:1008700080919802823028F08AB18F7D8AB91092D7
:100880009802FF91EF918F910F900BBE0F900FBECA
:100890000F901F9018951F920F920FB60F92112470
:1008A0000BB60F922F938F939F93AF93BF93EF93BA
:1008B000FF938CB190918A029923F1F08A3061F410
:1008C000E0918901F0E0E657FE4F108281E08093CD
:1008D000880110928901DDC0909189019F3F09F440
:1008E000D8C0E091890191E09E0F90938901F0E0DA
:1008F000E657FE4F8083CDC0E091970291E09E0FB6
:1009000090939702F0E0E456FD4F80838091970228
:10091000823008F4BEC080919C028F3F09F0ACC0C9
:1009200080919D028F3F09F0A7C091E090938A02C9
:10093000109297021092890110928801E5E6F0E08A
:1009400080818B7F808380818D7F808380818160A7
:10095000808386EF8A95F1F79BBB86EF8A95F1F746
:1009600080818E7F808382E006C0E6E6FEE03197DC
:10097000F1F70000892F9FEF980F8111F6CFE5E680
:10098000F0E080818B7F808380818D7F8083808178
:100990008160808386EF8A95F1F780E88BBB86EFD4
:1009A0008A95F1F780818E7F8083ACE3B1E022C02D
:1009B000119681E006C0E6E6FEE03197F1F700000F
:1009C000822F2FEF280F8111F6CFE5E6F0E080812E
:1009D0008460808380818D7F80838081816080833B
:1009E00086EF8A95F1F79BBB86EF8A95F1F78081B8
:1009F0008E7F80839C919111DBCFE5E6F0E08081D2
:100A00008B7F808380818D7F8083808181608083E4
:100A100086EF8A95F1F780EC8BBB86EF8A95F1F72C
:100A200080818E7F8083A5E4B1E022C0119681E0B1
:100A300006C0E6E6FEE03197F1F70000822F2FEFC7
:100A4000280F8111F6CFE5E6F0E080818460808395
:100A500080818D7F808380818160808386EF8A950D
:100A6000F1F79BBB86EF8A95F1F780818E7F8083BB
:100A70009C919111DBCF0DC0ECE9F2E08081809375
:100A8000960281818093950281E080939402109276
:100A90009702FF91EF91BF91AF919F918F912F910D
:100AA0000F900BBE0F900FBE0F901F9018951F92C6
:100AB0000F920FB60F9211248F939F9380919E02F5
:100AC00090919F02019690939F0280939E02809145
:100AD0009E0290919F028436910538F081E08093C8
:100AE0009B0210929F0210929E029F918F910F90F5
:100AF0000FBE0F901F9018951F920F920FB60F9276
:100B000011240BB60F922F933F938F939F93EF93E4
:100B1000FF9380918F02882331F08091920290910F
:100B20009302892B29F4109291021092900287C0AF
:100B300080918E02882309F468C0809195028130EB
:100B400009F063C080918C0290918D020196909380
:100B50008D0280938C0280918B02813001F130F004
:100B6000823069F1833009F442C04FC080918C0219
:100B700090918D028032934008F447C081E08093C9
:100B80008B0210928D0210928C02E5E6F0E08081DB
:100B90008F7E8083109291021092900236C08091D5
:100BA0008C0290918D02803B944008F448C082E012
:100BB00080938B0210928D0210928C0240C0809123
:100BC0008C0290918D0280329340F8F083E0809304
:100BD0008B0210928D0210928C02E5E6F0E080818B
:100BE0008F7E808310929102109290020EC08091AD
:100BF0008C0290918D028037974108F110928B0200
:100C000010928D0210928C021AC0809190029091E5
:100C1000910201969093910280939002209192020A
:100C2000309193028217930750F010929102109224
:100C30009002E5E6F0E0908180E189278083FF91D2
:100C4000EF919F918F913F912F910F900BBE0F903D
:100C50000FBE0F901F90189584B7806884BF84B72B
:100C6000806884BF84B7806884BF84B7806884BF8D
:100C70000895CF93DF93CDB7DEB7EE970FB6F89414
:100C8000DEBF0FBECDBFE8DF88EC89831EDA8FEFB1
:100C90008ABBE4E6F0E0808187608083E5E6F0E0EF
:100CA00080818B7F808380818D7F80838081816044
:100CB000808386EF8A95F1F788E38BBB96EF9A9550
:100CC000F1F780818E7F808384E006C0E6E6FEE057
:100CD0003197F1F70000892F9FEF980F8111F6CF20
:100CE000E5E6F0E080818B7F808380818D7F80834B
:100CF00080818160808386EF8A95F1F788E38BBBE2
:100D000096EF9A95F1F780818E7F808384E006C00C
:100D1000E6E6FEE03197F1F70000892F9FEF980F8C
:100D20008111F6CFE5E6F0E080818B7F80838081C2
:100D30008D7F808380818160808386EF8A95F1F743
:100D400088E38BBB96EF9A95F1F780818E7F808345
:100D500084E006C0E6E6FEE03197F1F70000892F57
:100D60009FEF980F8111F6CFE5E6F0E080818B7F51
:100D7000808380818D7F808380818160808386EF06
:100D80008A95F1F78EE08BBB96EF9A95F1F780810B
:100D90008E7F808382E006C0E6E6FEE03197F1F7C1
:100DA0000000892F9FEF980F8111F6CFE5E6F0E064
:100DB00080818B7F808380818D7F80838081816033
:100DC000808386EF8A95F1F786E08BBB96EF9A9544
:100DD000F1F780818E7F808382E006C0E6E6FEE048
:100DE0003197F1F70000892F9FEF980F8111F6CF0F
:100DF000A6D918DB1092710082E38093700084E022
:100E00008093740017DB1BDB21DB898127DB87B331
:100E10008F6687BB82B1886182B981B3806F81BBE5
:100E2000E4E6F0E080818061808305E610E0F8016F
:100E300080818F7E80831CA61DA641E560E080EE48
:100E4000A1D9F80190819B7F908390819D7F9083B1
:100E5000908191609083F6EFFA95F1F790EC9BBB4F
:100E600096EF9A95F1F7F80190819E7F90831F92FB
:100E70008F938FE691E09F938F938E010C5F1F4FAE
:100E80001F930F931AD20F900F900F900F900F9007
:100E90000F90D80122C0119681E006C0E6E6FEE080
:100EA0003197F1F70000822F2FEF280F8111F6CF35
:100EB000E5E6F0E080818460808380818D7F80839F
:100EC00080818160808386EF8A95F1F79BBB96EFE6
:100ED0009A95F1F780818E7F80839C919111DBCF71
:100EE00080EE6CDA10929F0210929E02789481E05C
:100EF0000BDBBE016F5F7F4F88EC3ADB80918A028B
:100F0000882309F4BBC0809188018823B9F310922B
:100F10008801E5E6F0E080818B7F808380818D7F92
:100F2000808380818160808386EF8A95F1F781E0FC
:100F30008BBB96EF9A95F1F780818E7F808382E05C
:100F400006C0E6E6FEE03197F1F70000892F9FEF3B
:100F5000980F8111F6CFE5E6F0E080818B7F8083EA
:100F600080818D7F808380818160808386EF8A95F8
:100F7000F1F780E88BBB96EF9A95F1F780818E7F31
:100F80008083A2E5B1E022C0119681E006C0E6E6CA
:100F9000FEE03197F1F70000822F2FEF280F81112B
:100FA000F6CFE5E6F0E080818460808380818D7FEC
:100FB000808380818160808386EF8A95F1F79BBB77
:100FC00096EF9A95F1F780818E7F80839C919111A5
:100FD000DBCFE5E6F0E080818B7F808380818D7FB1
:100FE000808380818160808386EF8A95F1F780EC31
:100FF0008BBB96EF9A95F1F780818E7F808330E0EE
:1010000011C0832F90E0FC01E657FE4F2081211193
:1010100001C020E2EEE2F0E0EC0FFD1FE80FF91F47
:1010200020833F5F303168F31EAEDE019E9622C002
:10103000119681E006C0E6E6FEE03197F1F7000088
:10104000822F2FEF280F8111F6CFE5E6F0E08081A7
:101050008460808380818D7F8083808181608083B4
:1010600086EF8A95F1F79BBB96EF9A95F1F7808111
:101070008E7F80839C919111DBCF40CF8091940231
:10108000882351F0BE01635D7F4FCE018C9603DA59
:101090008DA594DB1092940281E036DABE016F5F79
:1010A0007F4F8CA565DA80919B02813009F026CFB5
:1010B00010929B02BE016E5F7F4F80EE83D9892B19
:1010C00009F47DC0E5E6F0E080818B7F808380813C
:1010D0008D7F808380818160808386EF8A95F1F7A0
:1010E00080E88BBB96EF9A95F1F780818E7F8083A5
:1010F000AAE5B1E022C0119681E006C0E6E6FEE076
:101100003197F1F70000822F2FEF280F8111F6CFD2
:10111000E5E6F0E080818460808380818D7F80833C
:1011200080818160808386EF8A95F1F79BBB96EF83
:101130009A95F1F780818E7F80839C919111DBCF0E
:10114000E5E6F0E080818B7F808380818D7F8083E6
:1011500080818160808386EF8A95F1F785EC8BBB77
:1011600096EF9A95F1F780818E7F8083A0E6B1E0BB
:1011700022C0119681E006C0E6E6FEE03197F1F765
:101180000000822F2FEF280F8111F6CFE5E6F0E067
:1011900080818460808380818D7F80838081816075
:1011A000808386EF8A95F1F79BBB96EF9A95F1F7CE
:1011B00080818E7F80839C919111DBCF9FCECE0169
:1011C000029672D9CE01029657D9E5E6F0E0808109
:1011D0008B7F808380818D7F80838081816080830D
:1011E00086EF8A95F1F780E88BBB96EF9A95F1F739
:1011F00080818E7F80838B818F938A818F9384E718
:1012000091E09F938F938E010C5F1F4F1F930F935D
:1012100054D00F900F900F900F900F900F90D80117
:1012200022C0119681E006C0E6E6FEE03197F1F7B4
:101230000000822F2FEF280F8111F6CFE5E6F0E0B6
:1012400080818460808380818D7F808380818160C4
:10125000808386EF8A95F1F79BBB96EF9A95F1F71D
:1012600080818E7F80839C919111DBCF8DA5B8D931
:1012700080EEA4D843CEA1E21A2EAA1BBB1BFD010F
:101280000DC0AA1FBB1FEE1FFF1FA217B307E40765
:10129000F50720F0A21BB30BE40BF50B661F771FBD
:1012A000881F991F1A9469F760957095809590959D
:1012B0009B01AC01BD01CF0108950F931F93CF9304
:1012C000DF93CDB7DEB72E970FB6F894DEBF0FBE13
:1012D000CDBF0D891E8986E08C831A8309838FEF29
:1012E0009FE79E838D83AE01475E5F4F6F89788D48
:1012F000CE01019610D0EF81F885E00FF11F10822A
:101300002E960FB6F894DEBF0FBECDBFDF91CF9102
:101310001F910F9108952F923F924F925F926F927B
:101320007F928F929F92AF92BF92CF92DF92EF9275
:10133000FF920F931F93CF93DF93CDB7DEB72B9719
:101340000FB6F894DEBF0FBECDBF6C017B018A01E2
:10135000FC0117821682838181FFBFC1CE010196F5
:101360003C01F6019381F70193FD859193FF8191F3
:101370007F01882309F4ADC1853239F493FD85914D
:1013800093FF81917F01853221F4B60190E0D6D19F
:10139000E8CF912C212C312CFFE1F315D8F08B32C2
:1013A00079F038F4803279F08332A1F4232D206172
:1013B0001DC08D3261F0803369F4232D216016C089
:1013C000832D8260382EE32DE4603E2E2AC0F32D5B
:1013D000F8601DC037FC2DC020ED280F2A3040F0EA
:1013E0008E32B9F436FC75C1232D2064322E19C01B
:1013F00036FE06C08AE0989E200D1124922E11C060
:10140000EAE02E9E200D1124222EF32DF0623F2EB5
:1014100008C08C3621F4832D8068382E02C08836AF
:1014200041F4F70193FD859193FF81917F01811133
:10143000B3CF982F9F7D9554933028F40C5F1F4FA6
:101440009FE399830DC0833631F0833771F0833584
:1014500009F055C020C0F801808189830E5F1F4FBD
:1014600088248394912C530112C02801F2E04F0E7E
:10147000511CF801A080B18036FE03C0692D70E0D8
:1014800002C06FEF7FEFC5014ED14C018201F32DF9
:10149000FF773F2E15C0280122E0420E511CF801B3
:1014A000A080B18036FE03C0692D70E002C06FEFEE
:1014B0007FEFC5012DD14C01F32DF0683F2E820145
:1014C00033FC19C0822D90E088169906A0F4B6016D
:1014D00080E290E033D12A94F5CFF50137FC859175
:1014E00037FE81915F01B60190E028D121102A9446
:1014F00021E0821A91088114910479F7E1C08436C1
:1015000011F0893639F5F80137FE07C06081718125
:10151000828193810C5F1F4F08C060817181072E0B
:10152000000C880B990B0E5F1F4FF32DFF763F2E9B
:1015300097FF09C090958095709561957F4F8F4F6B
:101540009F4FF0683F2E2AE030E0A30133D1882E70
:10155000861844C0853731F4232D2F7EB22E2AE021
:1015600030E025C0932D997FB92E8F36C1F018F445
:10157000883579F0AEC0803719F0883721F0A9C0DE
:10158000E92FE061BE2EB4FE0DC0FB2DF460BF2E2E
:1015900009C034FE0AC0292F2660B22E06C028E0FA
:1015A00030E005C020E130E002C020E132E0F80187
:1015B000B7FE07C060817181828193810C5F1F4FEC
:1015C00006C06081718180E090E00E5F1F4FA30133
:1015D000F1D0882E8618FB2DFF773F2E36FE0DC0EA
:1015E000232D2E7FA22E891458F434FE0BC032FC1A
:1015F00009C0832D8E7EA82E05C0B82CA32C03C055
:10160000B82C01C0B92CA4FE0FC0FE01E80DF11DDD
:101610008081803321F49A2D997EA92E09C0A2FEE3
:1016200006C0B394B39404C08A2D867809F0B394AD
:10163000A3FC10C0A0FE06C0B21480F4280C922CAB
:101640009B180DC0B21458F4B60180E290E076D039
:10165000B394F8CFB21418F42B1802C0982C212C94
:10166000A4FE0FC0B60180E390E068D0A2FE16C0D1
:10167000A1FC03C088E790E002C088E590E0B601D5
:101680000CC08A2D867851F0A1FE02C08BE201C009
:1016900080E2A7FC8DE2B60190E050D0891430F4CE
:1016A000B60180E390E04AD09A94F8CF8A94F3018F
:1016B000E80DF11D8081B60190E040D08110F6CF99
:1016C000222009F44ECEB60180E290E037D02A9471
:1016D000F7CFF6018681978102C08FEF9FEF2B969F
:1016E0000FB6F894DEBF0FBECDBFDF91CF911F9133
:1016F0000F91FF90EF90DF90CF90BF90AF909F90B1
:101700008F907F906F905F904F903F902F900895B3
:10171000FC010590615070400110D8F780959095BC
:101720008E0F9F1F0895FC016150704001900110C1
:10173000D8F7809590958E0F9F1F08950F931F9354
:10174000CF93DF93FB01238121FD03C08FEF9FEF38
:101750002CC022FF16C04681578124813581421753
:10176000530744F4A081B1819D012F5F3F4F318326
:1017700020838C93268137812F5F3F4F37832683C9
:1017800014C08B01EC01FB010084F185E02D09956B
:10179000892BE1F6D80116968D919C9117970196A9
:1017A00017969C938E931697CE01DF91CF911F9140
:1017B0000F910895FA01AA27283051F1203181F1C3
:1017C000E8946F936E7F6E5F7F4F8F4F9F4FAF4F49
:1017D000B1E03ED0B4E03CD0670F781F891F9A1F5C
:1017E000A11D680F791F8A1F911DA11D6A0F711D10
:1017F000811D911DA11D20D009F468943F912AE01C
:10180000269F11243019305D3193DEF6CF01089503
:10181000462F4770405D4193B3E00FD0C9F7F6CF34
:10182000462F4F70405D4A3318F0495D31FD4052FC
:10183000419302D0A9F7EACFB4E0A6959795879592
:1018400077956795BA95C9F7009761057105089571
:101850009B01AC010A2E069457954795379527951D
:10186000BA95C9F7620F731F841F951FA01D0895B5
:04187000F894FFCF1A
:1018740073746174653D53414645202020200073F4
:10188400746174653D5741524E494E47200073744C
:101894006174653D44414E47455220200073746194
:1018A40074653D4552524F52202020004F54412030
:1018B4004D4F4445005741495420444154412E2E34
:1018C4002E004F54412052583A00446973743D002D
:1018D4004552522020202020202020202020005764
:1018E4003A256400446973743D20253033752063C0
:0618F4006D202020000021
:00000001FF
