:100000004BC0000067C0000065C0000063C0000076
:1000100061C000005FC000005DC000005BC0000068
:1000200059C000000BC7000055C0000053C00000BD
:1000300051C000004FC000004DC00000DAC60000F3
:1000400049C0000047C00000A2C5000055C500001F
:1000500041C000003FC000003DC000003BC00000A8
:1000600039C0000037C0000035C0000033C00000B8
:1000700031C000002FC000002DC000002BC00000C8
:1000800029C0000027C0000025C000006364696E1D
:100090006F70737578585B0011241FBECFEFD0E1ED
:1000A000DEBFCDBF12E0A0E0B1E0E6E0F2E200E0AA
:1000B0000BBF02C007900D92AE33B107D9F723E012
:1000C000AEE3B2E001C01D92A13EB207E1F773D7E3
:1000D0000C94011195CF1092900087E189B91BB85B
:1000E00088E98AB986E08093950008950F931F935D
:1000F000009731F18C0120E030E0C901B801605F68
:10010000784D8F4F9F4FA9019801220F331F441F35
:10011000551F0E94300A211531054105510521F472
:1001200021E030E040E050E021368AEE380741051A
:10013000510520F020E63AEE40E050E0C90102C04F
:1001400080E090E01F910F910895E7EDF3E088ECD7
:1001500090E09183808386E990E093838283148288
:100160001092D6030895E5E6F0E080818B7F8083CE
:1001700080818D7F808380818160808386EF8A95F6
:10018000F1F781E08BBB86EF8A95F1F780818E7F56
:10019000808382E006C0E6E6FEE03197F1F70000DA
:1001A000892F9FEF980F8111F6CF089594EA9093CD
:1001B000740020E030E006C0F9013196213D37405F
:1001C00038F49F01909174009923B4F790917100D5
:1001D0008093730084E88093740080E090E007C00F
:1001E0009C012F5F3F4F813D974060F4C9012091F2
:1001F00074002223ACF780917100887F883121F050
:1002000082E003C081E001C080E081113DC06093C5
:10021000730094E89093740020E030E007C0B901C7
:100220006F5F7F4F213D374060F49B0190917400D8
:100230009923ACF790917100987F983219F082E081
:1002400001C081E0811120C04093730094E8909335
:10025000740020E030E007C0A9014F5F5F4F213DEF
:10026000374060F49A01909174009923ACF7909113
:100270007100987F983219F082E001C081E081110D
:1002800003C094E990937400089594EA90937400E5
:1002900020E030E006C0F9013196213D374038F4C6
:1002A0009F01909174009923B4F79091710080930D
:1002B000730094E89093740020E030E006C0F901E8
:1002C0003196213D374060F49F019091740099234D
:1002D000B4F790917100987F983121F0E2E003C06B
:1002E000E1E001C0E0E0E1117BC06093730094E8BD
:1002F0009093740020E030E007C0B9016F5F7F4F3A
:10030000213D374060F49B01909174009923ACF734
:1003100090917100987F983219F0E2E001C0E1E01D
:10032000E1115EC094EA9093740020E030E007C0D1
:10033000B9016F5F7F4F213D374060F49B01909181
:1003400074009923ACF790917100987F903119F067
:10035000E2E001C0E1E0E11143C0816080937300FD
:1003600084E88093740020E030E007C0B9016F5F3B
:100370007F4F213D374060F49B0190917400992399
:10038000ACF780917100887F803419F0E2E001C001
:10039000E1E0E11125C084E88093740020E030E0C2
:1003A00006C0C9010196213D374060F49C0180914F
:1003B00074008823B4F780917100887F883519F024
:1003C000E2E001C0E1E0E11103C08091730001C0EF
:1003D00080E0E11105C094E990937400DA018C93F8
:1003E0008E2F089541E560E0E1CE0895EF92FF92EF
:1003F0001F93CF93DF931F92CDB7DEB7182F7B01EA
:10040000AE014F5F5F4F62E040DF882311F090E064
:1004100016C08981F70110828183AE014F5F5F4F63
:1004200063E0812F32DF882311F090E008C09981CA
:10043000F70120813181292B3183208390E00F90B7
:10044000DF91CF911F91FF90EF9008958FE083BFD0
:1004500012BE8EE081BF82E087BF089581EA8FBD22
:100460008AE08EBD089581EA80938B008AE08093B4
:100470008A0008958CE085BD82E783BD87B78068D8
:1004800087BF0895CF9380E190E00E94D910C82FD4
:1004900081E190E00E94D910CB3611F4813029F02F
:1004A00054DE81E08093D6030AC045E050E062E16B
:1004B00070E087ED93E00E94C9101092D603CF91AF
:1004C00008951F93CF93DF9300D000D01F92CDB734
:1004D000DEB79FB7F89481E00AC085E0E7EDF3E06E
:1004E000DE01119601900D928A95E1F780E081116D
:1004F000F4CF9FBF1FB7F89481E015C06BE680E191
:1005000090E00E94F01061E081E190E00E94F01024
:1005100045E050E062E170E0CE0101960E94E110FA
:100520001092D60380E08111E9CF1FBF0F900F908A
:100530000F900F900F90DF91CF911F9108958091B0
:10054000D6038111BECF089590E09BBD8ABD99BDB1
:1005500088BD909387008093860090938500809358
:1005600084000895DC0111962C911197E4EDF3E0DD
:1005700021838C9180831092D3038AB180628AB9DF
:1005800008952091D103FC0120838091D003FB01C9
:1005900080830895FC01408151819A0121503109E5
:1005A000243F314040F020913E0230913F02FC0157
:1005B00031832083089520913E0230913F0221151E
:1005C000310529F450933F0240933E020895B9014A
:1005D000660F771F260F371F240F351F3695279577
:1005E00036952795FC013183208330933F02209379
:1005F0003E020895811119C082B3806182BB82B32B
:100600008F7D82BB82B3806482BB82B38F7782BBD3
:1006100088B3816088BB88B38D7F88BB88B38460D2
:1006200088BB88B3877F88BB089582B38F7E82BBE7
:1006300082B3806282BB82B38F7B82BB82B38068CD
:1006400082BB88B38E7F88BB88B3826088BB88B347
:100650008B7F88BB88B3886088BB0895CF93DF9376
:10066000EB01813029F48091D70388836DDF2DC0A1
:10067000823029F48091D903888366DF26C08430D4
:1006800019F4888161DF21C08330F9F4888190E01A
:1006900011C09BBD8ABD99BD88BD90938700809392
:1006A00086009093850080938400E3E3FBE231971A
:1006B000F1F70A9799236CF780E046DF188282B33E
:1006C0008F7082BB88B3807F88BBDF91CF91089504
:1006D000E5E6F0E090819B7F908390819D7F908301
:1006E00090819160908396EF9A95F1F790EC9BBB87
:1006F00096EF9A95F1F790819E7F9083813009F46F
:1007000054C050F1823009F479C0833009F49FC09D
:10071000C7C0119681E006C0E6E6FEE03197F1F72A
:100720000000822F2FEF280F8111F6CFE5E6F0E0D1
:1007300080818460808380818D7F808380818160DF
:10074000808386EF8A95F1F79BBB96EF9A95F1F738
:1007500080818E7F808302C0A0E0B1E09C919111E6
:10076000D8CF0895119681E006C0E6E6FEE0319705
:10077000F1F70000822F2FEF280F8111F6CFE5E669
:10078000F0E080818460808380818D7F80838081A0
:100790008160808386EF8A95F1F79BBB96EF9A95EF
:1007A000F1F780818E7F808302C0AFE0B1E09C9141
:1007B0009111D8CF0895119681E006C0E6E6FEE0DB
:1007C0003197F1F70000822F2FEF280F8111F6CF1C
:1007D000E5E6F0E080818460808380818D7F808386
:1007E00080818160808386EF8A95F1F79BBB96EFCD
:1007F0009A95F1F780818E7F808302C0AEE1B1E0EF
:100800009C919111D8CF0895119681E006C0E6E63B
:10081000FEE03197F1F70000822F2FEF280F8111B2
:10082000F6CFE5E6F0E080818460808380818D7F73
:10083000808380818160808386EF8A95F1F79BBBFE
:1008400096EF9A95F1F780818E7F808302C0ADE2AA
:10085000B1E09C919111D8CF0895119681E006C026
:10086000E6E6FEE03197F1F70000822F2FEF280F28
:100870008111F6CFE5E6F0E080818460808380819D
:100880008D7F808380818160808386EF8A95F1F7F8
:100890009BBB96EF9A95F1F780818E7F808302C093
:1008A000ADE2B1E09C919111D8CF0895813081F0F3
:1008B00028F0823001F1833059F108951092CA0373
:1008C0001092C903E5E6F0E080818F7E8083089571
:1008D00081E08093CA038093C90380EF9AE006DC2D
:1008E0009093CE038093CD031092C8031092C70358
:1008F0001092C603089581E08093CA031092C90341
:1009000080E692E2F3DB9093CE038093CD030895CB
:1009100081E08093CA038093C90388EA91E6E6DB0D
:100920009093CE038093CD031092C8031092C70317
:100930001092C6030895209140022111FCCF9F938D
:100940008F938CE391E09F938F931F9280E88F9316
:1009500082E492E09F938F93AED5809340021092F1
:1009600041028AB180628AB98DB79EB708960FB6E8
:10097000F8949EBF0FBE8DBF08950F931F93CF9322
:10098000DF93CDB7DEB7C058D1090FB6F894DEBFFC
:100990000FBECDBFE7EDF3E084811F928F9383817B
:1009A0008F9382818F9381818F9380818F9380E455
:1009B00091E09F938F931F9280E88F938E010F5F3A
:1009C0001F4F1F930F9377D5C801B5DF0FB6F8946B
:1009D000DEBF0FBECDBFC058DF4F0FB6F894DEBFED
:1009E0000FBECDBFDF91CF911F910F9108950F934F
:1009F0001F93CF93DF93EC018B016CE771E052D52D
:100A0000892B89F4C8010197893F910520F410933F
:100A1000D8030093D70381E08093D6038EE891E05A
:100A20008ADFABDF2DC060EA71E0CE013BD5892BB8
:100A300089F4C8010197893F910520F41093DA03E6
:100A40000093D90381E08093D6038EE891E073DFB1
:100A500094DF16C065EB71E0CE0124D5892B69F4D3
:100A60000130110511F40093DB0381E08093D6037C
:100A70008EE891E060DF81DF03C08FEB91E05BDF08
:100A8000DF91CF911F910F910895CF93DF93CDB751
:100A9000DEB7A2970FB6F894DEBF0FBECDBF809130
:100AA000C503882301F1CE0181969F938F93809790
:100AB0009F938F9382ED91E09F938F9385EC92E0CB
:100AC0009F938F9362D50FB6F894DEBF0FBECDBF54
:100AD000029721F084EE91E02EDF05C069A17AA192
:100AE000CE01019684DFA2960FB6F894DEBF0FBE4A
:100AF000CDBFDF91CF9108951F920F920FB60F9245
:100B000011240BB60F928F939F93EF93FF938091D5
:100B1000C5038823C9F0E091410281E08E0F8093E4
:100B20004102F0E0EE5BFD4F80818CB99091410273
:100B300080914002981700F18AB18F7D8AB9109296
:100B400041021092400218C08091C503811114C067
:100B5000E091D30381E08E0F8093D303F0E0EC5259
:100B6000FC4F80818CB98091D303823028F08AB108
:100B70008F7D8AB91092D303FF91EF919F918F914E
:100B80000F900BBE0F900FBE0F901F9018951F92E5
:100B90000F920FB60F9211240BB60F922F933F9323
:100BA0004F935F936F937F938F939F93AF93BF9375
:100BB000EF93FF938CB19091C5039923C9F18A3FBC
:100BC000B9F49091C202911104C091E09093C202D5
:100BD00011C01092C5031092C4021092C302109269
:100BE0004102109240028AB18F7D8AB9A8DCEEC022
:100BF0001092C2028A3061F4E091C402F0E0EB533B
:100C0000FD4F108281E08093C3021092C402DEC0C7
:100C10009091C4029F3F09F4D9C0E091C40291E0D1
:100C20009E0F9093C402F0E0EB53FD4F8083CEC043
:100C3000E091D20391E09E0F9093D203F0E0E35253
:100C4000FC4F80838091D203823008F4BFC0809132
:100C5000DD038F3F09F0ADC08091DE038F3F09F0C7
:100C6000A8C091E09093C5031092D2031092C402E1
:100C70001092C302E5E6F0E080818B7F8083808163
:100C80008D7F808380818160808386EF8A95F1F7F4
:100C90009BBB86EF8A95F1F780818E7F808382E00F
:100CA00006C0E6E6FEE03197F1F70000892F9FEFDE
:100CB000980F8111F6CFE5E6F0E080818B7F80838D
:100CC00080818D7F808380818160808386EF8A959B
:100CD000F1F780E88BBB86EF8A95F1F780818E7FF4
:100CE0008083ADEFB1E022C0119681E006C0E6E658
:100CF000FEE03197F1F70000822F2FEF280F8111CE
:100D0000F6CFE5E6F0E080818460808380818D7F8E
:100D1000808380818160808386EF8A95F1F79BBB19
:100D200086EF8A95F1F780818E7F80839C91911167
:100D3000DBCFE5E6F0E080818B7F808380818D7F53
:100D4000808380818160808386EF8A95F1F780ECD3
:100D50008BBB86EF8A95F1F780818E7F8083A6E03A
:100D6000B2E022C0119681E006C0E6E6FEE03197CF
:100D7000F1F70000822F2FEF280F8111F6CFE5E663
:100D8000F0E080818460808380818D7F808380819A
:100D90008160808386EF8A95F1F79BBB86EF8A9509
:100DA000F1F780818E7F80839C919111DBCFE5DD0F
:100DB0000DC0EDEDF3E080818093D10381818093BC
:100DC000D00381E08093CF031092D203FF91EF9183
:100DD000BF91AF919F918F917F916F915F914F9153
:100DE0003F912F910F900BBE0F900FBE0F901F9051
:100DF00018951F920F920FB60F9211248F939F9305
:100E00008091DF039091E00301969093E00380933B
:100E1000DF038091DF039091E0038436910538F081
:100E200081E08093DC031092E0031092DF039F9136
:100E30008F910F900FBE0F901F9018951F920F92D9
:100E40000FB60F9211240BB60F922F933F938F93EF
:100E50009F93EF93FF938091CA03882331F0809191
:100E6000CD039091CE03892B29F41092CC031092DC
:100E7000CB0387C08091C903882309F468C080919F
:100E8000D003813009F063C08091C7039091C803FB
:100E900001969093C8038093C7038091C603813065
:100EA00001F130F0823069F1833009F442C04FC063
:100EB0008091C7039091C8038032934008F447C0E3
:100EC00081E08093C6031092C8031092C703E5E641
:100ED000F0E080818F7E80831092CC031092CB0350
:100EE00036C08091C7039091C803803B944008F4BA
:100EF00048C082E08093C6031092C8031092C703D3
:100F000040C08091C7039091C80380329340F8F0AD
:100F100083E08093C6031092C8031092C703E5E6EE
:100F2000F0E080818F7E80831092CC031092CB03FF
:100F30000EC08091C7039091C8038037974108F194
:100F40001092C6031092C8031092C7031AC0809172
:100F5000CB039091CC0301969093CC038093CB0369
:100F60002091CD033091CE038217930750F0109259
:100F7000CC031092CB03E5E6F0E0908180E1892775
:100F80008083FF91EF919F918F913F912F910F90CF
:100F90000BBE0F900FBE0F901F90189584B78068FE
:100FA00084BF84B7806884BF84B7806884BF84B7F7
:100FB000806884BF0895CF93DF93CDB7DEB7AD9738
:100FC0000FB6F894DEBF0FBECDBFE8DF5BDA8091CD
:100FD000D703898380D88FEF8ABBE4E6F0E0808175
:100FE00087608083E5E6F0E080818B7F808380816D
:100FF0008D7F808380818160808386EF8A95F1F781
:1010000088E38BBB96EF9A95F1F780818E7F808382
:1010100084E006C0E6E6FEE03197F1F70000892F94
:101020009FEF980F8111F6CFE5E6F0E080818B7F8E
:10103000808380818D7F808380818160808386EF43
:101040008A95F1F788E38BBB96EF9A95F1F780814B
:101050008E7F808384E006C0E6E6FEE03197F1F7FC
:101060000000892F9FEF980F8111F6CFE5E6F0E0A1
:1010700080818B7F808380818D7F80838081816070
:10108000808386EF8A95F1F788E38BBB96EF9A957C
:10109000F1F780818E7F808384E006C0E6E6FEE083
:1010A0003197F1F70000892F9FEF980F8111F6CF4C
:1010B000E5E6F0E080818B7F808380818D7F808377
:1010C00080818160808386EF8A95F1F78EE08BBB0B
:1010D00096EF9A95F1F780818E7F808382E006C03B
:1010E000E6E6FEE03197F1F70000892F9FEF980FB9
:1010F0008111F6CFE5E6F0E080818B7F80838081EF
:101100008D7F808380818160808386EF8A95F1F76F
:1011100086E08BBB96EF9A95F1F780818E7F808376
:1011200082E006C0E6E6FEE03197F1F70000892F85
:101130009FEF980F8111F6CF16D888D910927100C1
:1011400082E38093700084E08093740087D98BD908
:1011500091D98981F9D987B38F6687BB82B18861BC
:1011600082B981B3806F81BBE4E6F0E08081806169
:10117000808305E610E0F80180818F7E80831CA6C5
:101180001DA641E560E080EE11D8F80190819B7FBB
:10119000908390819D7F9083908191609083F6EF02
:1011A000FA95F1F790EC9BBB96EF9A95F1F7F80161
:1011B00090819E7F90831F928F9388E292E09F930D
:1011C0008F938E010C5F1F4F1F930F93B0D10F9021
:1011D0000F900F900F900F900F90D80122C0119692
:1011E00081E006C0E6E6FEE03197F1F70000822FCD
:1011F0002FEF280F8111F6CFE5E6F0E080818460C3
:10120000808380818D7F808380818160808386EF71
:101210008A95F1F79BBB96EF9A95F1F780818E7FC7
:1012200080839C919111DBCF80EEDCD81092E0039B
:101230001092DF03789407ED13E0F8018481DAD986
:10124000BE016F5F7F4FF801808108DA8091C5038E
:10125000882341F08091C3028823C1F31092C30216
:1012600014DCF4CF8091CF03882351F0BE01635D7D
:101270007F4FCE018C9685D98DA518DB1092CF03B8
:101280008091DB03B7D9BE016F5F7F4F8CA5E6D994
:101290008091DC038130D1F61092DC03BE016E5FD9
:1012A0007F4F80EEA3D8892B09F47DC0E5E6F0E0FE
:1012B00080818B7F808380818D7F8083808181602E
:1012C000808386EF8A95F1F780E88BBB96EF9A953D
:1012D000F1F780818E7F8083A3E1B2E022C0119676
:1012E00081E006C0E6E6FEE03197F1F70000822FCC
:1012F0002FEF280F8111F6CFE5E6F0E080818460C2
:10130000808380818D7F808380818160808386EF70
:101310008A95F1F79BBB96EF9A95F1F780818E7FC6
:1013200080839C919111DBCFE5E6F0E080818B7F9B
:10133000808380818D7F808380818160808386EF40
:101340008A95F1F785EC8BBB96EF9A95F1F7808142
:101350008E7F8083A9E1B2E022C0119681E006C0B1
:10136000E6E6FEE03197F1F70000822F2FEF280F1D
:101370008111F6CFE5E6F0E0808184608083808192
:101380008D7F808380818160808386EF8A95F1F7ED
:101390009BBB96EF9A95F1F780818E7F80839C911D
:1013A0009111DBCF53CFCE010296F4D8CE01029635
:1013B000D9D8E5E6F0E080818B7F808380818D7FC6
:1013C000808380818160808386EF8A95F1F780E851
:1013D0008BBB96EF9A95F1F780818E7F80838B810E
:1013E0008F938A818F938DE292E09F938F938E01EA
:1013F0000C5F1F4F1F930F939AD00F900F900F9079
:101400000F900F900F90D80122C0119681E006C076
:10141000E6E6FEE03197F1F70000822F2FEF280F6C
:101420008111F6CFE5E6F0E08081846080838081E1
:101430008D7F808380818160808386EF8A95F1F73C
:101440009BBB96EF9A95F1F780818E7F80839C916C
:101450009111DBCF8DA53CD980EE0E94F201F6CE32
:10146000A1E21A2EAA1BBB1BFD010DC0AA1FBB1FA8
:10147000EE1FFF1FA217B307E407F50720F0A21B1A
:10148000B30BE40BF50B661F771F881F991F1A9487
:1014900069F760957095809590959B01AC01BD01B1
:1014A000CF010895FB01DC018D910190801901109D
:1014B000D9F3990B08950F931F93CF93DF93CDB773
:1014C000DEB72E970FB6F894DEBF0FBECDBF0D89E5
:1014D0001E898F89988D26E02C831A83098397FFB4
:1014E00002C080E090E801979E838D83AE01455E47
:1014F0005F4F698D7A8DCE01019668D04D815E81F6
:1015000057FD0AC02F813885421753070CF49A0102
:10151000F801E20FF31F10822E960FB6F894DEBF8B
:101520000FBECDBFDF91CF911F910F9108950F9303
:101530001F93CF93DF93CDB7DEB72E970FB6F894F6
:10154000DEBF0FBECDBF0D891E8986E08C831A8356
:1015500009838FEF9FE79E838D83AE01475E5F4FC8
:101560006F89788DCE01019631D0EF81F885E00F3B
:10157000F11F10822E960FB6F894DEBF0FBECDBFBE
:10158000DF91CF911F910F910895CF93DF93CDB746
:10159000DEB72E970FB6F894DEBF0FBECDBF85E045
:1015A0008C838B899C899A838983AE01495E5F4FC6
:1015B0006D897E89CE010196B8D32E960FB6F89428
:1015C000DEBF0FBECDBFDF91CF9108952F923F9226
:1015D0004F925F926F927F928F929F92AF92BF9243
:1015E000CF92DF92EF92FF920F931F93CF93DF93EF
:1015F000CDB7DEB72B970FB6F894DEBF0FBECDBFC9
:101600006C017B018A01FC0117821682838181FFB4
:10161000BFC1CE0101963C01F6019381F70193FD14
:10162000859193FF81917F01882309F4ADC18532B3
:1016300039F493FD859193FF81917F01853221F4E7
:10164000B60190E0F0D4E8CF912C212C312CFFE1B1
:10165000F315D8F08B3279F038F4803279F0833298
:10166000A1F4232D20611DC08D3261F0803369F417
:10167000232D216016C0832D8260382EE32DE46077
:101680003E2E2AC0F32DF8601DC037FC2DC020ED82
:10169000280F2A3040F08E32B9F436FC75C1232D64
:1016A0002064322E19C036FE06C08AE0989E200DB6
:1016B0001124922E11C0EAE02E9E200D1124222E1C
:1016C000F32DF0623F2E08C08C3621F4832D806804
:1016D000382E02C0883641F4F70193FD859193FFBF
:1016E00081917F018111B3CF982F9F7D95549330C5
:1016F00028F40C5F1F4F9FE399830DC0833631F0B0
:10170000833771F0833509F055C020C0F80180811E
:1017100089830E5F1F4F88248394912C530112C03C
:101720002801F2E04F0E511CF801A080B18036FE76
:1017300003C0692D70E002C06FEF7FEFC5012AD4AE
:101740004C018201F32DFF773F2E15C0280122E0C6
:10175000420E511CF801A080B18036FE03C0692DF5
:1017600070E002C06FEF7FEFC50109D44C01F32D8B
:10177000F0683F2E820133FC19C0822D90E088165C
:101780009906A0F4B60180E290E04DD42A94F5CFFA
:10179000F50137FC859137FE81915F01B60190E03C
:1017A00042D421102A9421E0821A910881149104D4
:1017B00079F7E1C0843611F0893639F5F80137FE42
:1017C00007C060817181828193810C5F1F4F08C0C7
:1017D00060817181072E000C880B990B0E5F1F4FE3
:1017E000F32DFF763F2E97FF09C090958095709559
:1017F00061957F4F8F4F9F4FF0683F2E2AE030E07A
:10180000A30166D4882E861844C0853731F4232D71
:101810002F7EB22E2AE030E025C0932D997FB92E7D
:101820008F36C1F018F4883579F0AEC0803719F0E2
:10183000883721F0A9C0E92FE061BE2EB4FE0DC0AB
:10184000FB2DF460BF2E09C034FE0AC0292F26608C
:10185000B22E06C028E030E005C020E130E002C032
:1018600020E132E0F801B7FE07C06081718182811A
:1018700093810C5F1F4F06C06081718180E090E012
:101880000E5F1F4FA30124D4882E8618FB2DFF77EF
:101890003F2E36FE0DC0232D2E7FA22E891458F424
:1018A00034FE0BC032FC09C0832D8E7EA82E05C0ED
:1018B000B82CA32C03C0B82C01C0B92CA4FE0FC0B7
:1018C000FE01E80DF11D8081803321F49A2D997E6F
:1018D000A92E09C0A2FE06C0B394B39404C08A2DF9
:1018E000867809F0B394A3FC10C0A0FE06C0B21421
:1018F00080F4280C922C9B180DC0B21458F4B60139
:1019000080E290E090D3B394F8CFB21418F42B187F
:1019100002C0982C212CA4FE0FC0B60180E390E0F9
:1019200082D3A2FE16C0A1FC03C088E790E002C0EB
:1019300088E590E0B6010CC08A2D867851F0A1FEB2
:1019400002C08BE201C080E2A7FC8DE2B60190E00C
:101950006AD3891430F4B60180E390E064D39A949A
:10196000F8CF8A94F301E80DF11D8081B60190E073
:101970005AD38110F6CF222009F44ECEB60180E270
:1019800090E051D32A94F7CFF6018681978102C067
:101990008FEF9FEF2B960FB6F894DEBF0FBECDBF33
:1019A000DF91CF911F910F91FF90EF90DF90CF903B
:1019B000BF90AF909F908F907F906F905F904F906F
:1019C0003F902F90089520FD09C0FC0123FD05C024
:1019D00022FF02C07383628351834083089544FDD4
:1019E00017C046FD17C0AB01BC01DA01FB01AA0F0D
:1019F000BB1FEE1FFF1F1094D1F74A0F5B1F6E1F16
:101A00007F1FCB01BA01660F771F881F991F09C07E
:101A100033E001C034E0660F771F881F991F3150F3
:101A2000D1F7620F711D811D911D08950F931F93B2
:101A3000CF93DF938C01C801B8D2EC0197FD06C0AB
:101A40008BD2892BC1F7B801CE0129D3CE01DF910A
:101A5000CF911F910F9108958F929F92AF92BF9255
:101A6000EF92FF920F931F93CF93DF938C01D62FAA
:101A70007A01B22E9AD29C0133272B32310531F0F4
:101A80002D32310559F48B2D8068B82ED15011F4C8
:101A900080E061C0C80189D297FDFACFCB2DCD7F00
:101AA0002B2D2073F9F48033E9F4AA24AA94AD0E07
:101AB00009F43EC0C80179D297FD3AC09C012F7D40
:101AC00033272835310541F4C264D25089F1C80169
:101AD0006CD297FF07C02CC0B6FE02C0C26001C026
:101AE000C261DA2D812C912C540120ED280F283071
:101AF00078F0C4FF03C0B801D2D217C02A3040F03A
:101B0000C6FFF9CF2F7D3FEE320F3630A0F72750BA
:101B10004C2FC501B40163DF4B015C01C260D150A1
:101B200051F0C80142D297FFE0CFC1FD04C0B0CF51
:101B3000812C912C5401C7FF08C0B094A0949094BC
:101B40008094811C911CA11CB11C2C2FB501A401F7
:101B5000C70139DF81E0DF91CF911F910F91FF9095
:101B6000EF90BF90AF909F908F9008955F926F928B
:101B70007F928F929F92AF92BF92CF92DF92EF921D
:101B8000FF920F931F93CF93DF93CDB7DEB7A0974C
:101B90000FB6F894DEBF0FBECDBF5C01962E7A0162
:101BA000F9018E010F5F1F4F680180E2D8011D927D
:101BB0008A95E9F7D50113968C9080E090E0612C2E
:101BC000712C30E061E070E083FC259183FE21916F
:101BD0008F01522E211103C080E090E090C02E357D
:101BE00011F4009751F1432F50E0481759073CF486
:101BF0002D3559F12D3219F4772009F103C07720E2
:101C000009F468C0452D469546954695D601A40F22
:101C1000B11D452D47708B0102C0000F111F4A9561
:101C2000E2F7A8015C91452B4C93651459F05614CA
:101C300010F45394E7CF5A94E5CF31E004C07724F1
:101C4000739401C0712C0196BFCF772019F08E815B
:101C500080628E83311103C08824839417C0F601FB
:101C60009E012F5D3F4F8081809581932E173F0706
:101C7000D1F7F2CFE114F10429F0D7018C93F701E9
:101C800031967F019A94812C9920E9F0C5018DD17C
:101C900097FD17C0FC01FF2723E0F595E7952A95EE
:101CA000E1F7EC0DFD1D208130E0AC0147705527B8
:101CB00002C0359527954A95E2F720FDDBCFB501A7
:101CC000EED1811089CFE114F10411F0D7011C92FB
:101CD000C80115C0422F469546954695D601A40FDA
:101CE000B11D422F47708B0102C0000F111F4A9592
:101CF000E2F7A8015C91452B4C93622EA4CFA096ED
:101D00000FB6F894DEBF0FBECDBFDF91CF911F910C
:101D10000F91FF90EF90DF90CF90BF90AF909F908A
:101D20008F907F906F905F9008955F926F927F92F7
:101D30008F929F92AF92BF92CF92DF92EF92FF92DB
:101D40000F931F93CF93DF936C01EB015A01FC01BA
:101D500017821682512CF601E380FE01E3FC859187
:101D6000E3FE8191182FEF01882309F4E0C090E091
:101D7000F3D0892B19F0C60159DEEDCF153241F4AD
:101D8000FE01E3FC1591E3FE1191EF01153271F4B0
:101D9000C6010BD197FDC9C0412F50E09C013327EC
:101DA00024173507C1F2B6017AD1C1C01A3239F40D
:101DB000E3FC1591E3FE1191EF0101E001C000E0A9
:101DC000F12C20ED210F2A3078F402606F2D70E0A5
:101DD00080E090E040E203DEF62EFE01E3FC159188
:101DE000E3FE1191EF01EDCF01FF03C0F11003C03D
:101DF0009EC0FF24FA94183619F01C3651F010C01A
:101E0000FE01E3FC1591E3FE1191EF01183641F458
:101E100008600460FE01E3FC1591E3FE1191EF01FF
:101E2000112309F484C0612F70E08CE890E09CD00D
:101E3000892B09F47CC000FD07C0F50180809180EA
:101E4000C50102965C0102C0812C912C1E3649F41A
:101E5000F6014681578160E070E0202FC401B3DDB8
:101E60007ACF1336A1F401FD02C0FF24F394C6011A
:101E70009CD097FD5AC08114910429F0F40180830D
:101E8000C40101964C01FA94F110F1CF4AC01B3500
:101E900051F49E01A4016F2DC60168DEEC01892B6F
:101EA00009F03FC039C0C601C1DD97FD3EC01F36F5
:101EB00049F128F4143621F1193639F125C01337C8
:101EC00071F01537E9F020C08114910429F0F40174
:101ED0006082C40101964C01FA94FF2059F0C601BA
:101EE00064D03C0197FD06C037D0892B69F3B60159
:101EF000C301D5D081149104A1F0F401108211C066
:101F0000006203C0006101C00064202FA4016F2D96
:101F1000C601A2DD811105C0F6018381807329F419
:101F200006C000FD18CF539416CF552019F0852D0B
:101F300090E002C08FEF9FEFDF91CF911F910F9143
:101F4000FF90EF90DF90CF90BF90AF909F908F90D9
:101F50007F906F905F900895911118C1803219F0B1
:101F600089508550D0F70895FC010590061621F0A0
:101F70000020D9F7C00108953197CF010895FC01E1
:101F80000590615070400110D8F7809590958E0FA4
:101F90009F1F0895FC016150704001900110D8F717
:101FA000809590958E0F9F1F0895CF93DF93EC013E
:101FB0002B8120FF33C026FF0AC02F7B2B838E810D
:101FC0009F8101969F838E838A8190E029C022FFA2
:101FD0000FC0E881F9818081082E000C990B0097D1
:101FE00019F420622B831AC03196F983E8830EC05E
:101FF000EA85FB85099597FF09C02B81019611F0B1
:1020000080E201C080E1822B8B8308C02E813F815A
:102010002F5F3F4F3F832E83992702C08FEF9FEFA3
:10202000DF91CF9108950F931F93CF93DF93FB011F
:10203000238121FD03C08FEF9FEF2CC022FF16C02C
:1020400046815781248135814217530744F4A0818A
:10205000B1819D012F5F3F4F318320838C93268177
:1020600037812F5F3F4F3783268314C08B01EC01EC
:10207000FB010084F185E02D0995892BE1F6D8015B
:1020800016968D919C911797019617969C938E9317
:102090001697CE01DF91CF911F910F910895FB010B
:1020A000238120FF12C026FD10C08F3F3FEF930712
:1020B00061F082832F7D2064238326813781215024
:1020C000310937832683992708958FEF9FEF08956D
:1020D000FA01AA27283051F1203181F1E8946F9359
:1020E0006E7F6E5F7F4F8F4F9F4FAF4FB1E03ED0FF
:1020F000B4E03CD0670F781F891F9A1FA11D680F9D
:10210000791F8A1F911DA11D6A0F711D811D911DCF
:10211000A11D20D009F468943F912AE0269F112444
:102120003019305D3193DEF6CF010895462F4770A8
:10213000405D4193B3E00FD0C9F7F6CF462F4F7003
:10214000405D4A3318F0495D31FD4052419302D061
:10215000A9F7EACFB4E0A695979587957795679507
:10216000BA95C9F700976105710508959B01AC0107
:102170000A2E06945795479537952795BA95C9F72E
:10218000620F731F841F951FA01D0895992788272C
:102190000895DC01CB01FC01E199FECF06C0FFBB35
:1021A000EEBBE09A31960DB20D9241505040B8F717
:1021B0000895E199FECF9FBB8EBBE09A99278DB31E
:1021C0000895DC01A40FB51F4150504040F0CB01F1
:1021D000840F951F2E9105D041505040D8F7089597
:1021E000262FE199FECF9FBB8EBBE09A01970DB2DF
:1021F000021631F02DBB0FB6F894E29AE19A0FBEA9
:062200000895F894FFCFE1
:1022060073746174653D5341464520202020007358
:10221600746174653D5741524E494E4720007374B0
:102226006174653D44414E474552202000737461F8
:1022360074653D4552524F522020200025730A00F6
:102246004D4F544F525F53504545445F42415349A9
:10225600433A2533643B4D4F544F525F53504545E7
:10226600445F44454352454153453A2533643B4D0B
:102276004F544F525F4449523A2575004D4F544FC3
:10228600525F53504545445F4241534943004F54C2
:10229600413A5355423A41434B3A504152414D001F
:1022A6004D4F544F525F53504545445F444543524A
:1022B60045415345004D4F544F525F444952004FDC
:1022C60054413A5355423A4E41434B3A504152419A
:1022D6004D003A504152414D3A2533315B5E3A5DED
:1022E6003A2564004F54413A5355423A4E414B3ACF
:1022F600504152414D5F464F524D4154004F54415B
:10230600204D4F4445005741495420444154412EE5
:102316002E2E00446973743D004552522020202021
:102326002020202020202000573A2564004469738D
:0E233600743D202530337520636D202020007B
:00000001FF
